:020000040800F2
:10000000702C0020016A00084D6900084F69000843
:100010005169000853690008556900080000000094
:100020000000000000000000000000005769000808
:1000300059690008000000005B6900085D6900085C
:100040001D6A0008216A0008256A0008296A00085C
:100050002D6A0008316A0008356A0008396A00080C
:100060003D6A0008416A0008456A0008496A0008BC
:100070004D6A0008516A0008556A0008596A00086C
:100080005D6A0008616A0008656A0008696A00081C
:100090006D6A0008716A0008756A0008796A0008CC
:1000A0007D6A0008816A0008856A0008896A00087C
:1000B0008D6A0008916A0008956A0008996A00082C
:1000C0009D6A0008A16A0008A56A0008A96A0008DC
:1000D000AD6A0008B16A0008B56A0008B96A00088C
:1000E000BD6A0008C16A0008C56A0008C96A00083C
:1000F000CD6A0008D16A0008D56A0008D96A0008EC
:10010000DD6A0008E16A0008E56A0008E96A00089B
:10011000ED6A0008F16A0008F56A0008F96A00084B
:10012000FD6A0008016B0008056B0008096B0008F8
:100130000D6B0008116B0008156B0008196B0008A7
:100140001D6B0008216B0008256B00086169000821
:10015000296B00082D6B0008316B0008356B000817
:10016000396B00083D6B0008416B0008456B0008C7
:10017000496B00084D6B0008516B0008000000003F
:10018000556B0008596B00084178007807E0C1788A
:10019000827842EA01224178007841EA022140EA6D
:1001A000012070470170090A417070470170090A07
:1001B0004170090A8170090AC17070472AB111F8AB
:1001C000013B00F8013B521EF9D17047521E00F866
:1001D000011BFBD17047F0B5024600230024DFF875
:1001E000205A05EB0416306880B11768B84202BF88
:1001F00070689768B84202BFB0685669B04206D1CD
:10020000022C0AD193B9022905D10FE00123641C05
:10021000022CE6D3F4E71220F0BD29B905EB041057
:100220008289B2F5807F01D11020F0BD0020F0BDA1
:10023000F0B5024694681568DFF8C4690023180118
:100240003758AF4202BF371D3F58A74201BF06F1E2
:10025000080738585769B84202D05B1C012BEED909
:10026000022B11D13068002300281EBF0123306902
:1002700000280ED1180137183D607C6006F1080493
:10028000526922500020B88106EB0312908929B1EF
:1002900008B10020F0BD4FF4807000E0401C908158
:1002A000581CF0BD10B5401E022814D20001DFF822
:1002B00050190A189389B3F5807F01D01C0002D130
:1002C0000023938103E05B1E93819BB20BB9002254
:1002D0000A50002010BD022010BD30B50021DFF80B
:1002E000202900250B01D458844208BFD550491C51
:1002F0000129F7D930BDF8B505460024E878A0B14A
:100300002E6B00F014F808B101240EE0E870696A61
:10031000E869711A814208D2AF7804E0E869861969
:1003200000F005F87F1E012FF8D82046F2BD68784E
:100330000123324605F1340101F0BAB970B5044623
:100340000D46206B0026854210D02046FFF7D3FFD4
:1003500006000BD1607801232A4604F1340101F034
:10036000A1F910B14FF0FF3501262563304670BD6D
:1003700038B50446FFF7BFFF050039D120780328C0
:1003800004BF207901282CD1A289002104F1340076
:10039000FFF71CFF4AF6552104F23220FFF702FF57
:1003A000DFF87C1B04F13400FFF700FFDFF8741B5B
:1003B00004F50670FFF7FAFE616904F50770FFF7B0
:1003C000F5FE216904F50870FFF7F0FE226A6078F7
:1003D000521C2263012304F1340101F069F9002069
:1003E000207100226078002101F070F900B1012530
:1003F000284632BD8269891E921E914201D3002097
:1004000070474289C06A02FB0101084670472DE926
:10041000F0410C460568022C4DD3A86984424AD2AB
:10042000297801294FF0FF3604D044D3032936D070
:100430002AD340E0A889696A04EB540800F022FD41
:10044000002839D1A88908F10107B8FBF0F100FBB9
:10045000118805F13402696A12F80880B7FBF0F0E0
:1004600000F012FD002827D1A889B7FBF0F100FBAE
:10047000117705F13400C25D48EA0226E00754BF57
:10048000C6F30B06360917E000F0AFF8A0B9A8894B
:10049000640000F014F8FFF777FE06460CE000F069
:1004A0009CF848B9A889A40000F009F8FFF76FFE8E
:1004B00020F0704600E001263046BDE8F081B4FB34
:1004C000F0F100FB114405F13400204470472DE9A0
:1004D000F8430C460227022C054616467AD3A86933
:1004E000844277D22978012904D073D3032950D0CC
:1004F0003CD36FE0A889696A04EB5409B9FBF0F0BA
:1005000000F0C2FC0028074664D1A88909F101085F
:10051000B9FBF0F100FB119905F134004844E20702
:1005200043BF017801F00F0141EA06113146017025
:100530000120E870A889696A00F0A4FC0028074639
:1005400048D1A889B8FBF0F100FB118805F134000F
:100550004044E20748BF360906D40178360A01F064
:10056000F00106F00F060E43067031E000F03DF892
:10057000074678BBA8896400B4FBF0F200FB124484
:1005800005F13400B1B22044FFF70CFE0121E970FF
:1005900020E000F022F80746E0B9A889A400B4FBE7
:1005A000F0F100FB114005F134021044FFF7EFFDBC
:1005B000AA8926F0704600F0704040EA0601B4FBBC
:1005C000F2F002FB104405F134021019FFF7EEFDC2
:1005D0000120E8703846BDE8F283AA89696A92086A
:1005E000B4FBF2F041182846A8E6AA89696A5208C5
:1005F000B4FBF2F041182846A0E6F8B505460F46D0
:100600002E68012F114628D9B069874225D229B119
:100610004FF0FF3200F07AF8010023D13946284626
:10062000FFF7F5FE04001CD0012C16D014F1010FC9
:1006300015D0002200F069F8010013D1B06971698A
:10064000821E914205D2491C7161317941F001014C
:10065000317127468742E1D303E00220F2BD012039
:10066000F2BD0020F2BD2DE9F04180460C00D8F823
:10067000006006D1356915B1B06985420ED30125F8
:100680000CE0FFF7C4FE012898BF01203BD910F110
:10069000010F38D0B169884235D325462F46B0695D
:1006A0007F1C874202D30227012D24D939464046B8
:1006B000FFF7ADFE38B1012818BF10F1010F22D0AD
:1006C000AF42ECD117E04FF0FF3200F01EF8A0B9B6
:1006D00024B13A46214600F019F870B93761B16982
:1006E0007069891E814224BF401E7061307940F0DC
:1006F0000100307106E0002005E001280CBF4FF03A
:10070000FF3701273846BDE8F08139463046DEE63E
:1007100010B50368C06A9C89021D5889B1FBF4F1C9
:10072000B1FBF0F003E0884206D3401A08321168AA
:100730000029F8D1002010BD5168081810BD2DE91E
:10074000F04105460E462F68B6F5001F2ED216F072
:100750001F0F2BD1AC686E6154B93878032801DBC8
:10076000BC6A2CB93989700988421FD2B86A19E06D
:100770007989B88900FB01F806E0022C16D3B86924
:10078000844213D2A6EB08064645214608D32846E4
:10079000FFF73DFE044614F1010FEED1012013E0F6
:1007A00000F087F8E861AC61E86908B902200BE065
:1007B000B989B6FBF1F21018E86101FB1266B819AD
:1007C00000F1340129620020BDE8F0812DE9F041FB
:1007D00006460C4675693768F169203519B3B5F5D9
:1007E000001F20D2B88900F0B1FC54D1491CF1613E
:1007F000B16921B93989680988424CD311E07889F7
:10080000401E024247D13046FFF701FE8046B8F154
:10081000010F16D918F1010F34D0B869804535D3CE
:100820001CB90020F061042040E0B1693046FFF7B8
:100830001AFF5FEA000808BF072037D0B8F1010FA0
:1008400001D1022032E018F1010F1BD03846FFF72A
:1008500052FDB8B9BA89002107F13400FFF7B6FCA0
:1008600000F026F8002402E0386B641C401C7989F3
:100870008C4209D201223863FA703846FFF73BFDFB
:100880000028F1D0012011E0041B3C63C6F8188059
:1008900000F00EF8F0617561B889B5FBF0F100FB6E
:1008A000115507F13400401930620020BDE8F08195
:1008B000414638469EE570B504460D4605F11A00DE
:1008C000FFF762FC21780329064605D105F11400E3
:1008D000FFF75AFC46EA0046304670BD70B5044644
:1008E0000D461646B1B205F11A00FFF75BFC217800
:1008F000032905D1310C05F11400BDE8704051E425
:1009000070BDF8B5054600212C68FFF718FF0700F9
:1009100016D10026E9692046FFF710FD07000FD128
:10092000286A0078E5281CBF0028002602D1761C22
:10093000012E08D001212846FFF748FF0700E9D023
:10094000042F08BF0727380012D1E9692046FFF7B6
:10095000F5FC07000CD1286A20220021FFF736FCA5
:10096000286A0B2205F12401FFF728FC0120E07022
:100970003846F2BD70B50C46054600216172E86943
:1009800048B3002004F109062A6A525C491C202A57
:100990000BD0052A08BFE522092902D12E233354A2
:1009A000401C04F109031A54401C0B29ECD304F138
:1009B000090200211154286AC17A21722A6A02F1BF
:1009C0001C00FFF7E4FB2060286A1630FFF7DFFB0E
:1009D000E080000CA08070BD2DE9F84304460F466E
:1009E000D4F8008000E07F1C38782F2818BF5C28DE
:1009F000F9D00020A06004F12406397820292ED2F5
:100A00008022F27200212046FFF799FE024693E011
:100A10003278E52A04BF05203070202DCCBF00209D
:100A20000420F072002125682046FFF788FE0200AE
:100A300072D0F07A11007AD140077DD4A179C8062E
:100A400079D56069B8F80C10B0FBF1F201FB120027
:100A5000404400F134014046FFF72DFFA0600B2217
:100A600020213046FFF7B2FB0021002208230FF2BD
:100A7000D00CDFF8C4E60FE009F1010999F8000095
:100A8000002818BFA842F7D140BBA5F161001A2881
:100A900038BF203D7554491CBD5C521C202D1ADD09
:100AA0002F2D18BF5C2D11D02E2D09D0994215D2B3
:100AB000802DA4BF0EEB050010F8805CE146DDE759
:100AC0000B2B0BD008210B23E6E7521CB85C2F2818
:100AD00018BF5C28F9D00029174499D106222BE0D1
:100AE000C87A236A00F03F00A071D87A01070DD4BC
:100AF000B4460B2113F801EB1CF8010B491EAEEBB9
:100B0000000001D00028F5D0002892D00021204616
:100B1000FFF75CFE02008CD1E16900F0B6F902003B
:100B200087D1216A08780028DAD1042281E7042AD3
:100B300002D1400700D405221046BDE8F283000030
:100B4000222A2B2C3A3B3C3D3E3F5B5D7C7F0000E4
:100B500003464FF0FF301A68002A00D1704710B5E5
:100B6000144600E0641C2178212901D33A29F9D1E7
:100B70003A290CD112F8011B30390A2908D2A242B5
:100B800008BF002904D1611C0020196010BD00209D
:100B900010BD10B5044600224FF0FF33E27023630E
:100BA000FFF7CCFB08B1042010BD04F23220FFF7A0
:100BB000EBFA4AF65521884201D0032010BD04F11A
:100BC00034000178E92904D0EB2904BF807890280B
:100BD00013D104F16A00FFF7DAFA20F07F40DFF862
:100BE0005C15884207D004F18600FFF7D0FADFF8E1
:100BF0005015884201D1002010BD022010BD000018
:100C0000102800202DE9FF410E46002131601446D6
:100C1000FFF79EFF070048BF0B2007D4DFF82485AD
:100C200008F1040050F827500DB90C2027E1356079
:100C300004F0FE04287848B1687800F017FDC10779
:100C400004D4002C01D040070DD417E100202870F7
:100C50006F70687800F013FDC10748BF032003D40C
:100C60001CB1400701D50A2009E1687805F10C02A2
:100C7000022100F02BFD90BBA889A0F5007140F681
:100C8000016291422BD2411E084228D10021284600
:100C9000FFF77FFF002702281FD1002405EB041176
:100CA00001F5F971087918B101F10800FFF76FFA41
:100CB0004DF82400641C042CF0D300265DF8264077
:100CC00024B121462846FFF764FF00E003200128F5
:100CD00002DD761C042EF1D32746042801D1012021
:100CE000CDE0012817DC05F13F00FFF74DFAA98997
:100CF000884210D105F14A00FFF746FA18B905F10C
:100D00005800FFF744FA05F14101E861CA78AA707A
:100D1000012A18BF022A72D150430646087868811A
:100D200001006CD0421E104269D105F14500FFF769
:100D30002BFAA9892881490990FBF1F201FB1200E5
:100D400000285CD105F14700FFF71EFA040004D12A
:100D500005F15400FFF71BFA044605F14200FFF7C6
:100D600013FA00284BD0AA8929894FEA521E33185A
:100D700091FBFEF2D3189C4241D3B5F80AC0E41AA5
:100D8000B4FBFCF2002A3AD003244FF6F67C62450D
:100D900038BF022440F6F67C624538BF0124921C1D
:100DA000C019DB19032CAA612F626862EB6210D1B3
:100DB00005F15E00FFF7E8F9002804BF2889002844
:100DC0001DD105F16000FFF7E2F9A862A869800073
:100DD0000DE0A1B1686A3618AE62022CA8690FBF97
:100DE000400000EB400100F0010000EB5100A98938
:100DF0004A1E1018B0FBF1F0E969814201D20D20C2
:100E00003DE04FF0FF30686128618020032C28719D
:100E10002AD105F16400FFF7B7F9012824D1791C24
:100E200000F033F800BB287105F23220FFF7ACF96F
:100E30004AF65521884217D105F13400FFF7A7F98A
:100E40003749884210D105F50670FFF7A0F93549FA
:100E5000884209D105F50770FFF799F9686105F532
:100E60000870FFF794F928612C702846B8F8004004
:100E7000641CEC80FFF731FAA8F80040002004B0B1
:100E8000BDE8F081B8FBF0F041182846FFF756BAEC
:100E900070B5044609260D46002C1CBF21680029A8
:100EA0000DD0087858B1A088CA88904207D14878F8
:100EB00000F0DCFBC00702D42068002600E0002020
:100EC0002860304670BD73B582B015460091684603
:100ED000FFF73EFE002848BF0B201ED4994901EBC6
:100EE0008006746824B12046FFF7F7F900212170CD
:100EF000029810B90021716008E002990020087082
:100F0000029A7260029808B1012D01D0002004E01D
:100F1000002202A903A8FFF775FE04B070BD00000F
:100F200052526141727241612DE9F2418DB004006B
:100F300008BF092000F0FC8002F03F073A466946EE
:100F40000DA8FFF75FFE06001DD100980D990190D6
:100F500001A8FFF741FD06000DD19DF83300010601
:100F600048BF062607D417F0FE0118BF012101A8CB
:100F7000FFF731F9064617F01C0F00F0AE80300085
:100F800000F0A180042E40F0D0806F49086800284E
:100F90001EBF08690028122603D101A8FFF7B1FC83
:100FA0000646300047F0080735D1380739D500F03C
:100FB000A9FB0546099829460E30FFF7F7F809986E
:100FC00029461630FFF7F2F809992020C872DDF89B
:100FD000248000984146FFF76EFC054600980022E9
:100FE0004146FFF77BFC099800211C30FFF7DEF833
:100FF00000990120C87085B10098D0F8308000F0C9
:1010000017FB060007D100984146FFF797F90646FF
:1010100000986D1E0561300054D1380748BF47F075
:1010200040070098016B616217F0FE010998A06209
:1010300018BF012101A8FFF7FBF800285BD0206151
:10104000099D00982946FFF736FCA06005F11C00B9
:10105000FFF79DF8E0604FF480520020E0620099B5
:1010600021600098C188A180002060750021A061E6
:101070002162277504F13000FFF7A8F8B80656D5AD
:10108000E568002D53D0A561009847898089A16843
:101090004743AF420CD22046FFF7B9F90146022977
:1010A0002CD311F1010F2BD0ED1B3000F1D02CE02F
:1010B000E1610098808900F049F838D000F0BEFA6C
:1010C00028BB022631E09DF80A0010F0110F10D164
:1010D00078077FF56AAF082627E030009BD19DF89E
:1010E0000A00C10648BF04261FD4B90795D5C0071A
:1010F00093D5072619E00226206116E0022604E0B7
:101100004FF0FF300126E0610FE0E1610DE0009A51
:101110009189B5FBF1F108182062024600984078E9
:10112000012300F04FF910B1012600202060304665
:101130000EB0BDE8F0810000BC67000846415400D5
:10114000464154335428002010280020B5FBF0F20B
:1011500000FB1250002870470746694698E62DE9C3
:10116000FC471446984600228946C8F80020FFF73D
:10117000F3FF010001D1787D010040F0AE80387DA1
:10118000810758BF072040F1A880B8692118814223
:101190002DD24FF0FF32141A29E0084620E0C7F89C
:1011A00020A00099BB698989B3FBF1F64E43C81AA8
:1011B00030182546844288BF054607F130009B1B46
:1011C0002A4649461844FEF7F9FF387D40F0800072
:1011D0003875B869F96828188142A944B861DCD229
:1011E000F860641BD8F800002818C8F80000002C2C
:1011F0006ED000F079F8D4D100984289521E154083
:1012000018D111B9B86850B906E0F86A18B1384673
:10121000FFF77EFA03E0F9693846FFF724FA002861
:1012200056D001283CD010F1010F4ED0B968F861BA
:1012300001B9B860387D010607D500983A6A00F018
:101240005CF8002841D100F04AF800F0F6F938B314
:1012500005EB000A00988189B4FBF1F616B34089CA
:101260007119884238BF461B009840783346524671
:10127000494600F01DFA40BB386AA0EB0A00B042B4
:101280000AD200998A89504309EB000107F1300026
:10129000FEF794FF00F023F800988589754398E7DE
:1012A000022013E0386A50450DD0B969F8688142D0
:1012B000BFF475AF009840780123524607F1300122
:1012C00000F0F0F900283FF46AAF0120787504E0DF
:1012D000387D40F0400038750020BDE8F687387D45
:1012E00000F07F00387570470098B9698089B1FBBC
:1012F000F0F500FB1510002870474078012307F136
:10130000300100F0D5B97CB500F060F8010037D1AC
:10131000217D4A0634D5080606D500F032F808B11A
:10132000012076BD00F049F800F0ECF90546616A4D
:101330000098FFF703F8010022D1A66AF07A40F086
:101340002000F0723146A2682068FFF7C7FAE16812
:1013500006F11C00FEF72AFF294606F11600FEF7EB
:1013600025FF002106F11200FEF71CFF0099012065
:10137000C8700098FEF7FCFF217D01F0BF012175C8
:1013800076BD0098226A4078012304F1300100F014
:101390008FB91CB50446FFF7B6FF01000CD16946B2
:1013A0002046FFF775FD010006D12069FEF77AFFA0
:1013B000010004BF0021216016BD207D00F07F00E8
:1013C0002075704704F1300100F06CB9044669469D
:1013D000FFF75EBD31B58CB00C46002269460CA803
:1013E000FFF710FC050010D10C996846FFF7F4FADE
:1013F00005000AD19DF82F00010648BF062504D438
:101400001CB121466846FFF7B5FA28460DB030BD3D
:101410002DE9F14F86B00F4614460022694606A812
:10142000FFF7F0FB0028814658D100982060009912
:101430008C694869A21E824228BF38604ED2084695
:1014400000260178012918D102240190214601A823
:10145000FEF7DDFF10F1010F09D001280AD000B915
:10146000761C00988169641C8C42EFD32EE04FF00B
:1014700001092BE04FF0020928E0D0F824800AE0AF
:10148000FEF785FE000108BF5E460AF1040A2D1F23
:10149000641E1BD05DB900984146FEF74FFF8146A0
:1014A00008F1010890B90098858900F1340A009884
:1014B0000178022906F1010B5046E1D1FEF764FEE6
:1014C00000B95E460AF1020AAD1EE1E73E600098EF
:1014D00046610099087940F001000871484607B05C
:1014E000BDE8F08F2DE9F1438EB0022269460EA8C7
:1014F000FFF788FB06000098019009D10E9901A81A
:10150000FFF76AFA060008BF082600F08980042861
:1015100040F08680002101A8FFF7A5F80546009855
:1015200041898089414304910DB907260CE0012DC2
:1015300008BF022608D015F1010F08BF012603D00D
:101540000098FEF7D8FE064600F0DCF88046300032
:1015500047D100982946FEF74DFF0746009882893B
:1015600000F1340900F060F80B22202100F05DF852
:101570002E20102189F8000089F80B1009F11600BF
:101580004146FEF713FE00982A464946FFF7A6F9A2
:101590002022494609F12000FEF710FE2E2089F88E
:1015A000210000980178039A032902BF816A8A42C8
:1015B000002209F12001FFF791F90098448904E025
:1015C0000098828900F030F8641E64B1009801210F
:1015D00007637F1C0098C1700098FEF78CFE060020
:1015E000EED0300003D101A8FFF78BF9064630009A
:1015F00014D1099C414604F11600FEF7D7FD00986E
:101600002A462146FFF76AF91020E072012100986E
:10161000C1700098FEF7ACFE064601E000F008F845
:1016200030460FB0BDE8F08300214846FEF7CEBD3E
:101630000022294601A8FEF7E0BFF9690098FEF7ED
:10164000D9BE0EE002684368024408305FEAC37CFA
:1016500044BF4B445B1E52F804CB43F804CB091F34
:10166000F9D150F8041B0029ECD1704701461E4AFD
:10167000531802EB81014A68187A516808471A4BDF
:1016800002460020995C002900D0704710B5012463
:101690009C5403EB82019C184A68207A1368BDE8C9
:1016A0001040184770B500F009F8AC68A04770BD4D
:1016B00070B500F003F8EC68A04770BD04460A4D11
:1016C0002E1905EB84046568307A704738B50346F7
:1016D000054CE51804EB83035C68287A236901B0A4
:1016E000BDE83040184700004028002010B5034CEA
:1016F0000348211D00F024F8207010BD4C28002064
:10170000EC6900080020704770B50E4D6B7A0446F6
:101710000120A3B96B7A0020E854687A05EB8006B3
:101720007460687A28440272687A421C6A723030A7
:1017300008702F223A2048708A700020C87070BD4F
:101740000022E1E74028002040F0200070472DE90A
:10175000F14FB0B0924604910DF142013A9A2B91AB
:1017600099464A7000200AE01AF8011B0498309A42
:1017700090470028049000F042860D98401C0D9080
:101780009AF8000050B12528EED1002100220791DF
:10179000089209910A920B910C9204E00D9800F0C6
:1017A00030BE41F001011AF8010F2028F9D023289A
:1017B0000CD02B2804D02D2805D0302809D00BE0E0
:1017C00041F00201EFE741F00401ECE741F00801CC
:1017D000E9E741F01001E6E72A280FD1D9F8002007
:1017E00052F8040BC9F8002000280F9003D540429E
:1017F0000F9041F004010AF1010A14E00F92DFF8A2
:10180000083C0AE00F98984205DA00EB800402EBEE
:101810004402303A0F920AF1010A9AF80020A2F12C
:1018200030000A28EED39AF800002E2803D04FF09B
:10183000FF320E9229E01AF8010F2A2809D1D9F8AF
:10184000000050F8042BC9F800000E920AF1010ABA
:101850001BE02D280CBF0AF1010A002000220E9285
:10186000DFF8A44B0BE040B90E9AA24205DA02EB76
:10187000820503EB4503303B0E930AF1010A9AF807
:101880000030A3F130020A2AEDD3ADF840100FF674
:101890007C309AF8001000F0C1FE08B11AF8010B74
:1018A0008DF842009DF84200682805D19AF80000A2
:1018B00068280CD1622106E06C2804BF9AF8000069
:1018C0006C2804D171218DF842100AF1010A12A886
:1018D00006901AF801BBBBF125012CD01C3900F091
:1018E0009481091F022940F29081133900F0B984D4
:1018F000093900F08A81891E00F04E85491E00F0EA
:10190000FB84491E022940F28081091F00F0F48403
:10191000491F00F0EF80491E00F0A384491E00F02B
:10192000D780C91E0CD0891E00F09B84C91E00F010
:10193000988400F03CBD01230793252100F034BDBD
:10194000D9F8000050F8044BC9F80000002C0594A9
:1019500040F0AB802B994878002800F0A1804FF030
:10196000FF340FF6B02000F065FE201A40F04785E6
:1019700000F029BD01236A4602A9304600F00EFEA0
:10198000002840F03C856D1EF4D13096079D12AFC3
:1019900075B1309E17F8011B0498B04700280490D9
:1019A00000F02D850D98401C6D1E0D90F2D13096E3
:1019B0000A9D3021002D8DF800100CDD309E012392
:1019C0006A4602A9304600F0E9FD002840F017857C
:1019D0006D1EF4D13096059F089D75B1309E17F8A5
:1019E000011B0498B0470028049000F008850D986A
:1019F000401C6D1E0D90F2D130960B9D3021002DB4
:101A00008DF800100CDD309E01236A4602A9304695
:101A100000F0C4FD002840F0F2846D1EF4D1309631
:101A200005980899099D471875B1309E17F8011B54
:101A30000498B0470028049000F0E1840D98401C01
:101A40006D1E0D90F2D130960C9D3021002D8DF839
:101A500000100CDD309E01236A4602A9304600F0DA
:101A60009DFD002840F0CB846D1EF4D130969DF88A
:101A7000400041077FF584AE2020002C8DF8000047
:101A80007FF77EAE309D01236A4602A9284600F00A
:101A900085FD002840F0B384641EF4D130956FE6D4
:101AA0000FF65830059000F08EBC0E9D002D04D529
:101AB000204600F0DFFD044607E02A46204600F0FD
:101AC000E3FD002814BF041B2C46089400F07BBCE7
:101AD000D9F8001051F8040BC9F8001020F00004E8
:101AE000002121F0FF35CDE9024512AB05937821A5
:101AF00000F04EBC2B99487820B14FF0FF340FF620
:101B0000CC2030E79DF84200622860D0682817D0CA
:101B10006A283FD06C2806D0712847D074282CD072
:101B20007A281DD062E0D9F8001051F8040BC9F8EA
:101B30000010002866D14FF0FF340FF6A82012E7FE
:101B4000D9F8001051F8040BC9F8001020B94FF073
:101B5000FF340FF6902006E70D99018000F033BCAA
:101B6000D9F8001051F8040BC9F80010002849D129
:101B70004FF0FF340FF66C20F5E6D9F8001051F85D
:101B8000040BC9F8001000283CD14FF0FF340FF6C9
:101B90005420E8E6D9F8001051F8040BC9F80010F9
:101BA00080B94FF0FF340FF63C20DCE6D9F8001086
:101BB00051F8040BC9F8001020B94FF0FF340FF6AC
:101BC0002420D0E60D9AD317C0E90023FBE3D9F80F
:101BD000001051F8040BC9F8001020B94FF0FF3481
:101BE0000FF60020BFE60D990170ECE3D9F8001064
:101BF00051F8040BC9F8001020B94FF0FF340FF66C
:101C0000E410B0E60D990160DDE39DF842004C2838
:101C100007BFD9F80010CA1DD9F80000C21D22F074
:101C20000702C9F80020D2E900010832C9F80020F3
:101C3000CDE90201C80F02D007982D210AE0BDF8B6
:101C40004000810702D507982B2103E0C00705D586
:101C50000798202112AA1154401C079012A8079936
:101C60004BF0200300EB010CDDE90201CDE92C0172
:101C7000612BCDF814C021AC0BD00E98002848BFC2
:101C8000062105D404BF4BF02000672801D10121B3
:101C90000E91DDE902014F0047EAD0777E15FF176C
:101CA0004FF0FF32974208BF964210D1090341EA34
:101CB00010510003002908BF002808D0ABF16105CE
:101CC00003211A2D089118D30FF6381110E0DDE921
:101CD00002014A00521512F1010F11D108030FD170
:101CE000ABF1610503211A2D08911FD30FF61C11CA
:101CF0000322604600F0F4FC65E30FF60411F7E7F9
:101D0000DDE902016A4600F0F7FCCDE902014BF083
:101D10002000612811D1059830210170821C0592A4
:101D2000BBF1610F0CBF7821582102E00FF6D801FA
:101D3000DEE741700798801C0790DDE9020120F082
:101D4000000231F0004308BF002A02D1002600251E
:101D500042E14BF02008B8F1610F40F092800E98FC
:101D6000002847BF21210191401C0190019FDDE91E
:101D70002C017F1C00220023DDE9024500F0F4FC69
:101D800038BF85F0004500998DF88420091F002F89
:101D900000910DF1850632DD204629460022002300
:101DA00000F0FCFC2BD21C2200F012FD04460D4674
:101DB00000F0ACFDFF1F002F804609DD00F0C2FDE2
:101DC00002460B462046294600F084FE04460D4696
:101DD000F01D0721B8F1000F0CDD491E5EBF08F0B1
:101DE0000F0200F8012D4FEA2818F3D502E0002277
:101DF00000F8012D491EFAD5C61D002FCCDC0DF1CF
:101E00008500361A01980DF185048642D8BF304608
:101E100000282FD4B04206DA0DF185010A5C082AA9
:101E2000A8BF0F2100DA0021024621AB134400E0D5
:101E3000401E13F80159521E8D42F9D00F2904D1CA
:101E40000DF185018B5C5B1C8B54002A04D5009935
:101E5000091D21AC401C0091411E0BD4621813785F
:101E60003033DDB23A2DA4BF5B443A3B491E02F841
:101E70000139F4D50E99002940F1AC80421E0E9232
:101E8000A8E00099DFF8042747F29750414391FBFF
:101E9000F2F20092DDE92C45C2F10702002A25F09A
:101EA000004504DD2046294600F04CFB0BE0524281
:101EB0000020DFF8DC1600F045FB02460B4620460A
:101EC000294600F079FE04460D46B8F1660F06BFBC
:101ED000009F0A3706270E983F18142FC8BF1427F3
:101EE00030208DF884000DF18506002F34DD20466A
:101EF000294600F085FF01460A4606F10803042042
:101F00000A26B2FBF6F606EB860EA2EB4E02303244
:101F100003F8012C0A22B6FBF2F202EB820EA6EBCA
:101F20004E063036401E03F8026DE9D1083F002FFF
:101F300003F10806D9DD084600F074FF02460B469F
:101F40002046294600F0C6FD0022DFF8483600F0A2
:101F500077FF04460D46CAE70DF18500361A0DF1EC
:101F6000850404E00098401E761E0090641C2078D2
:101F70003028F7D0B8F1660F02D10099491C04E06F
:101F8000B8F1650F0CBF012100210E980818864298
:101F9000B8BF701E00281DD4B04204DA215C342979
:101FA000C8BF392100DC30210246631E9D1800E0C5
:101FB000401E15F80169521E8E42F9D0392902D10E
:101FC000A15C491CA154002A04D50099491C1C4657
:101FD000401C00910646009D01F008F8406A077811
:101FE000DDF8388030B2002802DC01260FF22064D0
:101FF0004BF02000662808BF6D1C16D0672846D11C
:1020000028B210F1040F48DB404546DA9DF8400045
:102010006D1C010703D430B24045D8BF804628B2BA
:10202000B8EB000848BF4FF000080FFA85FBBBF182
:10203000000F00F3B5800898411C089130220599E3
:102040000A54B8F1000F03DC9DF84000010704D5E5
:102050000898411C089105990F5418EB0B0FB8BF55
:10206000C8F100052DB26842A84432B20B909045E9
:10207000B8BF4646059B089836B2099632462146B7
:10208000184400F02DFBA8EB06000C90D2E0BBF149
:10209000610F17D14FF0700B19E030B2404504DAF0
:1020A0009DF840100A0758BF8046B8F1010848BFA4
:1020B0004FF00008BBF1670F14BF4FF0450B4FF016
:1020C000650B04E0BBF1410F08BF4FF0500B0898BF
:1020D000411C0891B8F1000F059914F8012B0A541E
:1020E00003DC9DF8400001071AD50898411C0891AF
:1020F000B8F1000F05990F5412DD761E30B28045FD
:10210000B8BF46460598089B32B22146184400F0F5
:10211000E7FA089936B271180891A8EB06000B90FF
:1021200005980899084429B2002980F800B003D422
:102130002B224270821C04E02D2242700D46821C2C
:102140006D4200212CAB28460AE004460A2094FB8D
:10215000F0F000EB8005A4EB450403F8014B491CAB
:1021600000B20028F1DC012906DC4BF020006528D4
:1021700004BF302002F8010B00292CAB08D130201D
:1021800002F8010B06E0491E585C303002F8010BE2
:102190000029F8DC059908980844121A099249E0C8
:1021A00030B229B288421CDA0598089B32B2214627
:1021B000184400F095FA089936B271180891ABEB03
:1021C0000600B8F1000F0B9003DC9DF840000207F9
:1021D00004D5059847540999491C0991CDF83080D8
:1021E00028E00598089B2AB22146184400F078FAA6
:1021F0000898761B5844B8F1000F089003DC9DF84E
:1022000040100A0703D5411C089105990F5430B2BC
:102210008045B8BF46460598089B32B204EB0B01D7
:10222000184400F05DFA089836B230180890A8EB10
:1022300006000B909DF8400000F01400102840F0BC
:10224000C280079A08990B988A18099982180C98E5
:102250008A1882180F98824280F2B580821A0A92F8
:10226000B1E09DF84200622808D068280ED06A28A4
:1022700014D06C281FD0712810D01CE0D9F80010A1
:1022800051F8040BC9F80010C0B21AE0D9F80010D8
:1022900051F8040BC9F8001080B212E0D9F8000020
:1022A000C21D22F00702C9F80020D2E9000108325D
:1022B000C9F8002006E0D9F8001051F8040BC9F85D
:1022C00000100021CDE902019DF8400001075AD518
:1022D000DDE90223002B08BF002A54D04BF0200078
:1022E000782850D1079812A930220A54401C431C68
:1022F000079301F800B046E09DF84200622808D03C
:1023000068280ED06A2814D06C281FD0712810D0ED
:102310001CE0D9F8001051F8040BC9F8001040B2C5
:102320001AE0D9F8001051F8040BC9F8001000B2F7
:1023300012E0D9F80000C21D22F00702C9F80020FF
:10234000D2E900010832C9F8002006E0D9F80010EF
:1023500051F8040BC9F80010C117CDE9020100299A
:1023600002D507982D210AE0BDF84000810702D56B
:1023700007982B2103E0C00705D50798202112AA52
:102380001154401C079012A8079901440591594621
:1023900002A800F04DF816E001200790D9F80000DF
:1023A00050F8041BC9F800008DF848100BE001211B
:1023B0002522BBF1000F07918DF8482003D002229F
:1023C00007928DF849B00F9A07980A990C9C121A37
:1023D0000898521A0B99121A0998521A121A9DF853
:1023E0004000141B41073FF5D1AA2020002C8DF896
:1023F00000007FF7CBAA309E2546FFF7BBBA4FF00F
:10240000FF3031B0BDE8F08FCBCCCC0C686A6C7477
:102410007A4C00007072696E74665F733A20626174
:102420006420257320617267756D656E740000000D
:102430002DE9FC4707468A463C6950466F2808BF8D
:10244000082505D0FFF780F9782814BF0A25102544
:10245000D7E900013C2680468946BAF1640F18BFCF
:10246000BAF1690F05D1002903D5D8F1000869EB4D
:102470004909B9F1000F08BFB8F1000F0CD1386B52
:1024800050B9082D3AD197F83800010736D53022D7
:102490003B2684F83B2031E08DF800A040464946B9
:1024A0002A46EB1700F0A6FD3032D0B2761E3A284D
:1024B00001960EDAA255404649462A46EB1700F02F
:1024C00099FD80465FEA010908BFB8F1000F05D108
:1024D00008E09DF800001218513AEBE7F868A119DE
:1024E0008842DBD3082D09D197F83800010705D5BC
:1024F000A05D302802D0761E3020A055C6F13C02E7
:10250000BA61A119F960386B824208DA821A3A621C
:102510004FF6EF70398F01403987BDE8F387002807
:102520000ED597F8380000F01400102808D17B6B06
:102530007969386A5B1A1B1A9A1A002AC8BF3A626C
:10254000BDE8F3872DE9D04306460F4614464FF009
:102550000008DFF8449012E0E00707D542464B46FA
:102560003046394600F06CFC06460F464046494668
:1025700042464B4600F064FC641080468946002CBD
:10258000EAD130463946BDE8D0830000A08601007C
:102590000000F03F84D7974100002440F8B505467D
:1025A0000E4617461C4600205CB117F8011BB068A8
:1025B000A847B06030B1F06A401CF0620020641E91
:1025C000F3D1F2BD4FF0FF30F2BD00007072696EC2
:1025D00074665F733A20256E20646973616C6C6F5A
:1025E000776564007072696E74663A206261642077
:1025F000256E20617267756D656E740000000000C5
:102600006E616E004E414E00696E6600494E460096
:1026100030000268531C036011707047C9B2027821
:102620008A421AB11CBF10F8012FF9E718BF002029
:1026300070472E0080B500B906A005490B681BB194
:1026400022220021984701E000F057FD222002BD20
:1026500064280020636F6E73747261696E74206801
:10266000616E646C65723A20626164206D6573739B
:102670006167650000F1010310F8011B11B110F84A
:10268000011BFBE7C01A7047C9B2830706D0521E70
:1026900022D310F8013B9942F7D11FE0083A13D337
:1026A00002F1040241EA012141EA014150F8043BF0
:1026B000121F21BF4B40A3F1013C2CEA030C1CF07C
:1026C000803FF3D0C9B2001F083210F8013B521E00
:1026D00028BF91EA030FF8D818BF0120401E7047A9
:1026E0004AB1000011F8013B521E00F8013B1CBF2B
:1026F00011F8013BF8E7704710B5144600F002F8F6
:10270000226010BDC1F30A5343B14A0012F5001F05
:1027100028D2A3F2FE32A1EB0251704750EA410CDD
:1027200020D001F0004C31EA0C01B1FA81F204BF73
:10273000B0FA80F3D2180B3AB2F120032CBF00FAA2
:1027400003F1914041EA0C013EBFC2F1200C20FA96
:102750000CF319439040524240F2FD33D21A01EB80
:10276000035170470022704741EA030C50EA4C0CB9
:1027700052EA0C0C4FF4001C09D307D01CEB410F9C
:102780009CBF1CEB430F8B4208BF824270471CEB7F
:10279000430FFBD8994208BF9042704741EA030CAF
:1027A00050EA4C0C52EA0C0C4FF4001C09D307D031
:1027B0001CEB410F9CBF1CEB430F994208BF90429A
:1027C00070471CEB410FFBD88B4208BF8242704719
:1027D000124254D440F2FF7C1CEA11530FD06345DF
:1027E00031D09B1863453CBF01EB0251704701F0AB
:1027F000004141EA0C510020AFF30080704750EADD
:10280000410320D001F0004C91EA0C011CD0B1FA38
:1028100081F30B3B9A420DD9D21A994051EA0C012F
:10282000C3F1200C20FA0CFC61449840531C40F288
:10283000FF7CD7E7914041EA0C01C2F1200C20FA5D
:102840000CF3194390407047B0FA80F31533202BF6
:10285000E0D3202AEED3203A203B9A4209D9D21A5B
:1028600000FA03F141EA0C010020531C40F2FF7C06
:10287000B8E700FA02F141EA0C0100207047524229
:1028800040F2FF7C1CEA11530DD06345DBD0B2EB64
:10289000030C3CBFA1EB025170470CF1010221EA8D
:1028A000035141F4801150EA410CCCD001F0004CAE
:1028B000352A27DC30B481EA0C01B2F1200309DAB1
:1028C000C2F12003044601FA03F5D0402843D14069
:1028D0009C400CE0C3F12002450020FA03F418BF2D
:1028E00044F0010421FA03F091400C43002174F1FB
:1028F000004550F1000051EB0C01244230BC7FF444
:102900007BAF70476146002076E70000C1F30A53B1
:1029100040F21E42D31A0CDDCA0283F3070342EAD7
:10292000505242F00042DA4002EBE17282EAE1707A
:1029300070476FEAE17203F2E13008B182F00040C3
:102940007047000010F0004160B148BF4042B0FA4B
:1029500080F29040D21CC2F5846241EA025202EB3E
:10296000D021400570470000841A71EB030604D2A1
:102970006E40001BB141121973414FF4001C1CEB57
:10298000410F34BF7CEB430683E00C0DA4EB1356E0
:10299000362E00F37C80012E45EAC32341DC43EA56
:1029A000525312BFD20292025B08240545EAC121AC
:1029B00041EA5051D2EBC020994125D407D1B0FA59
:1029C00080F610FA06F162D00020203608E0B1FA55
:1029D00081F6B140C6F1200220FA02F21143B04064
:1029E0004FEAF474B4EB465434F001064FEA740431
:1029F0000AD8D6F50016760D04F00044F04061FACE
:102A000006F25040F1404840C00A40EA415021F0EF
:102A1000004128BF5FEA500550F1000044EBD1218E
:102A200035E0DB0A45EAC121C90AB6F120050EDD11
:102A300042EA0242120CC5F1200603FA06F6EB4008
:102A400042EA06056D42984161F100010DE062FA2B
:102A500006F5F240554063FA06FC82EA0C02F340A8
:102A60005A406D42904161EB030111F4801F05D182
:102A7000641E620502D06D004041494121F480117D
:102A8000430875F1004350F1000041EB045170BC64
:102A900070471CEB410F15D223F0004352EA430666
:102AA0000BD04FEA4C0CBCEB410F04D80C0D661E4A
:102AB000342EB7DDEBE7801A994150EA410608BF92
:102AC0000021E4E708BF1CEB430F28BF6FF00001B3
:102AD000DDE7000070B491EA030F4FF000457FF589
:102AE00043AF6B40841A71EB030603D2001BB14164
:102AF000121973414FF4001C1CEB410F34BF7CEBE7
:102B0000430442E00C0DA4EB1356352E4FDC45EA8E
:102B1000C323DB0A45EAC121C912B6F120050DDD48
:102B200063FA05F6EB4086EA0305124218BF45F04A
:102B30000105C01851F100010CD213E062FA06F54C
:102B4000F2405540F3415A40B340F3405A40801898
:102B5000594107D349085FEA30005FEA350528BFCD
:102B600045F0010501F58011420875F1004250F170
:102B7000000041EB04514E0016F5001F70BC38BF39
:102B800070470020090D090570471CEB410F10D25A
:102B900052EA43060BD0BCEB410F05D80C0DAB43FA
:102BA000661E342EB6DD02E0AB438018594170BC7E
:102BB000704770BC70470000F0B540F2FF7581EAC5
:102BC000030C0CF0004C15EA11541DBF15EA135705
:102BD000AC42AF42E5E0BC41C1F31301C3F31303C0
:102BE000801A994143F4801304D2641E00184941AD
:102BF00080185941C90241EA5051B1FBF3F603FB79
:102C00001611A2FB0675D7EBC020A94102D2761E91
:102C100080185941C90241EA5051B1FBF3FE03FB50
:102C20001E11A2FB0E75D7EBC020A94103D2AEF155
:102C3000010E80185941890241EA9051760546EA11
:102C40008E2EB1FBF3F603FB1611A2FB0675D7EB34
:102C50008020A94102D2761E80185941C90241EA5A
:102C600050514EEA060EB1FBF3F603FB1611A2FB20
:102C70000675D7EBC020A94102D2761E80185941B3
:102C8000C90241EA5051B1FBF3F703FB1711A2FB54
:102C90000735D3EBC020A94167F100070CBF004204
:102CA00047F0010766F3D5274FEA1E31B80814F53F
:102CB000806412DDBD0775F1004250EB0E5051EB00
:102CC000045111F5801F5CBF41EA0C01F0BD4CF0CE
:102CD0007F6141F0E0410020F0BDBD076D0840EA92
:102CE0000E5041F48011D4F10104B4F120060ADA47
:102CF000C4F120060200E04001FA06F3E140184367
:102D0000B24015430EE0342C13DCC6F1200445EA32
:102D100040056D0820FA06F2154321FA06F0A1409D
:102D20000D43002175F1004250F1000051EB0C0100
:102D3000F0BD00205FEA0C01F0BDCFB992185B41F5
:102D4000B3FA83F704BFB2FA82F6BF190B3FB7F1AB
:102D500020062FBF02FA06F3BB40C7F1200622FA75
:102D600006F638BF3343BA401CB1E419641E33E79A
:102D70007F4231F00041B1FA81F404BFB0FA80F62D
:102D8000A4190B3CB4F120062FBF00FA06F1A140B4
:102D9000C4F1200620FA06F638BF3143A0403C1BA0
:102DA0001AE7AC421ABF05EA1357AF4212E050EAE5
:102DB00041061CBF52EA4306BFE750EA41073046CE
:102DC00061461CBF41EA0551F0BD52EA430C08BF01
:102DD000C143F0BD00204FF4001616EB410F98BF21
:102DE00016EB430F08BF16EB410F24BFC14305E0AC
:102DF00016EB430F0CBF61464CEA0551F0BD0000D5
:102E0000400D40F21E4C40EAC120BCEB115C40F08A
:102E1000004003D48CF30701C84070476FEAE170AB
:102E20007047000050B1B0FA80F18840C91CC1F56C
:102E30008461090501EBD0214005704701467047C8
:102E400030B540F2FF7C1CEA11541DBF1CEA13553B
:102E5000644565453FE0641981EA030C6FF35F53F5
:102E60000CF0004C43F48013C90241F0004141EAE8
:102E7000505EC5021100A5FB020200284FF00000C1
:102E8000EEFB01204FF00001E3FB052118BF42F0EB
:102E90000102401800214941E3FB0E01A4F58064C2
:102EA0000D0302D292184041494154F1010470DDF2
:102EB000450872F1004250F1000051EB0451A1F5B8
:102EC000801102D441EA0C0130BD40F2FF7E4CEA91
:102ED0000E51002030BD0CEA1355644518BF6545FE
:102EE00081EA030C0CF0004C41D050EA410E1CBFAB
:102EF00052EA430E02E06146002030BD24422C44D9
:102F00001BD15FEA050EF6D0090302BF014600207F
:102F1000AEF1140EB1FA81F5AEEB050401FA05FE2F
:102F20000C35C5F1200100FA05F5C8404EEA000E47
:102F30006FF35F5343F480139CE733F00043B3FA1D
:102F400083F504BFB2FA82FE75440B3D641BB5F1F4
:102F5000200E2FBF02FA0EF3AB40C5F1200E22FA6D
:102F60000EFE38BF43EA0E03AA40641C7CE750EA19
:102F7000410E14BF52EA430E6FF000014FF40015EA
:102F800015EB430F8EBF194615EB410F9DE7B4D8E3
:102F900030BDD4F10104B4F120050FDAC4F12005ED
:102FA000520828BF42F0010210FA05FE01FA05F5A9
:102FB0007244E2BFE0402843E1400FE0352C9ADC48
:102FC000C5F1200452EA400220FA05F218BF42F08F
:102FD000010231FA05F0A1400A43002172F10042DA
:102FE00050F1000051EB0C0130BD0000004870476B
:102FF00030000020D3BBD9B1B2F5803F5BD2022AAA
:103000001ED98C46B1FBF2F102FB11C31B0443EA4B
:103010001043B3FBF2FC02FB1C3380B240EA0343D3
:10302000B3FBF2F002FB103240EA0C400023704781
:10303000022A05D98446B0FBF2F002FB10C27047A9
:103040004AB105D100F0010249085FEA300070473B
:1030500000220023704700F053B80B00020000214B
:1030600000207047F7D3002200237047904271EB95
:10307000030CF2D370B5B1FA81F4B3FA83F52C1BCB
:10308000A340C4F1200532FA05F63343A2405FF0B5
:103090000046E64002E05B085FEA3202841A71EB08
:1030A000030524BF204629467641F4D302000B00D5
:1030B0003000002170BD70B5B1FA81F4B2FA82F52A
:1030C000C4F120046419B4F12006DAD3B2405FF0F1
:1030D0000044F440002502E052085FEA3303C61AB8
:1030E00071EB020E24BF3046714664416D41F3D34B
:1030F00002000B002000290070BD012000F002B882
:103100007047000080B5AFF30080024A110018201C
:10311000ABBEFBE72600020070B58AB0040008BF12
:10312000012028D0266804F53E75687820B9002172
:103130002970204600F0EAFB03206870F16BC80597
:103140005CBF00212161206800F034FD83B000F0F5
:1031500014F80EBC206800F0EDFC2068012100F09E
:103160002FFD83B000F009F80EBC206800F0A0FD30
:103170000120687000200AB070BD211D684634220D
:10318000FFF7AEBAFEB5064696F8F802012801D15F
:103190000220FEBD0A98099C089D012786F8F87256
:1031A0008E462C2717FB0EFE06EB0E0738374FF026
:1031B000000C87F805C012F0800E02F07F0C87F833
:1031C00002C03B7038817970FC71F44618BF4FF033
:1031D000010C87F803C03D7102900194009530689E
:1031E00000F03EFE002186F8F812FEBD10B500F09A
:1031F00064FB01D1022010BD00F064FB00F047FF2A
:1032000057E30000F8B50E462C2466430644069D9D
:1032100006F13907BA70BB7135B9099C3C714FF0A2
:10322000030C87F809C001E002247C72032B089C80
:1032300006F1440E13D8DFE803F002100C0C012D48
:1032400008BF002A0BD1220004D101228EF81120E0
:1032500000E0D2B99EF81120DAB900237B72079AF8
:10326000CEF80020CEF8084000228EF81C20CEF8C0
:103270000C2039708EF81D2006F1380102690068B3
:10328000BDE8F840D2B200F065BE9EF81020002ADA
:10329000E3D00223E2E72DE9FE4F05462868074602
:1032A00000F0ECFC012840F0D68200F0EAFA002899
:1032B00000F0D18200F0E5FA800203D52A684FF4CD
:1032C0000011516100F0DDFAC00203D52A684FF405
:1032D0008011516100F0D5FA400103D52A684FF002
:1032E0008061516100F0CDFA800702D52A68022181
:1032F000516100F0C6FA80000FD52A684FF00051E6
:10330000516107F588600168CA0706D4284600F0B5
:103310004EFB2868012100F03EFD00F0B2FAC0012A
:103320004CD52C6804F58868D8F800100191D8F8BD
:1033300000200092009820F02E0000900198810754
:1033400009D50198C10744BF284600F02CFB00981E
:1033500040F0020000900198010725D5009840F048
:1033600008000090019841071BD5A86902280BD1DD
:103370002868019901F4C021B1F5802F0CBF02210A
:10338000012100F008FD08E0E868012805D104F5F6
:10339000806B4EF66021CBF80410284600F00CFB41
:1033A00002E0284600F00CFB0198810603D5009846
:1033B00040F0200000900098C8F8000000F061FA8A
:1033C000000705D5284600F0EAFA29680820486178
:1033D00000F057FAC00649D52868816921F010012C
:1033E00081612868016A01F00F0AC1F30A18C1F36C
:1033F00043410229834634D1B8F1000F31D02C214A
:1034000011FB0AF16C18616C59B3236DE26C4344F3
:103410009A4204F1540622D3424600F018FC606C34
:10342000404460640BEB4A10216D414400F5A06BF1
:103430002165DBF81000B4F84010414511D1C000FF
:10344000800D0ED0DBF8000020F0804040F00040FE
:10345000CBF80000307880F00100307001E00421EA
:1034600031732868816941F01001816100F009FA27
:10347000800140F1F081286800F004FE00230297EB
:10348000019000934FF4806B02240FE0147004E06D
:1034900014703B6864F39F733B600220B86012783D
:1034A000284600F088FA0098401C00900098A9680F
:1034B000884280F0CC810099019801F00F01C8404A
:1034C000C007F0D50298009A9DF800102F6800EB15
:1034D000421000F5A0604FF400790068020440F14A
:1034E000E780884607EB481707F5A0672C2010FBFC
:1034F00008F005EB000AB86841070AF1600602D53A
:1035000000F0B2F935E0B868C10506D54FF4807017
:10351000B860072100F0AFF91BE0B868810648BF2A
:10352000202025D4B868010708D500F0A5F90521A9
:1035300071701020B8600821B9600AE0B8684105D0
:103540000BD500F099F9082171701020B860C7F808
:1035500008B0414600F09CF90BE0B868010608D5B8
:1035600000F08AF906217170414600F091F980203F
:10357000B860B868810507D500F07EF9414600F0D3
:1035800087F9C7F808908EE7B868C1073FD5286962
:1035900038B1DAF848003969C1F31201401ACAF8A3
:1035A0005000012070700021CAF85C10B8609AF8D1
:1035B0003F00002818BF022814D0032807D138681C
:1035C00040F00050386001213170012205E00128EF
:1035D0000FD1307000F041F932784146284600F0B2
:1035E000EAF906E000F048F9414600F051F91020F0
:1035F000B8602869012807D1DAF84800BAF8401005
:10360000B0FBF1F1C80701D500F027F94BE7B86826
:1036100081072CD5F86820F00200F8607078012846
:1036200014BF052830701DD0062818BF082807D001
:10363000032812D0072815D1DAF85C00401C07E0F7
:10364000DAF85C00401C0328CAF85C0005D30020AF
:10365000CAF85C000421317004E03470396864F306
:103660009F7139600220B8604146327818E7B86827
:10367000C1061CD59AF83F00032807D10020CAF8DC
:103680005C00F96841F00201F9600BE0002818BF06
:1036900002280AD10021CAF85C10286928B9032140
:1036A00000F0E9F8414600F0F3F81020B860FAE6BF
:1036B00007EB411707F5A067B868420702D500F08D
:1036C000D3F8F0E62C2010FB01F02E18B868800625
:1036D00006F13C0306F160020AD52020B860587854
:1036E000012804D100205870147000F0CDF8DAE6FB
:1036F000B868800502D500F0BFF840E7B868C00799
:103700000FD500201862BA68500603D501225A70FE
:103710004020B86000F0B8F80120B86086F8610079
:10372000C1E6B86840060ED5042086F86100012283
:103730005A7000201862FA6842F00202FA6000F043
:10374000A7F84020B2E7B868000709D50820B8609C
:10375000FA6842F00202FA6000F09AF80520DDE70C
:10376000B868C0060ED500201862032086F86100F4
:103770005A78002A01BF1878002801225A7000F0F8
:103780007BF890E7B868000619D5286928B90622A1
:1037900086F8612000F078F80EE0186A401C0328D3
:1037A000186208D3002018620423137004222846EC
:1037B00000F001F900E014708021B96073E6B86888
:1037C000400509D500F060F81020B860C7F808B0CF
:1037D000082186F8611066E6B8688007FBD5F868AE
:1037E00020F00200F86096F86100012817D11070EF
:1037F000D878022818BF032810D12869012809D1D8
:10380000186900280AD09E883044401EB0FBF6F0AC
:10381000C00703D5587E80F0010058763DE60328A6
:1038200018BF04283FF432AE052808BF1070F5D049
:10383000062818BF082809D1186A401C03281862F6
:10384000FFF426AE002018620423137025E62968D1
:103850004FF000704861BDE8F78F9AF8541081F07E
:1038600001018AF8541070470420B860F96841F0EB
:103870000201F96070477170F86840F00200F8606A
:103880007047286800F0F5B9F86840F00200F86069
:10389000286800F0FCBB10B500F00FF801D1022041
:1038A00010BD00F00FF800F081F92068012100F050
:1038B000A5FA002084F8F80210BD044694F8F80236
:1038C00001287047012084F8F8022068704710B57D
:1038D000FFF7F3FF01D1022010BDFFF7F3FF00F067
:1038E00035FCE6E7006800F06EBA2C22514308442C
:1038F00090F8600070472C2251430844006D7047D7
:10390000006800F0A7BA006800F098BA38B586B031
:103910000446142101A800F059FC2268B2F1A04F1E
:103920003BD100203C4C3D4D00900022216841F0ED
:10393000010121604FF40071206800F00100009047
:10394000009801910292039201A9284600F042FCDE
:1039500002210291002203924FF4C05003210190F2
:1039600004910A22059201A9284600F033FC606800
:1039700040F080006060002100910022606940F406
:1039800080406061606900F48040009000984320AE
:1039900000F03CFD432000F056FD07B030BDD0F8EC
:1039A000000300F0A7BFD0F8000300F0B7BFD0F8C5
:1039B000000300F0BDBF7047D0F8000300F0A8BFBF
:1039C000D0F8000300F0A6BF38B5044604F57370C4
:1039D000017801291CD1124DC5F8004345604FF014
:1039E000A04028600821A96000200122286102214E
:1039F000E861EA60A9612846FFF78EFB08B101F093
:103A00005FF82846FFF77CFF0146204600F06FFF75
:103A1000002032BD000000003038024000000240AB
:103A2000A424002080B5D0F8D003FFF734FFBDE810
:103A3000024075E080B5D0F8D003FFF748FFF6E705
:103A400010B5D0F8D003FFF75EFF012418B10228AB
:103A500008BF022400E00024204610BD80B5D0F845
:103A6000D003FFF73FFFE2E7D0F8D003FFF743BFF3
:103A70003EB5BDF820409DF81C50029401959DF87C
:103A800018400094D0F8D003FFF77CFBBDE83E401F
:103A900046E080B5D0F8D003FFF7A8FBC7E738B5FC
:103AA00084B09DF82C40BDF8285003940295099CE1
:103AB0009DF8205001940095D0F8D003FFF7A2FBA9
:103AC00005B0BDE830402BE0D0F8D003FFF70DBFC4
:103AD00080B590F8CC03012804BF084600F0F2FF3F
:103AE000C82000F0F9FF002002BDD0F8D0032C233D
:103AF0005943014411F83B0F002814BF4A768A76D7
:103B000000207047D0F8D0032C225143014411F813
:103B10003B0F08B1487E7047887E704700F0DCBFDD
:103B20000146002021B1022901D101207047022065
:103B3000704700000EB418B504460898012817D144
:103B4000A06B20F48030A063E168DFF82802014018
:103B5000E160E16821F44011E1600F98012803D190
:103B6000E06840F48010E060204600F08BF80FE041
:103B7000E06840F04000E060204600F083F80C99D7
:103B80000029A16B0CBF41F4803121F48031A16385
:103B90000699012907D1A16841F00601A160A16839
:103BA00041F02001A16012BC5DF810FB816841F07A
:103BB000010102E0816849084900816000207047E6
:103BC00080B5C26822F0C0420129C26008D1C16834
:103BD00041F00051C160322000F07EFF002002BDA4
:103BE00019B9C16841F08041F4E7012002BD8901A3
:103BF00041F020010161DFF83415491E03D002694C
:103C00009306FAD401E0032070470020704710218A
:103C10000161DFF81815491E03D00269D306FAD4F2
:103C200001E00320704700207047B8B5059C64B9D7
:103C3000DB1C07E000EB023751F8045B07F5805707
:103C4000641C3D60B4EB930FF4D30020B2BD10B5FB
:103C5000D21C002305E000F580545B1C246841F869
:103C6000044BB3EB920FF6D3084610BD0160002061
:103C7000704701464869896908407047406900F00B
:103C800001007047DFF8A4241146491E0CD00369D7
:103C9000002BFAD5016941F001010161521E03D0E8
:103CA0000169CB07FAD401E0032070470020704778
:103CB0000EB45CB5044604F5606100200860A26B98
:103CC00042F40012A26300F05EF8A06304F5806085
:103CD000E16BCA050BD50799012903D1026842F0AF
:103CE000040207E0016821F00401016003E00268BA
:103CF00022F00402026010212046FFF778FF2046E0
:103D0000FFF785FF00204FF0FF36002203E000F0B0
:103D100057FA8E60CA6006998842F8D3012120467E
:103D200000F06CF8C82000F0D7FE0020A0616661AA
:103D3000E06BC1050AD54FF400706062DFF8F41340
:103D4000DFF8F403A162C4F8000108E08021616299
:103D5000DFF8E803DFF8E813A062C4F80011089860
:103D600000F00AF8DFF8DC030143A161002056BC33
:103D70005DF810FBBFFFBDFF18B9A06940F010004F
:103D8000A061A1697047A06B20F40020A063A06B24
:103D900020F48020704710B500F5806001F0030426
:103DA00002689208920002600368234303600129BD
:103DB00008BF4BF6803103D0022902D141F2707165
:103DC0004160002010BD1CB5002100F58864009101
:103DD00022680092009820F02E0000906420009944
:103DE00041F48071216000F077FE009820F480702B
:103DF00020600A2000F070FE002016BD18B50023D8
:103E000000F58860009304680094009A22F02E0266
:103E10000092009AD30407D4012905D1009941F4F6
:103E200080510160009807E0009AD30404D519B9C5
:103E3000009921F480510160002012BD81B0002161
:103E400000F588600091026800920098C0F341403C
:103E500001B0704700F58060806880B27047000054
:103E60002DE9FC4D00EB41170B9C07F5A0674FF0C7
:103E7000FF3E032C1E464FF00008C7F808E02AD882
:103E8000DFE804F0021F021640F29D4A1506C7F84B
:103E90000CA006D5D7F80CC04CF4807CC7F80CC039
:103EA0001BE0C56BEB0518D5FD6845F0600510E01B
:103EB00040F29D651306FD600FD5FD6845F48075E1
:103EC00007E040F225251306FD6006D5FD6845F4A0
:103ED000C075FD6001E04FF001080A9D00F58063A8
:103EE0004FF0010ED3F818C001F00F010EFA01F1E6
:103EF00041EA0C0199619246816941F0007181614A
:103F00004FEADA1BFFF79AFF022D04D1022818BFEF
:103F10004FF4003100D10021B6054FEACA2206F065
:103F2000FE5602F4F04216430C98A20402F440221A
:103F30001643C0F30A00064346EACB360E43032C71
:103F40003E6003D1386840F0005038604046BDE81C
:103F5000F68D0000F8B54C78C36B00EB4416DF0516
:103F600006F5A0660CD50B7953B9012A18D1CB7987
:103F7000002B18BF022B03D1F36823F07003F3600A
:103F80004C69B4B10B891F197F1EB7FBF3F7BFB2A1
:103F9000B7F5807F0EDD1B024FF480770B6109E0DF
:103FA000130004BF4B79012BEAD1214600F0B1F890
:103FB00065E00127CB780BB10C897C430C61C4F31D
:103FC00012045B4B03EAC7438F7A7F071C4307F059
:103FD000C0473C43346113001CBFCB68736100F5DC
:103FE0008065AB68346824F00054346003F001034A
:103FF000376883F0010347EA4377376033680093FB
:10400000009C24F080440094CB78002B009B14BFCC
:1040100043F4004323F400430093002A009B43F041
:1040200000430093009B336004BFCA78002A26D166
:104030004A6922B3CB79032B19D8DFE803F0020DCC
:10404000020DC46AD21CA4B29203B4EB124F0ED27A
:10405000826942F0200209E02B69D21C9BB29203D4
:10406000B3EB124F03D2826942F080628261002278
:1040700000924A784B69C9689BB2FFF7D6FD0020D1
:10408000F2BD000000F58060406980B2704770B5F5
:10409000024602EB411303F5A0631868C0F38141A7
:1040A00018689568AE0601D5002830D540F2E93091
:1040B000002918BF02290AD1196841F0804119600E
:1040C0009468A10623D4D26A12F47F0F08E019681D
:1040D00041F08041196002F58064216911F47F0F7D
:1040E00011D1196821F0004119601A6842F00042AC
:1040F0001A60196821F400411960401E07D0196840
:104100000029FAD403E0186840F00040186000204D
:1041100070BD00EB411000F5A0600B490161016822
:1041200021F0804141F00041A0E50000410D030075
:104130000000F81F000200010003E00080006000A2
:10414000E0004000080020A30000088070B504468D
:104150001021A26852085200A2600025FFF747FD17
:104160002046FFF754FD002000F02AF80A6822F0EC
:10417000802242F0804210280A60F5D3002004EB30
:10418000401101F5A0610A6822F4004242F0404269
:104190000A6040F2E9326D1C954202D20B68002B96
:1041A000F9D4401C1028EAD304F580664FF0FF30A4
:1041B00070616061A06840F00100A060002070BDE7
:1041C00004EB401101F5A061401C7047002200F093
:1041D00097BC00002DE9F84F0D4600267349744A3C
:1041E0000F23044601202F68B04000EA07088045ED
:1041F00040F0D2804FEA460C032707FA0CF76FEA2B
:10420000070E6F6807F00309B9F1010F1CBF07F033
:104210000307022F12D1A768D5F80C900EEA070702
:1042200009FA0CF949EA0707A760676827EA00005E
:104230006F68C7F30017B74038436060B0002F794C
:1042400007F00307032F21D0E768D5F808900EEA9E
:10425000070709FA0CF949EA0707E7602F7907F021
:104260000307022F12D1F70804EB870700F01C099F
:10427000D7F820A003FA09FB2AEA0B0AD5F810B0F8
:104280000BFA09F949EA0A09C7F8209027680EEAEB
:10429000070E2F7907F0030707FA0CF747EA0E0C11
:1042A000C4F800C06F68FF0076D5002700974FEA7A
:1042B000960CD2F800E04EF4804EC2F800E000F018
:1042C0000C00176807F480470097DDF800E0394FCD
:1042D00057F82C7003FA00FE27EA0E0E364FBC4248
:1042E00008BF002722D0354FBC4208BF01271DD090
:1042F000334FBC4208BF022718D0324FBC4208BF20
:10430000032713D0304FBC4208BF04270ED02F4FD5
:10431000BC4208BF052709D02D4FBC4208BF062765
:1043200004D02C4FBC420CBF0727082707FA00F027
:1043300040EA0E00DFF87CE04EF82C006FEA08003F
:10434000D1F800C06F6800EA0C0CFF0348BF48EAD0
:104350000C0CC1F800C0D1F804C06F6800EA0C0C66
:10436000BF0348BF48EA0C0CC1F804C0D1F808C02C
:104370006F6800EA0C0CFF0248BF48EA0C0CC1F859
:1043800008C0D1F80CC000EA0C0C6868800248BF75
:1043900048EA0C0CC1F80CC0761C0F2E7FF622AF39
:1043A000BDE8F18F02B9090481617047003C01400A
:1043B0004438024008380140000002400004024036
:1043C00000080240000C02400010024000140240AD
:1043D00000180240001C02400901020002D42848D3
:1043E00081547047274B02F00F021A4402F8041C54
:1043F0007047254B19684FF6FF020002114000F488
:10440000E0600843214908431860704770B51E4BAF
:104410001C68C4F302230124C3F10705052D2EBF38
:104420000F2504FA05F56D1E1E1D072E34BF00234F
:10443000DB1E2940994004FA03F3BDE870405B1E7F
:104440001A401143C8E7010007D4012200F01F0100
:104450000F4B8A40400943F820207047401EB0F1BE
:10446000807F01D3012070470A490B4A486000232E
:10447000F02010708B60072008600020704700005B
:1044800000E400E018ED00E00CED00E00000FA05AB
:1044900000E100E010E000E023ED00E0F8B50400EA
:1044A0000E4601D10220F2BD04F5737504F548777C
:1044B0002A700020F8653866204600F00FF80020CA
:1044C000F8700021397000227A70B870310018BF7E
:1044D000AE602046FFF778FA0020F2BD10B5044622
:1044E0003C2104F56170FFF771FE4FF4007104F593
:1044F0008E70FFF76BFE0020207001226070A270AA
:10450000C4F8C40322764020A071002104F547704E
:1045100061760022012102704170C2708270002019
:1045200010BD10B50346002051B1D3F880233AB92D
:10453000012403EB8202C3F88043C2F8781310BD54
:10454000022010BD10B5024602F549720020147E0B
:10455000A14201D2117010BD022010BDF0B500249F
:10456000E5B21A267543054405F242356F798F424C
:1045700018BFFF2909D1AE79964218BFFF2A04D18E
:10458000ED799D4218BFFF2B04D0641CE5B2022DCB
:10459000E6D301E0E0B2F0BDFF20F0BD10B5044667
:1045A000FFF740FA01212046FFF792FA002010BDE4
:1045B0007FB5044602208DF8000004F54775687940
:1045C000012804BF0321217021780B2904F23D3218
:1045D00004F55E761BD8DFE811F00C001B003600F6
:1045E000540171015D00380104010C011401210125
:1045F0004E01287900280AD001212170C820FFF738
:104600008DFA2046FFF72AFA00202870306555E120
:10461000E879012803D10021E970022029E1306DF9
:1046200040F2E931884208D3E878401CE870C0B213
:10463000042880F01D81002118E10A3030650A202D
:10464000FFF76CFA3AE1F26D12B10421204690476F
:104650006420FFF763FA2046FFF7F2F96870002143
:1046600005202070204600F077FA607180212046F6
:1046700000F072FA20710021A07902900191204689
:104680006A7800922B782179802200F052FA00F0AB
:1046900022F913E160780126072804F58E720ED8FE
:1046A000DFE800F06C53392B24190E04A97E29B1E0
:1046B00000F007F9002818BF032800D1002681E088
:1046C000697E31B100F0FDF808B103287AD10720E6
:1046D00041E0072137E0297E31B100F0F2F808B15E
:1046E00003286FD1062036E006212CE0E98B204616
:1046F00000F091FA40B905202DE00921204600F094
:104700008AFA08B9042026E003285BD100F0DDF81E
:104710002AD30D2055E00121204600F040FB68B966
:104720000220FFF7FBF92E700321A079617002903F
:104730000021019101236A7800922DE0032841D1E4
:104740000D202070002161703CE01221204600F015
:1047500027FA10B90220607034E0032832D100F04B
:10476000B4F828BF0D202CD200F0F5F8217900F024
:10477000F3F8002060700021217023E0082120461A
:1047800000F00EFA80B9687CA0716670029000207B
:104790000190697800912B7821798022204600F0E1
:1047A000C8F900F098F80DE003280BD100F08DF85F
:1047B00028BF0D2005D200F0CEF8217900F0CCF80A
:1047C000002020708DF800609DF80000002875D151
:1047D000E87E00212972012808BF082146D0072061
:1047E00047E0F26D002A69D0012120469047082059
:1047F0003FE01178204600F0DDFA00285ED1092064
:1048000037E09178880607D50121204600F0DFFACD
:10481000002853D10A202CE00A2127E0B0680028A4
:104820004CD0002171603168927A087990421CD195
:104830007160D1B1896820468847C8B906202070C8
:104840000321F26D2046904738E0716881B1096913
:10485000204688478DF800009DF8000008B90B211C
:1048600004E09DF80000022828D10D21217025E0E8
:104870000D20207022E0716801B349692046884705
:104880001CE0002068712046FFF728FE716821B106
:10489000C9682046884700207060F26D12B105217A
:1048A00020469047A879012805D10021A97120460A
:1048B000FFF774FE02E02046FFF7B4F8002004B0D2
:1048C00070BDFF23204600F029BAA878401CA870CC
:1048D000C0B204287047A0790290002101912046BF
:1048E0006A7800922B786179002200F022B9C0F832
:1048F000C413704700F55F718A6C521C8A64037898
:104900000B2B04D1096800291CBF8969084770472F
:10491000012100E0002180F82313704700F5487062
:104920000121017000224270002383700020704733
:1049300010B5044604F54870012141700022027050
:10494000C2702046FFF776F8217900F005F800F0F4
:1049500002F8002010BD6179204600F015B9000072
:1049600010B586B000F028FB00F04EF8142101A825
:10497000FFF72CFC002000904B4C4C48016841F0A4
:1049800080010160026802F080020092002200991A
:104990000092036843F004030360016801F004011E
:1049A0000091009900920121036843F00103036024
:1049B000006800F00100009000982046FFF7F2FC2C
:1049C000012101910291204600210391049101A946
:1049D000FFF700FCFCF78AFE00F008FB344835497D
:1049E00001604FF4E13200230C2142608360C36018
:1049F000036141618361C36100F0A8FB08B100F06D
:104A00005FF800F00EFBFCE780B592B0302106A8FD
:104A1000FFF7DCFB142101A8FFF7D8FB0020009072
:104A20004FF480332448016841F080510160002137
:104A3000006800F0805000900098204800910268C3
:104A400042F4804202600122006800F4804000903D
:104A500006A80099069202214FF480020C910D9253
:104A600019214FF4A8720E910F9202210722079389
:104A70001091119200F00CFC08B100F021F8022115
:104A80000291002203920F204FF4A0510190049153
:104A90004FF480520592052101A800F089FD08B16C
:104AA00000F00EF813B000BD00080240303802409C
:104AB000A827002000440040403802400070004019
:104AC00072B6FEE7020018BF012201210148FFF77C
:104AD00069BC00BF0008024038B5044600F00EFE75
:104AE00014F1010F054602D004480178641800F063
:104AF00005FE401BA042FAD331BD00BF00000020DC
:104B000000B500BF130096469446103928BFA0E8B0
:104B10000C50FAD85FEA417C28BF0CC048BF40F86F
:104B2000042BC90728BF20F8022B48BF00F8012B2F
:104B300000BD3EB5BDF820409DF81C500294019583
:104B40009DF818400094FEF793FF00203EBD80B50D
:104B5000FEF79FFF002002BD70B5002300F56174D1
:104B6000D8B254F820502E0406D55B1CD8B20B28BE
:104B7000F6D34FF6FF7005E041F4004100F00F035B
:104B800044F82310C0B270BD0B2907D200EB81009E
:104B9000D0F88413C1F30E01C0F8841300207047CD
:104BA0007CB506460C4606F58E7500942B464FF4F0
:104BB0008072002100F0D8F801002BD106F22631D6
:104BC0002A780A70092C6B784B70AA78EB7842EA45
:104BD00003224A802A790A716B794B71AA798A710A
:104BE000EB79CB7116D32A7A6B7A42EA03220A81D7
:104BF000EB7AAA7A42EA03224A816B7B2A7B42EA59
:104C000003228A81AA7B8A73EB7BCB732A7C0A748A
:104C10006B7C4B7476BD2DE9FC4780460C460094B6
:104C200008F11C034FF40072002100F09DF85FEAC8
:104C3000000970D108F54E7798F81C1039700026DD
:104C400098F81D207A700A2C98F81E1098F81F20EA
:104C500041EA0221798008F11C0098F8201039718E
:104C600008F121010A787A714B78BB718A78FA7160
:104C7000C97839724FD30921ADF80010BDF8001082
:104C80007A88914247D2694600F0B7F84178042902
:104C90003FD11A22724308EB020A0AF24234017829
:104CA00021700025427862708178A170C278E2702C
:104CB00001792171427962718179A171C279E271C0
:104CC000017A21721AE0694600F097F841780529C7
:104CD00014D1E9B20AEBC10202F5537103780B70EB
:104CE0006D1C42784A7083788B70C278CA700379E1
:104CF000427943EA02238B8082798A71E9B2227970
:104D000091423EBFBDF800107A889142DBD3761CF9
:104D1000F6B2022EB2D34846BDE8F687F8B504468F
:104D2000154600931E4604F58E7741F440723B46CB
:104D3000002100F019F8010004BF7978032912D18D
:104D400039788B1E9E4224BF8E1EB6B2002106E02B
:104D50006218891C92F81E2105F8012B89B2B14214
:104D6000F6DB00212970F2BD38B585781446049A27
:104D7000012D10D141F0800101744482062104F418
:104D80007F444174B4F5407F07BF40F209418182FE
:104D900000248482C2821946BDE8384034E082781B
:104DA000012A06D1002305220374427441828382C2
:104DB000C38209E08278012A06D100230922037404
:104DC000427441828382C382002200211CE08278E7
:104DD000012A06D100230322037442744182838294
:104DE000C382F1E78278012A06D102230374427458
:104DF000002343828182C382E6E70A880378D318BE
:104E00000B800178084470477CB505460124A878DA
:104E1000012802D0022806D0C7E0A960AA81022199
:104E20002876A970C1E0287E401E0A2805F5717613
:104E30000FD8DFE800F0A5897F72675248382D202F
:104E40000600687E401C6876C0B2032802D22C7629
:104E5000AC709DE0326906212846904700206876B4
:104E600028466979FFF790FE29792846FFF78CFEDE
:104E70000020287044E000F09AF8012802D10024B4
:104E80000D2084E0022808BF0920FAD0042874E02D
:104E9000009400226B790021284600F040FC306825
:104EA000E8810A2164E0297900F082F8012803D121
:104EB0000D20287600246BE0042808BF0B2066D064
:104EC000052865D132E02B7900220021284600F028
:104ED0002CFC3068E88108214AE000F068F80128DD
:104EE00008BF072053D0052802D10C2028761DE0EA
:104EF000022808BF05204AD0042849D10B20287673
:104F0000022445E000946B79AA89A968284600F03C
:104F100006FC3068E88106212AE0297900F048F88B
:104F2000012808BF092032D0052801D103242FE031
:104F3000042822E031682B79AA89E9812846A968EA
:104F400000F0F3FB042022E000F031F8012811D139
:104F5000297CE88A01F0800128B1802908BF03205C
:104F600015D0052104E0802908BF09200FD00721B2
:104F700029760DE0042818BF022809D10B2006E08D
:104F80006A7905F11001284600F0BEFB0220287660
:104F9000002C18BF032C04D101200021A870297611
:104FA00003E0022C04BF0120A870204676BD697979
:104FB0002846FEF789BD000080B50B48016841F422
:104FC00000710160026842F480620260016841F48D
:104FD000807101600320FFF70CFA0F2000F0D6FB70
:104FE00000F0F4FB002002BD003C024010B5354C3F
:104FF0000FF2350101222046FFF750FA08B1FFF702
:105000005FFD31492046FFF78CFA08B1FFF758FDE4
:105010002046FFF7C3FA18B1BDE81040FFF750BDB6
:1050200010BD2848FFF7C4BA78B5022999B02748BF
:1050300008D0042941D0052941D10321017000F095
:105040001EFC3CE00222027000F014FC00F07CFC2C
:1050500020A41F4D25A6204600F032FC29462046FC
:1050600000F016FC1FA000F069FC304600F028FCA0
:1050700005F12401304600F00BFC00BF0FF2800068
:1050800025A600F05BFC00BF1FA000F057FC3046D7
:1050900000F016FC05F14801304600F0F9FB05F17F
:1050A000AC01204600F020FC22A1684600F084FC00
:1050B0006946204600F018FC01E0012101701AB099
:1050C00070BD0000CC200020100000206C280020C3
:1050D000D86600082F524F4F5446494C452E7478DD
:1050E000740000002F444952310000002F444952FF
:1050F000312F4449523146494C452E747874000092
:105100002F444952320000002F444952322F535548
:1051100042444952310000002F444952322F535526
:1051200042444952312F4449523246494C452E742B
:105130007874000048692074686572652C20546892
:10514000697320697320616C6900000038B5040040
:1051500001D1012032BD00F028F808B900F016F89E
:1051600000F019F800F025F8FFE7416100F001F8C0
:1051700032BD2068C16841F40051C1600020686000
:10518000202169702020A87000207047002129701C
:10519000204600F035BB242068702068C16821F4E7
:1051A0000051C160204600F00EB804F13C0568785B
:1051B00070472068016921F49041016120684169CC
:1051C00021F02A01704770B5044622681169E06831
:1051D00021F4405101431161D3682748A16803407D
:1051E00020690B4361690343E0690B430343D360C8
:1051F0005169A06921F44071014351611F498A42FC
:105200001CBF1F48824202D100F060FA01E000F0AA
:1052100055FA62682568E4691921B4F5004FA1FBCD
:1052200000016FF0630612D1D30F5200FDF7E2FECA
:1052300000F028F8F60032366420B6FBF0F04200A9
:1052400002F4F87202EB011200F0070010E0930F75
:105250009200FDF7CFFE00F015F8360132366420DB
:10526000B6FBF0F000F0F00202EB011200F00F00CC
:105270008018A86070BD0000F369FFFF00100140B6
:10528000001401406421B0FBF1F106FB01067047F8
:105290002DE9F843040016D02078DFF80463C10735
:1052A00013D5B06800F00C00042807D0B06800F0F7
:1052B0000C0008283DD1706841023AD5306881035E
:1052C00003D56068002800F065812078B54F81071C
:1052D00019D5B06810F00C0F07D0B06800F00C00C2
:1052E00008285BD17068410258D43068810703D523
:1052F000E068012840F04E813168206921F0F80112
:1053000041EAC00131602178080779D56069A64972
:10531000002868D001220A6000F0F0F90546706F9D
:1053200081076DD400F0EAF9401B0228F7D9032069
:1053300033E16068B0F5803F04D1306840F48030DC
:10534000306011E0B0F5A02F306806D140F4802025
:105350003060316841F4803105E020F48030306005
:10536000316821F480213160606858B100F0C6F9DD
:10537000054630688103A8D400F0C0F9401B6528B9
:10538000F7D3D4E700F0BAF90546306881039CD51D
:1053900000F0B4F9401B6528F7D3C8E7E068A8B16E
:1053A0000121396000F0AAF905463068810705D46B
:1053B00000F0A4F9401B0228F7D9B8E7306821694A
:1053C00020F0F80040EAC10030609CE7386000F04F
:1053D00095F905463168880795D500F08FF9401B8F
:1053E0000228F7D9A3E7086000F088F90546706F36
:1053F000810705D500F082F9401B0228F7D996E70E
:105400002078410760D5306C0025C1000BD4002006
:1054100000900125316C41F080513164306C00F016
:10542000805000900098DFF88481D8F80000C10512
:1054300013D4D8F8000040F48070C8F8000000F0E1
:105440005DF98146D8F80000C10506D400F056F990
:10545000A0EB09000228F5D969E7A068012805D06A
:105460000528306F06D140F004003067306F40F0FF
:10547000010005E0400840003067306F20F0040074
:10548000306741F28938A06860B100F037F9814691
:10549000306F810713D400F031F9A0EB09004045CB
:1054A000F6D344E700F02AF98146306F810706D52C
:1054B00000F024F9A0EB09004045F6D337E71DB111
:1054C000306C20F080503064A069002864D0B1684E
:1054D00001F00C0108293AD002282AD100203866B0
:1054E00000F00CF905463068810105D500F006F999
:1054F000401B0228F7D91AE7E069216A626A08436B
:10550000A16A490840EA8210491E40EA0140E16A66
:1055100040EA016070600120386600F0EFF8044650
:105520003068810138D400F0E9F8001B0228F7D96F
:10553000FDE60020386600F0E1F80446306881019D
:105540002AD500F0DBF8001B0228F7D9EFE6012886
:1055500020D07068E26900F48001914202BF00F03F
:105560003F01226A914201BF47F6C0710140626A61
:10557000B1EB821F0ED1A26A00F4403101F58031F7
:105580005208B1EB024F02BF00F07060E16AB0EB6D
:10559000016F01D0012000E00020BDE8F28300BFD0
:1055A0000038024000004742800E47420070004031
:1055B0002DE9F04104000F4654D0494E306800F008
:1055C0000700B84202D200F073F84BD12068454D75
:1055D000810712D5400703D5A96841F4E051A960BD
:1055E0002078010703D5A86840F46040A860A96846
:1055F000A06821F0F0010143A9602178C80729D5EE
:105600006068012802D129688A0305E0022818BFD2
:10561000032803D129688A0103D423E029688A0773
:1056200020D5A968890840EA8100A86000F066F8E2
:105630008046A868616800F00C00B0EB810F09D0CB
:1056400000F05CF8A0EB080041F289318842F0D309
:1056500003202BE0306800F00700874204D200F0FE
:1056600027F801D0012021E02078410705D5AA685C
:10567000E06822F4E0520243AA602178080706D5C8
:10568000A968206921F4604141EAC001A96000F0E5
:10569000B3F9AA681449154BC2F30312895CC840D8
:1056A00018601348006800F071F80020BDE8F08130
:1056B0003770316801F00701B94270470B480D4A55
:1056C000006813680C49C3F3822206E00748094AC0
:1056D000006813680849C3F34232895CC8407047C8
:1056E000003C0240003802408C6900080C00002099
:1056F0000800002008380240106A0008014840688D
:10570000704700BF000000207FB5144600220191C1
:1057100003920825002602950096002327E038B55D
:1057200084B000F013F8002309E07FB500F025F8FD
:1057300000231BE038B584B000F008F802230022F3
:105740002146FEF7ACF9002005B030BD1C46089D8F
:1057500090F81D3303B100250395029201910125B4
:10576000009570477FB500F008F80223012221461A
:10577000FEF795F9002004B070BD029201911C461D
:1057800000250126039500967047000038B50D4DA1
:105790000D4B2A7804464FF47A711868B1FBF2F287
:1057A000B0FBF2F0FEF75AFE50B9102C08D20022DE
:1057B00021464FF0FF30FEF729FEAC60002032BDDD
:1057C000012032BD000000200C00002081B000202C
:1057D000009000222348416841F4804141604168C3
:1057E00001F48041009100990092036843F08053D6
:1057F0000360006800F080500090009801B070478E
:1058000010B586B004461422002101A800F024F946
:1058100021681548814223D1002214480092016971
:1058200041F400310161016901F4003100910099F6
:1058300000920C21036843F0010303600222006818
:1058400000F00100009000980948019102920021A7
:105850000391032207210591049201A9FEF7BAFCE6
:1058600006B010BD403802400044004030380240CD
:105870000000024080B5012248494B4803E080B552
:10588000012246490020FBF71EFB4549087001BD77
:10589000F8B500F048F8307088B9444F022221462C
:1058A0003846FBF741FB307048B92846FCF7E2FE6A
:1058B00000F032F830703846FBF76BFD3070F2BD07
:1058C00070B500F036F8287008B9002070BD374E6A
:1058D0000B2221463046FBF727FB287018B93046CB
:1058E000FBF757FD287070BDF8B500F01CF830705C
:1058F00088B92E4F322221463846FBF715FB30700F
:1059000048B92846FCF7B6FE00F006F83070384675
:10591000FBF73FFD3070F2BD024606F12003294639
:105920003846FBF71CBC0D461D4E0446311DFBF7E7
:1059300051BD1B4D0446291DFBF74CBD80B5FBF73F
:10594000D1FD1749087002BD70B5164C2DED028BC4
:105950002246211D10A0FBF75BFD20684589806968
:10596000801E6843FDF75EFA9FED118B53EC182BF8
:10597000FDF766FAFDF744FAA060666805FB06F0DD
:10598000FDF750FA53EC182BFDF75AFAFDF738FAE9
:10599000E060BDEC028B70BD0000000050280020CC
:1059A000EC27002030280020680000209C100020F8
:1059B000000000000000E03F0CB430B583B00A46A0
:1059C00006A90291044600250194009502AB01A9A5
:1059D000084878441E30FBF7BAFE019A157000287B
:1059E0004EBF04460198041B204603B030BC5DF84E
:1059F0000CFB00BF1FCCFFFF30B5144C606800F0FB
:105A00000C00042802D0082802D01DE0104830BD48
:105A1000226820680023410202F03F0204D5256875
:105A20000B49C5F3881003E020680A49C0F38810C9
:105A3000A1FB0001FDF7DEFA2168C1F30141491C19
:105A40004900B0FBF1F030BD024830BD04380240DF
:105A500040787D010024F40010B5044610460A4643
:105A60000146204600F002F8204610BD62F30F22E6
:105A700062F31F42401810F0030308D0C91A1FD365
:105A8000DB0748BF00F8012D28BF20F8022D1300C6
:105A900030B414461546103928BF20E93C00FAD826
:105AA000490728BF20E90C0048BF40F8042D8900B1
:105AB00028BF20F8022D48BF00F8012D30BC7047E8
:105AC000C91818BF00F8012DCB0728BF00F8012D19
:105AD00070470000FEB5054605F547765023346E45
