:020000040800F2
:10000000E84B0120EDE3000821E3000823E30008AA
:1000100025E3000827E3000829E3000800000000AA
:100020000000000000000000000000002BE30008BA
:100030002DE30008000000002FE3000831E3000872
:1000400075E4000879E400087DE4000881E4000814
:1000500085E4000889E400088DE4000891E40008C4
:1000600095E4000899E400089DE40008A1E4000874
:10007000A5E40008A9E40008ADE40008B1E4000824
:10008000B5E40008B9E40008BDE40008C1E40008D4
:10009000C5E40008C9E40008CDE40008D1E4000884
:1000A000D5E40008D9E40008DDE40008E1E4000834
:1000B000E5E40008E9E40008EDE40008F1E40008E4
:1000C000F5E40008F9E40008FDE4000801E5000893
:1000D00005E5000809E500080DE5000811E5000840
:1000E00015E5000819E500081DE5000821E50008F0
:1000F00025E5000829E500082DE5000831E50008A0
:1001000035E5000839E500083DE5000841E500084F
:1001100045E5000849E500084DE5000851E50008FF
:1001200055E5000859E500085DE5000861E50008AF
:1001300065E5000835E3000869E500086DE500089D
:1001400071E5000875E5000879E500087DE500081F
:1001500081E5000885E5000889E500088DE50008CF
:1001600091E5000895E5000899E500089DE500087F
:10017000A1E50008A5E50008A9E5000800000000C9
:10018000ADE50008B1E5000820B1007A002818BFED
:1001900001F0AFBB104601F001BC00002DE9F84FA3
:1001A00004000E4692469846DFF830BA06D10BF1AD
:1001B0002803A3222BA1584601F06AFD3EB90BF19A
:1001C0002803A4220BF18001584601F061FDDDF8FF
:1001D0002890032009F0010701F0B8FDBF000500D9
:1001E00003D1304601F0F5FF19E085F80A900020B0
:1001F00028606E603189B94206DA0BF12803B0221B
:1002000020A1584601F044FD3089C01B28811421EB
:10021000304601F0ABFF20B1284603F037F800204C
:100220001DE068684168E960BF08E08A03F052FB9E
:10023000E96808807F1D208B03F04CFBE96848804B
:10024000404603F04DFBE96848604AEA073003F096
:1002500041FBE96888810020E96848822846BDE8BA
:10026000F28F00007463705F6372656174655F7321
:1002700065676D656E743A20696E76616C6964209D
:1002800070636200702D3E746F745F6C656E203E0B
:100290003D206F70746C656E000000002DE9F04722
:1002A0000E461C00804692463746DFF8309906D14C
:1002B00009F12803E82209F1A40100F023FB089DBD
:1002C0002DB909F12803E9221DA100F01BFB5645B9
:1002D0001AD2099880070AD4A97E480614D40A982D
:1002E00028B1E86E002804BF286F00280CD03146E2
:1002F00001F21B218908BAEB810F31BF574606F284
:100300001B274FF6FC7007404FF4207239464046D9
:1003100001F0C5FD050008BF00200ED0286830B1EF
:1003200009F1280340F20B120DA100F0EBFA6889E5
:10033000801B20806E812E812846BDE8F08700005A
:100340007463705F706275665F707265616C6C6F0C
:10035000633A20696E76616C6964207063620000A4
:100360006E65656420756E636861696E6564207092
:10037000627566002DE9FE4F8AB0054600200590A3
:1003800000240690099080460026ADF80C000790E6
:1003900008906FF00F07DFF8449835B909F128038A
:1003A0004FF4CF720FF2C44116E0B5F86200698EC7
:1003B0004008814234BFADF80E10ADF80E00BDF814
:1003C0000E0008B9ADF80E100A9848B909F12803D3
:1003D0004FF4D77209F59C7100F094FA384685E124
:1003E000287D042818BF072805D002281CBF032831
:1003F0006FF00A00F3D1BDF82C0005F1620AD0B10C
:10040000BAF80200BDF82C1088422AD3BAF80400CA
:10041000642826D2B0B105F16C014868002804BFF9
:10042000E86E002807D109F128034FF4AB7209F1F7
:10043000C80100F067FAE96EBAF804B0002900F0CC
:10044000CF8014E005F16C004168002904BF00680A
:100450000028F0D009F1280340F2591209F5827101
:10046000E7E7688B40F0800068833DE1014608685B
:100470000028FBD10C46A77A2189BDF80E0007F0B1
:10048000010701EB8701884207DA09F128034FF4DD
:10049000F3720FF2F03100F035FABDF80E1020893A
:1004A000091AA1EB8707BAF80610ADF80C1089B34A
:1004B000B8B2884207D209F128034FF4FC720FF258
:1004C000DC3100F01FFABDF80C00BDF82C100694CA
:1004D000884288BF0846BAB28242B8BF384680B266
:1004E000079007A8BDF80C2006880799921BADF865
:1004F0000C207F1ABDF80C0000281CBFBDF82C0092
:10050000864207D009F128034FF400720FF2AC3194
:1005100000F0F8F9BDF82C108E426CDAB8B2002861
:100520001CBF208900286BD0B8B2891B8842B1BF9C
:10053000ADF81070BDF82C10891BADF810109DF8A7
:1005400030000694C10718D59DF8301001910120A4
:100550000290009503ABBDF81010BAB20020FFF76F
:100560009DFE002805902DD00A98059BBDF810200F
:100570008119586803F0DEF929E0616800E001465E
:1005800008680028FBD1087B10F0C00F12D1486822
:10059000498901440A9881420CD13EB109F12803EE
:1005A00040F2312209F5B67100F0ACF9BDF8100047
:1005B000089010E0BDF810100122002001F06FFC3F
:1005C0000028059071D00A98059930444860059834
:1005D00001F058FE8344BDF810108E19B6B20AE03F
:1005E000BAF8060038B109F1280340F24B2209F5A8
:1005F000CC7100F087F9BDF82C00864280F2A8800B
:10060000BDF82C00BDF80E10801B80B2884288BF58
:10061000084604909DF83000C10727D5B8F1000FB7
:100620000CBF01200020029003AB9DF83000019028
:1006300000950498BDF80E2081B23620FFF72EFEFB
:10064000019090B341890498814207DA09F12803A7
:1006500040F2672209F5E47100F054F90A98019B11
:10066000049A8119586803F065F945E0BDF80C005B
:1006700038B109F1280340F2712200BF97A100F0C0
:1006800041F9049881B2012200F0F0F907000CD082
:100690000A98304478604FF42072002100F0E6F9A7
:1006A000019030BB384601F094FD688B40F080002B
:1006B0006883059808B101F08CFDB8F1000F1CBFEC
:1006C000404602F0DAFDBAF8040068B105F16C00AA
:1006D0004168002904BF0068002805D109F12803FA
:1006E0004FF44A7200F00CF94FF0FF300DB0BDE846
:1006F000F08F394601F0E0FD019801F0C3FD83441D
:100700001FFA8BF0642888BF0198CCD80020009095
:100710000022EB6D0199F3182846FFF73FFD0028F2
:100720000690C2D0B8F1000F08BF80460CD0DDF8AB
:10073000240030B909F1280340F2AB226BA100F08C
:10074000E1F809990698086006980499099044E729
:100750000798B8B1676806460FE039897118398182
:10076000386848B978687B890A993246184403F09A
:10077000E1F87889301878813F68002FEDD1208921
:1007800036182681BDF80C10AAF80610059888B115
:100790003CB909F1280340F2E12209F5027100F0A9
:1007A000B1F80599606801F087FD059A21891089E3
:1007B000411821E0089880B2F8B1002C1CBF606895
:1007C000002807D109F1280340F2E72209F510714A
:1007D00000F098F86268089903E01389CB18138138
:1007E000024610680028F8D1108953890818108132
:1007F000CB18538120890918218105F16C02002C46
:100800000CBFC2F80080C4F80080E86DBDF82C1061
:100810004118E965BAF80230BDF82C00AAF804B016
:100820001B1ABAF80400AAF8023058B1516800291E
:1008300004BF1068002805D109F1280340F21332E3
:1008400000F05EF8069800281CBFC06800280AD097
:100850009DF83000810706D4082003F03BF8069984
:10086000C96800F0BEF9002040E700007463705FC3
:1008700077726974653A20696E76616C696420707C
:10088000636200006D73735F6C6F63616C206973EA
:1008900020746F6F20736D616C6C0000696E636F04
:1008A0006E73697374656E74206F76657273697A9E
:1008B000652076732E20737061636500696E636FC7
:1008C0006E73697374656E74206F76657273697A7E
:1008D000652076732E206C656E0000006F76657261
:1008E00073697A65203D3D203000000070726576A6
:1008F0005F73656720213D204E554C4C0000000081
:100900000FF61831484601F0C3B92DE9FE4F050036
:100910008846B24E07D106F1280340F24B3206F565
:100920001E7100F048FCEC6E002C3AD0B8F1000FBC
:100930000AD106F1280340F2533206F5277100F080
:100940003AFC6FF005008FE02189884580F08580B2
:1009500005F132073888404507D206F1280340F2F6
:100960005B320FF6D82100F026FC208938B906F159
:1009700028034FF457720FF6D42100F01CFCA07A24
:10098000019080002689A6EB080600F0040AB6B2A2
:100990000AEB06014FF4207289B200F067F85FEAB3
:1009A00000095FD0606821890389D9F804C05B1A07
:1009B00043449BB232460CEB0A0101F034FDB042D5
:1009C0004DD1E06800F012F900F03F0A4FF0000B43
:1009D0005FEA0A7144BF0AF0F70A4FF0080B5FEABA
:1009E000CA7044BF2AF0010A4BF0010BE16800F025
:1009F00021FB0199C9B2009100EB08035A46494610
:100A00002846FFF7CBFB050029D0606801F03AFCCF
:100A1000B98E081AB88660680189891B89B201F00D
:100A200029FB2089861B2681504602F053FFE1688E
:100A300000F0D7F8606801F025FCB98E4018B88640
:100A4000686801F01FFCB98E4018B88622682A60D9
:100A50002560286808B90021F986002004E048468E
:100A600001F0B7FB4FF0FF30BDE8FE8F362001F0FC
:100A700016BA38B5040008D158480FF6E01100F155
:100A8000280340F2EB3201F003F9E56EA5B100E076
:100A9000054628680028FBD100F0A7F810F0070FE2
:100AA0000AD1012002F016FF00F09AF8608B40F0A6
:100AB00020006083002032BD2046BDE83440012183
:100AC0002DE9F8438946002619F0030F0446DFF8A4
:100AD0000C8107D108F1280340F2124208F5307169
:100AE00000F0F5F93CB908F1280340F213420FF683
:100AF000881100F0ECF95FEA897048BF01264FF4D5
:100B00002072B100FFF7B2FF050014D06889B0EB86
:100B1000860F07DA08F1280340F23A4208F54671D9
:100B200000F0D5F900964A46E36D29462046FFF7C6
:100B300035FB050006D1608B40F0800060834FF0EC
:100B4000FF3048E0287B10F0030F07D008F128039E
:100B500040F242420FF6401100F0B9F9288938B14D
:100B600008F1280340F2434208F5557100F0AFF94F
:100B700004F16C06316811B9356004E0014608687B
:100B80000028FBD10D6004F16607002019F0030F67
:100B9000788002D0E06D401CE0655FEAC97003D543
:100BA000618B41F020016183686801F06BFB39883B
:100BB0004018388080B268B17168002904BF30687D
:100BC000002807D108F1280340F2664208F5607159
:100BD00000F07DF90020BDE8F283000098C4000811
:100BE000E9688A89104388817047E868808902F043
:100BF00071BE2DE9F84F040084B0DFF8588707D1A3
:100C000008F1280340F2E1420FF6A40100F05FF979
:100C1000207D012807D108F1280340F2E44208F5BD
:100C20006A7100F054F9DFF830070168A14200F062
:100C30004A8104F14806318B3088814234BF0391E8
:100C40000390756A6DB3221D21462046FFF79CFA7A
:100C50005FEA000907D0002C1CBF2068002807D1DC
:100C600019F1040002D16FF003002DE1006820604B
:100C700000F079F9616C2F89039B401AC0198342F7
:100C800004F1980216D21946338B994204BFB06A18
:100C9000002806D1507820B9002101201170507031
:100CA0009170A07E810740F10981204605B0BDE822
:100CB000F04FF3E200205070B76A27B100E007461A
:100CC00038680028FBD100F04EF9616C2B89039A3B
:100CD000401AC0188242C0F0ED80E968888902F0AD
:100CE000F9FD400707D508F1280340F237520FF20B
:100CF000D87100F0ECF8B06AA0B1628B12F0440F2A
:100D000010D1716A29B1086860B90889618E88427A
:100D100008D2B08B30B1F08B642803DA12F0A00F48
:100D200000F0C880207D022804D0102002F0D2FDFF
:100D3000FFF756FF3CB908F1280340F2B9520FF211
:100D4000A07100F0C4F8284600F0C4F8002859D17A
:100D5000606A02F0C5FDE9688860608D02F0BAFD46
:100D6000E968C881606A628D8218E26201F1140A42
:100D7000A87AC1070BD5221D49464FF4067002F030
:100D800091FC40F0017002F0ABFD4AF8040BB4F99D
:100D90003000002844BF00212186606B30B9DFF8A5
:100DA000BC150868606300F0DEF8A0636868E96855
:100DB000426843898A1A92B29B1A4381038941602F
:100DC0009A1A0281002008821431A87A00F00100EA
:100DD00001EB80018A4507D008F1280340F21C622C
:100DE0000FF21C7100F073F80620CDF80890019006
:100DF000221DA17A0091E37A6868214600F0B9FECD
:100E0000010028D128687062217D022904D0618BFD
:100E10004FF6FC700140618300F0A5F88246FFF7B1
:100E2000E4FE10F0030118BF01212889504408187E
:100E3000B168091A48BFB060FFF7D7FE10F0030091
:100E400018BF0120298940182DD000222A60B06ADD
:100E500030B9B56225E0618B41F08001618333E0F8
:100E600000F081F8F968824600F0E4F8BAEB00007F
:100E700016D504F1700A01E0DAF800A0DAF80000F3
:100E800040B100F0D6F8E968834600F0D3F8BBEB38
:100E90000000F1D4DAF800002860CAF8005005E03C
:100EA0003D602F4602E0284602F0F0F9756A002DF9
:100EB0007FF409AF706A08B9002131844FF67F7062
:100EC000618B01406183002005B0BDE8F08F404692
:100ED00000F0DEBE10B5040007D100F021F940F2A9
:100EE0009A5200F5747100F0D3FE6068817B01298D
:100EF00001D0012010BD002010BD70B5040007D145
:100F000000F00EF940F2636200F21C4100F0C0FEF6
:100F1000256F2DB303E0FFF7DDFF08BB2D682868C0
:100F200000282846F7D1FFF7D5FFC8B9E06E286042
:100F30000020216FE1662067618B41F400616183CD
:100F400000F011F80646FFF750FE10F0030018BF3E
:100F50000120298971184018E0640020606370BD89
:100F60006FF0050070BDE968486802F0B9BC10B5C3
:100F7000040007D100F0D4F84FF4D36200F5886183
:100F800000F086FE94F84200FF281CBF401C84F845
:100F900042002046BDE810402BE610B5040009D100
:100FA000DFF8B0030FF26C5100F1280340F2AD629C
:100FB00000F06EFE2046FFF7A0FF18B92046BDE8FE
:100FC0001040D4E710BDF8B5050009D1DFF884035F
:100FD0000FF25C5100F1280340F2C16200F058FEAC
:100FE00005F13406F46B1CB12046FFF773FF10B116
:100FF0006FF00500F2BD2068F0636C3500E02D68ED
:10100000286838B100F015F8E168074600F012F8DA
:101010003F1AF4D4296821602C60206808B90021A7
:10102000B186B07BFF281CBF401CB073002030602D
:10103000F2BDC168486802F053BC38B5040008D15D
:10104000C4480FF2045100F1280340F2F96200F0A5
:101050001FFE04F14805A86AE8B1A07E41071AD432
:101060002046FFF7B0FFB0B9288B2988814238BFEE
:101070000846618E4008B0EB410F38BF480001EBD5
:10108000410111FA80F12980628B42F004026283EF
:1010900068800020208631BD2DE9F84F0D4682463C
:1010A00011464919143199464FF4207289B2222011
:1010B00000F0F5FE040030D0608905F1140188428B
:1010C00007DA00F02DF840F2247200F2644100F0DB
:1010D000DFFDDDF834800C9EDDF82CB00A986768DF
:1010E00002F0F8FB38802D06584602F0F3FB7880BA
:1010F000C7F80490504602F0F3FBAD0EB8606D1DCA
:1011000046EA0536B0B202F0E5FBB881404602F08F
:10111000E1FBF8810020388278822046BDE8F28F1A
:101120008C4800F128037047F8B5040084B00D46E0
:1011300016461F4607D1FFF7F3FF40F2427200F256
:10114000944100F0A5FD608D0390102102913B4673
:10115000228B01923246E08A00902946606AFFF7AE
:101160009BFF18B1616A628D8A18E26205B0F0BD1A
:1011700070B50C001546774E07D106F1280340F2F2
:10118000567206F2BC4100F016F8606800F11401D6
:10119000143005F0010500EB850291420AD006F1FA
:1011A00028033046BDE8704040F275720FF25031AE
:1011B00000F06EBD70BD304600F06ABDFEB50C009B
:1011C000054616461F4607D1FFF7AAFF40F2877271
:1011D00000F2E44100F05CFD3A4631462846FEF755
:1011E000D3FF10B96FF003050FE0002D19BFEB7AA4
:1011F000A97AFF23002102900091062001903A462F
:101200003146204600F0B5FC0546204600F0E1FFDF
:101210002846FEBD2DE9F8431C0084B007468846E9
:101220001646DFF8309107D109F1280340F2C47265
:101230000FF23431FFF766FB0C9D3DB909F128032D
:1012400040F2C5720FF23C31FFF75CFB404602F002
:1012500047FB46F2080103911422BDF83830BDF86F
:10126000341001930292009103460022002130467F
:10127000FFF712FF06000DD000230022314638464A
:10128000FFF776FF2B4622463146384605B0BDE8CB
:10129000F04393E705B0BDE8F083000038B50400E3
:1012A00007D12C48BEA100F1280340F2EA7200F0F9
:1012B000EFFC206D02F014FB0346002200212046C3
:1012C000FFF732FF050006D1608B40F0030060831A
:1012D0006FF0010032BD0023002229462046FFF7AF
:1012E00047FF231D224629462046FFF767FF628BF2
:1012F000010012BF42F003024FF6FC710A40628304
:1013000032BD000038B5050007D11248ACA100F18C
:10131000280340F6240200F0BBFC286D401E02F0BA
:10132000DFFA0346002200212846FFF7FDFE0400F5
:1013300002D14FF0FF3032BD002300222146284663
:10134000FFF716FF2B1D2A462146284601B0BDE8AF
:10135000304033E798C40008D00A0120740200200E
:101360002DE9F041040007D1FFF7DAFE40F64F0205
:1013700000F5A26100F08CFCE66E0EB900204BE097
:1013800094F89A00FF281CBF401C84F89A00F0686B
:10139000FFF72CFCC00704D531894D1EAD41ED0F80
:1013A00000E00025F068436885F001020021204636
:1013B000FFF7BAFE5FEA000808BF4FF0FF302BD0FE
:1013C000D8F804704DB1112002F084FABA894CF2B9
:1013D000FF010A401043B88109E070683189038930
:1013E0005B1A9BB2012207F1140101F01CF8F168AD
:1013F000FFF720FE216D401C091A48BF206500231D
:10140000002241462046FFF7B3FE231D22464146F7
:101410002046BDE8F041D1E6BDE8F0817463705F1D
:1014200077726974653A2076616C696420717565BC
:101430007565206C656E67746800000073706C6978
:1014400074203C3D206D7373000000007573656768
:101450002D3E6C656E203E20300000007463705F8E
:1014600073656E645F66696E3A20696E76616C6959
:1014700064207063620000007463705F656E717554
:101480006575655F666C6167733A20696E76616C3D
:1014900069642070636200007365672D3E74637039
:1014A000686472206E6F7420616C69676E65640099
:1014B0007463705F6F75747075743A20696E7661CD
:1014C0006C69642070636200525354206E6F742004
:1014D00065787065637465642068657265210000D5
:1014E0007463705F6F75747075745F7365676D6535
:1014F0006E743A20696E76616C6964207063620074
:101500006F7074696F6E73206E6F742066696C6C97
:10151000656400007463705F7265786D69745F72F2
:10152000746F3A20696E76616C6964207063620042
:101530007463705F7265786D69743A20696E766164
:101540006C696420706362007463705F7265786DAB
:1015500069745F666173743A20696E76616C696460
:1015600020706362000000007463705F7273743AED
:1015700020696E76616C6964206C6F63616C5F6971
:10158000700000007463705F7273743A20696E7645
:10159000616C69642072656D6F74655F69700000CD
:1015A0007463705F73656E645F656D7074795F619D
:1015B000636B3A20696E76616C69642070636200C7
:1015C0007463705F6B656570616C6976653A2069FC
:1015D0006E76616C696420706362000070472DE96B
:1015E000F0470500DFF82C8306D108F1280340F20C
:1015F00027120FF22C3108E0099C200008D108F1D5
:1016000028034FF4947208F17C0100F0A2F82DE059
:10161000DFF8040301B9014602B9024603B90346E3
:101620000A98089F0FF2C5260FF210394FF0000CF0
:10163000C5F804C0C5F808C0C5F80CC06E61A5F8AF
:1016400024C005F12D0686F800C02F62C5F81CC025
:10165000DFF8C87297F800C086F803C028612846F2
:1016600000F090F82846A047002803D0002032E080
:10167000401CF070F078FF2804BF0021F1707C68F6
:101680004FF0000A1BE0AC4206D108F1280340F2FB
:101690008B12494600F05DF80AF1010ABAF5807F25
:1016A00007DB08F1280340F28D1208F1A00100F0D9
:1016B00050F8F07894F830108142D9D02468002C8A
:1016C000E1D1F078FE280CBF0020401C387078680B
:1016D00028607D602846BDE8F08738B504460D4691
:1016E00002F014F829462046BDE8344002F004BA5E
:1016F0002DE9FC410C00064615460FF25427DFF891
:10170000148205D108F1280340F2CB1200F020F832
:101710002DB908F128034FF4E67200F019F820689B
:101720007168884211D00090284671682960694626
:10173000FFF7D3FF002C0CBF002020687060012150
:10174000304600F061F8012000E00020BDE8F6819D
:101750003946404600F09CBA0A6883689A4204D031
:1017600001B90022826001207047002070470A689A
:10177000C3689A4204D001B90022C26001207047B8
:10178000002070472DE9FC4180460C0017461E469C
:10179000614808BF044607B9074606B90646002C4B
:1017A0001CBF2068002803D100F012F8012500E0DA
:1017B0000025002239464046FFF7CEFF0022314681
:1017C0004046FFF7D4FF0DB900F002F8BDE8F38101
:1017D0006A46214640468BE75049886070470000C2
:1017E00038B94C485EA100F128034FF4547200F060
:1017F0004FBA90F82D10CA0705D441F0010180F8C6
:101800002D10032100E0704738B504000D4608D1C3
:10181000404800F1280340F26D3200F1F40100F07D
:1018200037FA94F82D1001F0050005280BD1EA07CE
:1018300009D5606838B1080705D5211D2046BDE8E7
:10184000344002F029BD31BD38B932484BA100F116
:10185000280340F29B3200F01BBA90F82D10CA0703
:1018600007D501F0FE0180F82D10090748BF02F0EE
:1018700079BA704738B504000BD101B0BDE83040EB
:10188000244800F128034FF4787200F58C7100F0C1
:10189000FFB904F11C05687C41070CD440F004003A
:1018A000687403212046FFF7AFFF296819B120466D
:1018B000BDE83440084731BD40B9164800F128035F
:1018C00040F2064200F59E7100F0E2B900F11C0101
:1018D0004A7C530706D502F0FB024A7409680029C6
:1018E00018BF0847704700B1C16170476FF00B0027
:1018F000704701000BD00948406800E0006830B133
:101900004A1E90F83030D2B29A42F7D17047002088
:1019100070470000B0D8000870E40008800B012078
:101920006E657469665F6164643A20696E76616CA5
:101930006964206E65746966000000006E657469F4
:101940006620616C7265616479206164646564001D
:10195000696E76616C696420706F696E746572007F
:101960006E657469665F7365745F75703A20696E41
:1019700076616C6964206E65746966006E65746971
:10198000665F7365745F646F776E3A20696E766127
:101990006C6964206E6574696600000070B5DFF8DC
:1019A000CC1204680A6800E01268AAB192F82D30DF
:1019B00003F005010529F7D151680029F4D0956895
:1019C00005EA040629408E4204D09907ECD4D36876
:1019D0009C42E9D1104670BDA549096859B191F8FA
:1019E0002D2002F00502052A05D14A68002A1CBFF5
:1019F00000787F2801D1002070BD084670BD80B5F9
:101A0000014691F82D00C2070AD54A6842B19948AB
:101A10004069904202D002F08DFC08B1012002BD65
:101A2000002002BD2DE9F843054689466F683978E4
:101A3000080904284BD1880000F03C08788801F0A0
:101A400049FF29898842044603D22146284600F0EE
:101A500011FB688940453ADB2989A14237D3B8F1A7
:101A6000140F34DB3869834E7061F8683061307D63
:101A700000F0F000E02808D199F82D00C10702D548
:101A8000D9F8040028B9002415E04846FFF7B7FF4D
:101A900008B14C460FE0307D00247F280BD07348FE
:101AA000046800E0246834B14C45FBD02046FFF7C1
:101AB000A6FF0028F6D03069494602F03BFC30B959
:101AC000307C00F0F000E02818BF002C03D128463D
:101AD00000F07FFB09E0F8884FF63F71084207D01D
:101AE000284602F05FFD050001D100203FE06F684D
:101AF0003460C6F80490B76041463878800000F042
:101B00003C00B081284600F033FB787A01280DD0E4
:101B1000062806D011280ED14946284601F021FF9B
:101B20001EE04946284603F09DF819E0494628463C
:101B300004F094FA14E07069214602F0FBFB60B9EE
:101B4000307D00F0F000E02807D04146284600F044
:101B50003EFB0221284604F010FB284600F039FB2A
:101B6000002030607060B060B08130617061BDE8AD
:101B7000F2833EB5089D0C4622B100291ABF0968C0
:101B800000292C1D02959DF818109DF81C500091FD
:101B90000195214600F002F83EBD00002DE9F84312
:101BA00006468846B07BDFF8D090012814461D46D3
:101BB00000F0088009F128034FF4557231A148461E
:101BC00000F066F8ACB31421304600F0CFFA98BBB1
:101BD00070897768142808D209F1280340F2893205
:101BE00009F18001484600F053F8099808993D72C0
:101BF000787245222068214D38613A7079703089B9
:101C000001F068FE78800020F880288801F062FEEC
:101C1000B8802888401CB8F1000F288003D11848EC
:101C20000168F96002E0D8F80000F86000217981CD
:101C300009E07089142802DA6FF0010014E071687D
:101C4000086900906C460A9B988C40B131898842A3
:101C500005D222461946304602F080FE04E01846BE
:101C60005B69224631469847BDE8F283840B012028
:101C7000880B01204C0B0120E8DF0008DC0B012061
:101C800070E40008702D3E726566203D3D203100F5
:101C90000EB4C0B5024603A800210190009101AB2B
:101CA0000121044878440C3004F0B3FA06BC5DF816
:101CB00010FB00BF0DC7000030B5816800220A602C
:101CC00000234268D21C9208920005E00C68146060
:101CD0000A605B1C05882A444488A342F6DB30BDB9
:101CE00038B50024414DA0B255F82000FFF7E4FFBD
:101CF000641CA1B20929F6D331BD10B5806804680F
:101D000084B12168016014F0030009D0374800F164
:101D1000700300F14C0140F219122430FFF7B8FFB4
:101D2000204610BD002010BD80B558B9DFF8BC00BA
:101D30002FA100F170034FF49E722430FFF7A8FF2B
:101D4000002002BDBDE80240D7E7000010B5092819
:101D5000264C0ADB04F1700340F2571229A104F16A
:101D60002400FFF795FF002010BD54F82000BDE8C7
:101D70001040C2E738B504460D4615F0030009D0FF
:101D8000DFF8680027A100F1700340F26D122430E3
:101D9000FFF77EFFA06801682960056031BD000083
:101DA00040B9124812A100F1700340F2951224309C
:101DB000FFF76EBF002918BFFFF7DCBF70470000B8
:101DC00010B50928094C0ADB04F1700304F1240062
:101DD000BDE810404FF4D5721AA1FFF759BF21B1E9
:101DE00054F82000BDE81040C4E710BD24DD000811
:101DF000696E76616C696420706F6F6C20646573C6
:101E0000630000006D656D705F6D616C6C6F633AAF
:101E10002074797065203C204D454D505F4D4158F0
:101E2000000000006D656D705F667265653A206D3B
:101E3000656D2070726F7065726C7920616C696776
:101E40006E6564006D656D705F667265653A2074DD
:101E5000797065203C204D454D505F4D4158000044
:101E6000DFF87816DFF8782600200870106800E0A8
:101E7000C06820B1416F0029FAD001F075BC7047ED
:101E800070B5BDF91050059C0026066041600573D1
:101E900044730121C67302814381817370BD2DE9B2
:101EA000FE4F164605460F46DFF83896012E18BF3E
:101EB000412E06D0B6F5C17F0AD0B6F5207F5DD0A1
:101EC0008FE0002000F096F804462046BDE8FE8F23
:101ED0000024A2460820FFF739FF5FEA00083CD043
:101EE000E81C4FF6FC710840C0F514701FFA87FB20
:101EF00080B2834588BF834608EB050000F11001DE
:101F00000022C91C0192890800965B46BAB289007A
:101F10004046FFF7B5FF98F8040010F0030F07D014
:101F200009F1580340F2011209F1280100F078FA92
:101F3000ED1CAD08AD006D4215F5147F07D109F118
:101F4000580340F2031209F1AC0100F069FA002CC9
:101F50000CBF4446CAF8008008E0DFF88015012075
:101F600008700CB3204600F034F91DE0A7EB0B0716
:101F70000025B8B20028C246ACD1A6E7EA1CF91C7D
:101F800092088908920002EB810202F1100092B2DD
:101F9000B2EB810F24BF82B2B2EB810F04D380B2C7
:101FA00005F0E6F9040001D100208FE70020019040
:101FB0000096601900F11001C91C89083B463A4699
:101FC00089002046FFF75CFF207910F0030F07D04F
:101FD00009F1580340F2231209F1E00100F020FA60
:101FE00073E709F1580340F227120FF2FC4100F0A9
:101FF00017FAD9E7FEB5174605460E46412F18BF1A
:10200000012F09D0DFF8DC040FF2F84100F158038A
:102010004FF4A572FFF73CFE0720FFF797FE040080
:1020200001D10020FEBD00200190009733463246CA
:1020300029462046FFF724FF2046FEBD3EB51C463C
:10204000C01C079B800801EB8005AB4201D2002039
:102050003EBD069B002B14BF03EB80000020022333
:10206000019300920B460A4601462046FFF708FFFF
:1020700020463EBD2DE9F04104000E46DFF86454D1
:1020800007D105F158034FF4CC720FF28C4100F0E8
:10209000F6F82789BE4237D2BF1BBFB20FF2904875
:1020A0000CE0361A2089C01B2081B6B224682CB9F6
:1020B00005F1580340F2AF1200F0E0F86089B04239
:1020C000EFDB207B10F00F0F16D16089864213D012
:1020D000617B880710D46168091B711889B220469A
:1020E00005F0BAF8040007D105F1580340F2BD121B
:1020F0000FF2544100F0C3F866812681206808B1D0
:1021000000F067F800202060BDE8F081F8B558B90C
:10211000DFF8D0030FF24C4100F1580340F2DF1218
:10212000FFF7B6FD0120F2BDB1F5803FFAD2D9B17B
:1021300004890B46E418A5B29EB2B542F2D3077BE0
:102140003D0607D542684942114400F11005A942F5
:1021500005D2E7E7002AE5D04268494211444160D0
:10216000048141895B1843810020F2BD0022CDE744
:1021700010B5DFF8704330B904F1580340F24B2238
:102180000FF2E0310DE0B1F5803F0DD2B1B14389DE
:102190008AB293420ADA04F1580340F255220FF250
:1021A000D0312046FFF774FD012010BD4468214462
:1021B00041609B1A018943818A1A0281002010BD67
:1021C0000B0058BFFFF7A2BF5B421946D0E70122C0
:1021D000F6E72DE9F8430400DFF8085309D105F1CB
:1021E00058034FF437720FF27C3100F048F80020AA
:1021F00042E000260FF2B0380FF29439A07B30B9DC
:1022000005F1580340F2F122494600F038F8A07B6E
:10221000401EA073C0B270BB617B207B27688A0719
:1022200000F00F000DD5206938B905F1580340F2D0
:10223000FF2205F5867100F022F8216920468847C3
:1022400016E0022802D12146082003E0012804D12B
:1022500021460720FFF7B4FD0AE018B9204604F034
:1022600056FF05E005F1580340F20F3200F006F882
:10227000761C3C00C2D1F0B2BDE8F283414628464C
:10228000FFF706BD0146002001E00968401C002957
:10229000FBD180B2704770B1817B491C8173C9B298
:1022A00049B9DFF840020FF2143100F1580340F24F
:1022B0004232FFF7EDBC704770B504000D46DFF801
:1022C000246218BF002D0FD106F1580306F598714E
:1022D0003046BDE8704040F25A32FFF7D9BC218940
:1022E0002A8951182181044620680028F7D12089C5
:1022F0006189884208D006F1580340F2623206F53F
:10230000B4713046FFF7C4FC206840B106F15803B1
:1023100040F263320FF2B8213046FFF7B9FC218951
:10232000288941182181256070BD2DE9F0470546B7
:10233000002600270C466FF00F08DFF8A891002D4B
:1023400018BF002C03D028892189884206D209F1C0
:10235000580340F2CA3209F5DE714AE06089A0EB09
:10236000070A6889801B504538BF824660686B68E1
:10237000C1195246981901F0DDFA68895644B042F5
:10238000574407D209F1580340F2D9320FF25021D5
:1023900000F046F86089B84207D209F1580340F2CC
:1023A000DA320FF2542100F03BF86089874224BFF3
:1023B000002724686889864202BF00262D68002D08
:1023C00010D02CB160892189884201D12068A0B940
:1023D0002DB168892989884201D1286890B9002CDB
:1023E000BCD11AE0CCB109F158034FF479720FF265
:1023F000242100F015F8404610E009F1580340F29E
:10240000EA3203E009F1580340F2EF3209F5F671C0
:1024100000F006F86FF0050000E00020BDE8F0874E
:102420004846FFF735BC2DE9F843044600268846A8
:102430001546B1462B4834B900F1580340F20A4220
:102440000FF2E01108E0B8F1000F1CD100F15803C1
:1024500040F20B4200F50671FFF71AFC002021E064
:10246000C01A80B2AFB28742C8BF074660689BB24D
:10247000C118B0B23A46404401F05CFA2468B9444D
:10248000BE19ED1B0023A8B250B107E099B26089D4
:102490000029E5D08142E3D324681B1A002CF5D132
:1024A0001FFA89F0BDE8F28338B515460A46298936
:1024B000FFF7F5FC040001D1002032BD2946FFF7EB
:1024C00034FF40B1DFF81C005EA100F1580340F278
:1024D0002452FFF7DDFB204632BD0000DF0B012058
:1024E0008002002010D10008706275665F616C6C1C
:1024F0006F633A206572726F6E656F7573207479C1
:1025000070650000696E76616C6964207062756642
:102510005F74797065000000706275665F72656156
:102520006C6C6F633A207020213D204E554C4C005E
:10253000706275665F7265616C6C6F633A207120C2
:10254000213D204E554C4C006D656D5F7472696D78
:102550002072657475726E65642071203D3D204E59
:10256000554C4C007020213D204E554C4C00000035
:10257000696E6372656D656E745F6D61676E6974B7
:10258000756465203C3D20702D3E6C656E0000003A
:10259000706275665F667265653A20702D3E726581
:1025A00066203E2030000000696E76616C69642010
:1025B00070627566207479706500000070627566DF
:1025C00020726566206F766572666C6F770000001A
:1025D000702D3E6E657874203D3D204E554C4C006C
:1025E0006F66667365745F746F203C3D20705F7426
:1025F0006F2D3E6C656E00006F66667365745F6676
:10260000726F6D203C3D20705F66726F6D2D3E6C69
:10261000656E0000705F746F20213D204E554C4C5C
:1026200000000000706275665F636F70795F7061B3
:10263000727469616C3A20696E76616C69642062BB
:1026400075660000706275665F636F707920666101
:10265000696C65640000000080B504F083FFC0F37E
:102660000D00DFF84417A0F58040088001BD000090
:1026700010B50446207D012840F00880DFF82C07C3
:1026800005A100F12803D422FFF702FB2146BDE893
:1026900010400120FFF794BB7463705F667265653C
:1026A0003A204C495354454E0000000080B500F0DC
:1026B0006AFDDFF8C40A0178491C0170C80703D518
:1026C000BDE8014000F082BB01BD00002DE9FE43E2
:1026D00004000D46DFF8D48640F0078008F1280397
:1026E0004FF4AF7274A100F025F9217DDFF88C6AF8
:1026F000002D42D0042918BF07293ED1A06F002821
:1027000004BF208DB0F5066F37D0A07EC10606D479
:1027100008F128034FF4B2726FA100F00BF9208B7F
:102720000290221DE18A009201912346626A216D86
:102730002046FEF76FFD204600F016FF3069A042EC
:1027400003D1C068306106E0084620B1C168A142EB
:10275000FAD1E168C1600020E0600121DFF8942A2D
:1027600031701068A04204D103F0DDFB0020BDE809
:10277000FE832046FFF77CFFF8E719B1022955D008
:1027800013D35BE0E08A0028F3D0B068A04203D105
:10279000C068B06006E0084620B1C168A142FAD125
:1027A000E168C1600020E060E3E794B908F1280324
:1027B00040F211125CA100F0BDF80020017D01295A
:1027C00000F0078008F128034FF4897249A100F056
:1027D000B1F801270FF2C05959F8270005686CB904
:1027E00008F12803FF2208F17C0100F0A3F805E0BE
:1027F000E86FA04204BF0021E967ED68002DF7D122
:102800007F1C042FE8D3214606F10C0000F0DCFE0B
:10281000207D012805D108F12803DF223BA100F02B
:1028200089F821460220FFF7CBFA9FE7214606F1FF
:10283000100000F0C9FE012030709AE72046BDE884
:10284000FE4300BF38B5050040F00980DFF85C05A5
:1028500035A100F128034FF4CE72FFF719FA287D55
:10286000032804D004280AD0072813D019E02846EA
:10287000FEF7FFF8040007D10520287505E028467B
:10288000FEF7F7F80400F7D06CB92846FEF7B1F967
:10289000204632BD2846FEF7ECF80400F4D10920AA
:1028A000EBE7002032BD14F1010FF1D1688B40F04D
:1028B00008006883F5E700007463705F636C6F73F2
:1028C000655F73687574646F776E3A20696E7661C0
:1028D0006C696420706362007063622D3E666C6197
:1028E000677320262054465F5258434C4F5345444B
:1028F000000000007063622D3E7374617465203DBA
:102900003D204C495354454E000000007463705FF5
:10291000667265655F6C697374656E3A20214C4917
:102920005354454E0000000070636220213D204E4C
:10293000554C4C004046FFF7ABB9000080B558B984
:10294000DFF8340A0AA100F128034FF4F472FFF70C
:102950009FF96FF00F0002BD017D012903D0418B6B
:1029600041F0100141830121BDE80440AEE60000C2
:102970007463705F636C6F73653A20696E76616C27
:1029800069642070636200002DE9F84F040084B090
:102990008B46DFF818040AD10DF1140DBDE8F04F95
:1029A00000F1280340F23D222DA1FFF771B9217DEE
:1029B000012907D100F1280340F2412200F1A401CE
:1029C000FFF766F9217DDFF8B4770A2909D121469E
:1029D00007F1140000F0F8FD204605B0BDE8F04F07
:1029E00046E6206D03900025666AD4F890A0D4F8DE
:1029F0001080E08AA94621B960B100F0D9F9E560FC
:102A000008E08146214607F1100000F0DDFD0120BD
:102A10005D463870206F08B100F02FFCE06E08B101
:102A200000F02BFC606F08B100F027FC5DB1208B3B
:102A30000290211D0091CDF804902346039932465F
:102A40002046FEF7E7FB2046FFF712FE5FEA0A008A
:102A500003D06FF00C014046D04705B0BDE8F08FC1
:102A60007463705F6162616E646F6E3A20696E7646
:102A7000616C69642070636200000000012183E7DB
:102A8000F8B505460C00134608BFDFF8D84ADFF852
:102A90001C034DB900F1280340F2A92222A1FFF73F
:102AA000F7F86FF00F00F2BD297D51B100F1280356
:102AB00040F2AB2200F1D801FFF7EAF86FF0050011
:102AC000F2BD180006D100F041F903001DD16FF0EE
:102AD0000100F2BD00270FF2C02656F82700026859
:102AE00000E0D26872B1D08A9842FAD13AB1116846
:102AF00029B124B12068002818BF8142F1D16FF0BC
:102B00000700F2BD7F1C042FE7DB002C1EBF2068EE
:102B100000282860DFF86406EB828168E960856040
:102B200004F082FD0020F2BD7463705F62696E6420
:102B30003A20696E76616C696420706362000000FF
:102B400010B50C0040F00980DFF8600206A100F12A
:102B5000280340F20F32FFF79BF82046FFF78EFF65
:102B60006FF00C0010BD00007463705F61636365FB
:102B700070745F6E756C6C3A20696E76616C696416
:102B800020706362000000000022F8B5064614467B
:102B90000025864856B900F1280340F2593200F565
:102BA0008071FFF775F86FF00F0045E0317D51B18E
:102BB00000F1280340F25A3200F59871FFF768F8E7
:102BC0006FF00E0038E00220FFF7C0F8050008BFE4
:102BD0004FF0FF3030D03069DFF8A0752861012058
:102BE000F18AE9822875717D69750021707A6872B1
:102BF0002972F07AE872B17AA97232682A60F08A92
:102C000070B1B868B04203D1C068B86006E0084649
:102C100020B1C168B142FAD1F168C1600020F06012
:102C20003046FFF725FDDFF8780AA861F968E9600A
:102C3000FD6004F0F9FC002004B120702846F2BDCC
:102C4000F8B50400DFF8305708D105F1280340F249
:102C5000A63205F5B4712846FFF71AF8218D666A89
:102C6000628E701840F23147BA42A8BF4FF48662B4
:102C7000E36AC01A821A01D46185F2BDF01A0028F5
:102C8000C8BF00260CDC9E1BB6F5803FC0F0088054
:102C900005F1280340F2B63203A12846FEF7F8FFFB
:102CA00066850020F2BD00006E65775F7263765F17
:102CB000616E6E5F776E64203C3D2030786666669C
:102CC0006600000038B504000D46DFF8840A0AD11A
:102CD0000DF1040DBDE8304000F1280340F2CF3281
:102CE00014A1FEF7D5BF217D012907D100F12803EA
:102CF00040F2D33200F5C671FEF7CAFF208D2D18C1
:102D0000ADB240F661018D4201DA854201DA4FF43D
:102D1000066525852046FFF793FFB0F5067F08D3AB
:102D2000608B40F0020060832046BDE83240FDF732
:102D300060BF31BD7463705F7265637665643A200D
:102D4000696E76616C6964207063620070B5002200
:102D500011A3154C2088401C4FF6FF7581B2A94283
:102D600008BF4FF44040208000252088E9B253F886
:102D70002110096800E0C96849B1CE8A8642FAD1BB
:102D8000521C90B2B0F5804FE4DB002070BD6D1C8A
:102D9000E9B20429EADB70BD7C0200207802002041
:102DA000800200208402002024030020CCC90008F7
:102DB000B868A04203D1C068B8607047084620B127
:102DC000C168A142FAD1E168C16070472DE9FE4FA8
:102DD000DFF8A863DFF8A0A57068401C7060707809
:102DE000401C707028E0A84207D00AF1280340F286
:102DF00071520AF5417100F0C3F9E8683061B8F129
:102E0000000F0BD0288B02902A1DE98A00920191B5
:102E10002B466A6A21692846FEF7FCF92C69284688
:102E2000ED68FFF725FC002030705FB16FF00C01FA
:102E30002046B847307828B135694FF0000901E0E5
:102E4000A946ED68002D00F05881287D38B90AF1B7
:102E5000280340F2BE420AF5F27100F091F9287D94
:102E6000012807D10AF1280340F2BF420AF5047194
:102E700000F086F9287D0A2807D10AF128034FF4CB
:102E800098620AF50F7100F07BF97078A97F814292
:102E9000D6D0A8774FF0000B287D0228D84605F140
:102EA000400405F1980706D1A0780628A8BF4FF086
:102EB000010B80F29A80A0780C2819DA7878002823
:102EC00040D0206B38B10AF1280340F2D4420AF511
:102ED0001B7100F055F9E06A38B90AF1280340F295
:102EE000D5420AF5287100F04BF9B8780C2802DBBE
:102EF0004FF0010B6CE079780FF6D010014411F817
:102F0000010C39788142BCBF491C39703978814243
:102F10005EDB218C0029284604D1FEF721FA002827
:102F200056D107E0FDF7F1FC20B92846FDF761FE18
:102F300000284DD087F800807878062848D8401CB3
:102F4000787045E0B5F93000010005D447F6FF720E
:102F500090421CBF401C2886B5F93000B4F900101F
:102F6000884235DB2846FDF7C8FF18B1206B78BBD7
:102F7000E06A68B3287D022814D0A0780C2828BF06
:102F80000C20B5F93C10B5F93E2002EBE1020FF63A
:102F90002C11085602FA00F047F6FF718842A8BFCC
:102FA00008462080A5F83080208C2189814238BFD6
:102FB0000846698E490040088BB2984238BF0846DF
:102FC0006081688E2081A4F82A802846FDF7CFFF13
:102FD000287D062809D1A87EC10606D57068296A11
:102FE000401A292828BF0BF1010B687A010728D560
:102FF000287D042818BF072823D17168286ADFF8C4
:103000005427081A616D52184FF4FA73B2FBF3F3A8
:10301000834204D20BF1010B4FF0010811E0FA7862
:10302000DFF8343703FB02114FF4FA72B1FBF2F10F
:10303000814206D22846FEF765F910B9F878401C9F
:10304000F870606B60B17068296AB4F900200623DB
:10305000401A12FB03F3984224BF284600F084FB79
:10306000287D03280BF1010104D170682A6A801AB7
:10307000292805E0092805D170682A6A801AF128F4
:1030800028BF8B465FFA8BF0B0B1276D284600F061
:103090006BFAB9F1000F30693FF4A5AE854207D154
:1030A0000AF1280340F26D520AF5367100F068F813
:1030B000E868C9F80C00A2E6A94699F81C0099F83E
:1030C0001D10ED68401C89F81C00C0B2884213D363
:1030D000002089F81C003070D9F88C204AB1D9F84A
:1030E000100049469047317800297FF4A5AE0028AA
:1030F00002D14846FDF77DFDA4E675694FF0000951
:103100000FE0A84207D00AF1280340F2B3520AF5B3
:10311000627100F035F8E86870612846ED68FFF7E5
:10312000A7FA3DB3287D0A2807D00AF1280340F208
:10313000A1520AF54C7100F023F87068296A401A10
:10314000F12814D3284600F00FFA7069B9F1000F86
:10315000D7D0854207D10AF1280340F2AF520AF5D1
:10316000587100F00DF8E868C9F80C00D5E7A946D9
:10317000ED68D6E7BDE8F78FE00B01207002002074
:103180005046FEF785BD70B5DFF8D0556878401C15
:1031900068702C6920E0A077608BC10706D500F02D
:1031A00023F8608B4FF6FC7108406083608B010749
:1031B00006D54FF6F772104060832046FFF742FBBA
:1031C000E668A06F38B100212970204600F014F89D
:1031D00028780028DDD134462CB16878A17F81425F
:1031E000D9D1E468F8E770BD40F002006083204662
:1031F000FDF7FFBCD00A01202DE9F04104000AD1FF
:1032000000F085F940F2096200F56C71FEF740FDAF
:103210006FF00F002FE0A76FD4F884507E7B002062
:10322000002DA06703463A46214602D02069A847F0
:1032300001E000F056F801006FF00C0812D1B00662
:1032400018D5208DB0F5066F1CBF401C2085D4F822
:1032500084507DB12069002300222146A8474045C3
:1032600008D101E0404501D1404604E0A7676FF076
:10327000040000E00020BDE8F08110B5002803E064
:10328000046800F003F82000FAD110BD10B5040066
:1032900009D0606808B1FEF79CFF2146BDE81040E8
:1032A0000320FEF78DBD10BD38B5050009D1DFF84C
:1032B000A0040FF2C84100F1280340F28262FEF739
:1032C000E7FC0320FEF742FD040001D1002032BDDF
:1032D0001022294600F02EFB6068FEF7DCFF204636
:1032E00032BD10B50800144607D123480FF2A8419B
:1032F00000F128034FF4D3620EE03CB12189FFF7BF
:10330000E1FC2046FEF765FF002010BD002BFBD13D
:10331000BDE81040FFF712BBFEF7BAFC6FF00F00DC
:1033200010BDB0B50446082818BF092808D01248B7
:103330000FF2804100F1280340F2DD62FEF7A8FCA5
:10334000DFF8183418695F680021002209E0057D64
:10335000A54205D1056A7D1B8D4224BF2946024640
:10336000C0680028F3D12AB1BDE8B0400021104662
:10337000FFF70ABBB0BD0000CCC90008F8B506468F
:1033800000F085F80400DFF8D45358D128690028EC
:103390000AE0418BC4680A0705D54FF6F773194058
:1033A0004183FFF74FFA2000F3D168696C6800226F
:1033B000002106E0036AE31A934224BF1A4601463D
:1033C000C0680028F6D111B10846FFF757FB00F09E
:1033D0005EF8040033D10920FFF7A3FF00F057F88F
:1033E00004002CD10820FFF79CFF00F050F80400E7
:1033F00025D1802EA8BF7F2001DA30001CD0421ECC
:103400002869D2B20023002110E0447D944207DBFA
:103410000BD16F68D0F820C0A7EB0C079F4204D3F4
:103420006968036ACB1A01462246C0680028ECD1BD
:1034300011B10846FFF722FB00F029F8044624B337
:103440009C21204604F0AEF904F1480066754FF463
:10345000866181834FF40662628522854FF406738C
:10346000FF22E27263860622A4F84020E28701234D
:103470004FF0FF32228603806A6822626B78B84A76
:10348000A3774180C264B749C1632046F2BD0120E1
:10349000FEF75CBC00E0000040206FE700B1016176
:1034A000704738B50C4668B100F11405287801283A
:1034B00007D100F02CF840F2DF7200F57671FEF7CC
:1034C000E7FB2C6731BD38B504000D460CD0207DDC
:1034D000012807D100F01BF840F2F37200F580617B
:1034E000FEF7D6FBC4F8805031BD38B50C4668B144
:1034F00000F114052878012807D100F008F840F6FB
:103500000D0200F58561FEF7C3FBEC6731BD904805
:1035100000F12803704718B1027D012A08BF8161BC
:10352000704770B504000D461646894809D1BDE8BC
:10353000704000F1280340F63D020FF28821FEF7AB
:10354000A7BB217D012907D100F1280340F63E02E7
:103550000FF28821FEF79CFBC4F88C50667770BD93
:103560000000000070E4000838B504000BD101B081
:10357000BDE8304076480FF2842100F1280340F680
:103580005102FEF785BB207D00281CBF0A280128B8
:1035900019D004F16805286918B1FEF71AFE002059
:1035A0002861E86810B1204600F0DEF84FF0FF30E7
:1035B00020866868FFF761FEA868FFF75EFE0020BE
:1035C0006860A860288031BD70B50C000546604E6B
:1035D00007D106F1280340F683020FF23C2100F0E8
:1035E0004AF83DB906F1280340F684020FF244215F
:1035F00000F041F82868A04203D1C068286006E0C6
:10360000084620B1C168A142FAD1E168C16000203A
:10361000E0602046FFF7A8FF207D0A2809D0012896
:1036200025D0608BC10704D5FFF7DEFD207D012882
:103630001DD0D4F86C0030B106F1280340F6930297
:1036400084A100F018F8D4F8700030B106F1280316
:1036500040F6940285A100F00EF8D4F8740030B161
:1036600006F1280340F6960287A100F004F8002036
:103670002075E08270BD3046FEF70ABB80B540B9C8
:10368000DFF8CC0086A100F1280340F6AF02FEF778
:10369000FFFA324A906951680818906102BD000033
:1036A000412B000838B505460C463AB9FFF72FFF05
:1036B00040F6C50200F58A61FEF7EAFA002C1CBF4D
:1036C000A08C002807D02828CCBF2838002080B242
:1036D000854288BF0546284632BD70B505000C46B8
:1036E00009D1FFF714FF4FF4106200F58F61FEF768
:1036F000CFFA00E0344644B120682968E668884281
:1037000004BF2046FFF7BAF9F4E770BD70B50400B6
:103710000D461CBF2068002818D0104E3169204685
:10372000FFF7DBFFB1682046FFF7D7FF002D1CBF76
:10373000286800280AD0F06806E0016822689142F3
:1037400004BF2B680360C0680028F6D170BD00007C
:10375000CCC90008B84C0A00F8240100700200200F
:1037600000DD6D00E332000810B50446606F18B14B
:10377000FFF783FD0020606710BD00007463705F79
:103780007365675F636F70793A20696E76616C6903
:1037900064207365670000007463705F7265637610
:1037A0005F6E756C6C3A20696E76616C696420702E
:1037B00063620000696E76616C6964207374617481
:1037C000650000007463705F706F6C6C3A20696E06
:1037D00076616C696420706362000000696E7661D6
:1037E0006C696420736F636B6574207374617465B6
:1037F00020666F7220706F6C6C0000007463705FE5
:103800007063625F70757267653A20696E76616C8D
:1038100069642070636200007463705F7063625F4C
:1038200072656D6F76653A20696E76616C696420A9
:10383000706362007463705F7063625F72656D6F66
:1038400076653A20696E76616C6964207063626C9B
:1038500069737400756E73656E74207365676D654A
:103860006E7473206C65616B696E6700756E616361
:103870006B6564207365676D656E7473206C65613C
:103880006B696E67000000006F6F73657120736570
:10389000676D656E7473206C65616B696E6700009F
:1038A0007463705F6E6578745F6973733A20696ED4
:1038B00076616C6964207063620000000102030499
:1038C00005060707070707070700000003060C188F
:1038D000306078000146000A40EA012080B270475B
:1038E0000146080200F47F000A0A40EA016002F47F
:1038F0007F42104340EA1160704730B50168846828
:103900004218416802EB5103C90703D54C4401E05A
:10391000491C08D19A4218BF12F9011B01D10C3081
:1039200030BD12F8015B002904F8015BF0D4491E98
:10393000F7D5EFE74AB1000011F8013B521E00F83D
:10394000013B1CBF11F8013BF8E7704780B503F05D
:1039500009FEC0F30D00DFF8D011A0F5804008800B
:1039600001BD2DE9F14F82B00E4640B9DFF8BC3100
:103970000FF2C411DFF8B801CF22FEF789F946B97A
:10398000DFF8AC010FF2C81100F14C03D022FEF7B2
:103990007FF9029841890829C0F2A8804468DFF8BD
:1039A000947139687869DFF8889100F0C3FC824629
:1039B0002088FFF78FFF83466088FFF78BFFDFF8D3
:1039C00068114C6800904FF0000800250FE0002CB3
:1039D0001CBF206800282CD0796911F1010F1FBF8E
:1039E000B26810401140884223D0A046E468002C01
:1039F00047D0608A00998842F7D13EB909F14C035B
:103A0000882209F1A0014846FEF742F9207A30B138
:103A1000796891F83020401EC0B29042E5D1BAF1E9
:103A2000000FD4D1002C1FBF20680028796988427C
:103A3000DBD1207C41070FD46DB1BAF1000F0BD060
:103A4000786910F1010F07D170682968814203D0AD
:103A50002268824200D12546A08A5845C5D16068B7
:103A600000281CBF39698842BFD1B8F1000F0ED0C1
:103A7000E168DFF8B400C8F80C104168E160446008
:103A800005E02C0003D17068796988422DD1029835
:103A90000821FEF76DFB58B9A4B1A5692DB3CDF887
:103AA00000B0029AE06907F110032146A84721E01F
:103AB000484600F14C034FF4B8720FF2B001FEF724
:103AC000E7F812E0BAF1000F0FD1387D00F0F000F6
:103AD000E0280AD0B7F90C100298083109B2FEF7B5
:103AE00076FB0298032102F048FB0298BDE8FE4FE6
:103AF000FEF76FBBBDE8F78F002800D1704730B5E7
:103B00000268002A18BF00290DD00A685AB1064B76
:103B10005A6806E013680468A34204BF0D68156084
:103B2000D268002AF6D130BD8C02002098D7000858
:103B30004CD700084C0B01207564705F696E70757E
:103B4000743A20696E76616C6964207062756600F3
:103B50007564705F696E7075743A20696E76616C19
:103B60006964206E657469660000000070627566A5
:103B70005F72656D6F76655F68656164657220660A
:103B800061696C65640A000038B504461820444336
:103B9000DFF80857285918B1FEF71BFB0020285101
:103BA0002A190021117531BD10B5002400F0D6F896
:103BB00062430A44107DF8B1508A401C508280B2A2
:103BC000B0F5967F05DA107D012806D1518A0429C7
:103BD00003DD2046FFF7D8FF0EE0032808BF0420CE
:103BE00002D0042802D10220107505E0012803D17B
:103BF0009068111D00F050FB641C0A2CD6DB10BD30
:103C00002DE9F24F84B000240A2603900292ADF809
:103C10000440B346B246B0460025DFF884960094CF
:103C20001821DFF87806694347180FFA8AF23C7DBD
:103C30000A2A04BF002CAA4637D0B4B3012C08D0FE
:103C400007DC09F168034FF4927209F1280100F0D2
:103C50000FFB039840B101687A68914204D1029841
:103C600080B1B96888420DD0012C15D13868002880
:103C7000788A09D0BDF80410884216D3A846ADF85A
:103C8000040012E028B266E0BDF8021088420CD3AE
:103C90002E46ADF8020008E007DD788ABDF8001076
:103CA000884224BFAB46ADF800006D1C0A2DB7DB7F
:103CB0009DF81000039C029D810705D40FFA8AF13C
:103CC0000A2904D1C00705D44FF0FF3043E00FFAB2
:103CD0008AFA2ADB0FFA8BF00A280FDA824600F004
:103CE0003DF812FB0AF2885888B109F1680340F2E6
:103CF0006D120FF2BC5100F0BBFA08E036B20A2E8A
:103D0000B2BFB2460FFA88FABAF10A0FDCDA5046AF
:103D1000FFF73AFFBAF10A0F07DB09F1680340F237
:103D200083120FF2A45100F0A3FA00F017F802FB7F
:103D30000AF28E18307D38B109F1680340F285121D
:103D400009F1C40100F094FA0CB120687060002100
:103D50007182B560504605B0BDE8F08F1822DFF8DB
:103D60003C15704738B5044600251822DFF82C159D
:103D70006A431144087D28B18868A04204BF2846E0
:103D8000FFF702FF6D1C0A2DEFDB31BD2DE9F84373
:103D900080460C0086B0DFF8080508D100F1680302
:103DA00040F28A220FF24451FDF772FF7CE0D8F80E
:103DB00004703988B1F5807F04BF3979062970D144
:103DC0007979042904BF798808296AD107F10E019D
:103DD00004AA0B68136007F1180105AA0B681360A9
:103DE000616821B18B4202D10125A94602E000257C
:103DF0004FF0020994F82C10062907D000F168034F
:103E000040F2A91200F1F001FDF742FF049898B3C7
:103E1000214600F08FFA78BB049800F0F000E0280B
:103E20002AD02246494604A8FFF7EAFE002823D4F8
:103E30001821DFF868244843161802203075B46052
:103E4000062207F1080106F10C00FFF773FD0020C0
:103E50007082D6F80090B9F1000F0DD030604FF4A9
:103E60000061009107F1080304F12602494600F0C1
:103E700058F84846FEF7ADF9F888B0F5807F10D1C4
:103E80007DB1022004A9231D0390029107F10802CD
:103E90000093019204F1260304F12601204600F06C
:103EA00083F94046FEF795F907B0BDE8F0837CB58D
:103EB00004460D461820DFF8E41342438E18327D85
:103EC000022A09DADFF8D80300F1680340F2EF2292
:103ED00000F59C71FDF7DCFE307D022816D1708A5A
:103EE00040F21D11884205DB311D204600F0D4F957
:103EF00060B909E0B0F5877F08DB06F10C02311DDF
:103F0000204600F0B8F908B9032030754FF400617D
:103F1000009106F10C0304F1260200F001F876BDD1
:103F20002946204603F090BC2DE9FF4104001746C6
:103F300088463E46DFF8685308D105F1680340F231
:103F40001E320FF2A8312846FDF7A2FEB8F1000F8D
:103F500008D105F1680340F21F320FF2A031284664
:103F6000FDF796FE47B905F168034FF448720FF26A
:103F70006C312846FDF78CFE3868214600F0DAF9EE
:103F800058B1C84B4FF40060009004F1260241463E
:103F9000FFF7C7FF04B0BDE8F081386800F0F0011A
:103FA000E02915D101208DF8040000215E228DF852
:103FB00005108DF8062001AB787800F07F008DF8B1
:103FC0000700B8788DF80800F8788DF80900D9E76F
:103FD000A168636801EA000219408A421EBF80B2EC
:103FE0004FF6A961884203D0E068E8B104F10C06FD
:103FF000AD4BDFF8A8C21A781827104678430CEBAF
:104000000001097D022912DB0CF108010958A142C7
:1040100001BF35680CF104010858854207D14146BB
:104020002046FFF744FFB5E76FF00300B2E7002238
:104030002046314607FB02F40CEB0406367D022EC7
:104040000ADB0CF108052E59864201BF0D680CF100
:1040500004063459A54203D0521C0A2AEADB03E0C5
:104060001A704146D2B2DCE7424600F001F891E70F
:104070002DE9F84F82460D461446286851464FF008
:10408000FF3900F057F9CB46002738B9286800F00F
:10409000F001E02918BF002D00D010B96FF00F001B
:1040A0007CE0524601212846FFF7AAFD060048BFE2
:1040B00040B273D47F2EDFF8E88106D308F168039D
:1040C00040F2C13290A100F06BF8F6B200961821D0
:1040D000009A72484A438618307D18B9012737750F
:1040E000C6F808A0307D012808D007DC08F1680375
:1040F00040F2CF3208F5B47100F052F807B974B944
:104100002946504600F0C8F8002C834645D006D119
:1041100008F1680340F2E13278A100F041F8307D07
:1041200001280FDD009860494FF40062009208708A
:1041300006F10C030AF126022146504603F084FBE7
:1041400083462AE029D1254673A700E02D68FDB1FA
:1041500068892989884208D1286830B108F1680344
:1041600040F2F132394600F01BF8287B4106EDD5CC
:1041700022464FF420710E20FEF796F904465CB1FA
:10418000306808B1FEF725F834604FF0000B04E00A
:104190002046FEF780F8F2E7CB465846BDE8F28F9E
:1041A0004046FDF775BD00002DE9FC4704000E46B2
:1041B00092469846DFF8E89040F0078009F16803DE
:1041C00040F2574249A100F053F84FF420721C21ED
:1041D0000E20FDF764FE050008BF4FF0FF3045D00C
:1041E00068891C2807DA09F1680340F2634209F57F
:1041F000C87100F03DF80D986F68FFF76BFBF88011
:1042000094F82C00062807D009F1680340F26A42AE
:1042100009F5E27100F02CF80622414607F108008A
:10422000FFF788FB0B99062207F11200FFF782FBCC
:104230000A98026807F10E0153460A6007F1180157
:104240000C9802680A6008204FF480723A807880E7
:10425000062139710420787140F60601009132463A
:10426000FFF75EFE2846FDF7B4FF0020BDE8F687A5
:104270004846FDF70DBD38B584B001230393029184
:10428000051D0A4C0194009500F1260300F126015A
:10429000FFF78AFF05B030BD024AECE7F8050120C0
:1042A00098D30008B4780008DE0B012068E4000809
:1042B0006172705F7461626C655B695D2E71203D37
:1042C0003D204E554C4C000069203C204152505F2F
:1042D0005441424C455F53495A450000697061643E
:1042E000647220213D204E554C4C00006E6574696F
:1042F0006620213D204E554C4C0000007120213D90
:10430000204E554C4C00000074797065206F766526
:1043100072666C6F770000006E6F207061636B6572
:10432000742071756575657320616C6C6F77656459
:1043300021000000C24318BF002810D091F82D20A2
:1043400093070ED54A6890420BD0896801EA0003B2
:104350000A40934202BFC9430840884201D101206C
:10436000704700207047102220492DE9FC41006869
:1043700001900023884601AD04200A2495F800C06E
:1043800000275FFA8CFCE6469CFBF4FC04FB1CEE69
:10439000FEB20EF1300E0DF806E07F1C5FFA8CF6CF
:1043A000002EEED100262E7008E01E46731C9642A9
:1043B00014DAFEB21DF8066008F8016B3E46771E5F
:1043C000F6B2002EF1D11F467B1C974206DA6D1C17
:1043D0002E27401E08F8017BD0D101E0002002E02A
:1043E00008F8010C0846BDE8F6810000640B0120C6
:1043F00038B5DFF82C074468002503E0401EE0775D
:1044000025460C464CB1E07F21680028F6D12046B5
:104410000C46294600F002F8F4E731BD2DE9F84FCB
:1044200007460D460026BD42DFF8F88606D108F1A2
:104430002803AB220FF2F46100F05EF8002D1CBFE0
:104440002868B84206D008F12803AD220FF2E861CF
:1044500000F052F87C680FF2F46961688888D0B97E
:10446000086878601422606807F10801FFF762FAB3
:104470000121204601F084FE2046FDF703FF064699
:10448000B6F5803F04DB08F12803BC2200F033F8C6
:104490002046FDF79EFE7C6815E06068A246046831
:1044A0005046FDF7EFFE83460BEB0600B0F5803F6C
:1044B00004DB08F12803CC2200F01DF850465E44CE
:1044C000FDF787FEB6B2002CE7D12946384600F04A
:1044D0004AF8DFF84C462088B04206DA08F1280393
:1044E000D22208F1840100F007F82088801B208088
:1044F0003046BDE8F28F49464046FDF7C9BB2DE97D
:10450000F041044688460023DFF8146671680020F5
:10451000002786468446002917E0E2684D699542E7
:1045200002BF22698D69954202BF8A89A588AA4285
:1045300007D07F1C18B1C27FCD7FAA4201D30846A5
:10454000F4460A6802B18E461100E6D120B11D463C
:104550006146FFF763FF4319434501DA012FD5DCBC
:104560001846BDE8F08138B50546DFF8B4050C46BD
:104570004168A94202D12A6842600CE04CB9DFF8D8
:10458000A4050FF2E85100F1280340F24512FDF7AF
:104590007FFB2A6822602946BDE834400420FDF7ED
:1045A0000FBC00002DE9F04F804685B0D8F80450CC
:1045B0002878800000F03C00142852D1E888FFF7EA
:1045C00089F9C4006888FFF785F92978890001F026
:1045D0003C01884245DBA0EB010A4046FDF752FE54
:1045E000DFF83C758146388848440A2809DD494689
:1045F0002846FFF784FF002833D0388848440A282B
:104600002FDC7E680CE0E8687169814202BF28698E
:10461000B169814202BFB089A988884222D0366838
:10462000002EF0D10420FDF791FB06000CD1494685
:104630002846FFF764FF484504DB0420FDF786FBAE
:10464000060001D100260BE02021304603F0AAF835
:104650000F20F0771422796831607E6000F053F902
:104660006EB946E1E888FFF735F9C00407D1F08953
:10467000FFF730F9C00402D0142200F044F9ED88AD
:104680002D066D0FA24405F00105ADF804A095F0CC
:104690000105DFF890A409D0BDF80400A4B2A0423F
:1046A00015DB4FF6EC71884280F20A8100220492F9
:1046B00001210391D8F8042000925088FFF70AF9ED
:1046C000044600980178890001F03C0B5C45C0F27B
:1046D000F780C088FFF7FEF8D8F8041000910B4669
:1046E00000211960C200009B9A80A4180099A4EBD5
:1046F0000B04CC8090B2A4B284423DD37068049C79
:10470000DDF80CB0029003460EE093B200F0D880C2
:10471000B0F806C063452FD3002C1EBFE3888B4240
:104720004FF0000B036804465BB3586881881FFA9A
:1047300082FC8C45E9D200990B60CCB100998A8843
:10474000E1888A4221BF80880099CA88904213D3A9
:10475000C4F800800099E0888A88904218BF4FF022
:10476000000B45BBB07FC10725D44FF0000B53E0D1
:1047700000998088CA889042C0F0A280C6F8048060
:10478000EFE764B1E08892B28242E1D20AF12803F5
:104790004FF4DB720FF2F03100F0B2F8D8E7029874
:1047A0000028EBD00AF1280340F2BF120AF1A80159
:1047B00000F0A6F8E2E7BBF1000F2AD0716831B330
:1047C0004A68908818BB009A13461446186806E099
:1047D0004468D088A288904219D1206822460028D7
:1047E000F6D14868A04207D10AF1280340F2E1124D
:1047F0000FF2B43100F084F8206850B10AF12803B8
:1048000040F2E3120AF1E00100F07AF801E04FF023
:10481000000B1BF1010F53D038884844388035B164
:10482000B17FBDF80400B08341F00101B177BBF165
:10483000010F61D1B08B00F11408706841680C68F9
:104840000D46142206F108012846FFF773F81FFAF7
:1048500088F0FFF73FF868800020E880688175687D
:104860000BE0D4F8048014212046FDF781FC21469A
:104870002846FDF721FDD8F80040002CF1D17968D9
:104880008E4202D1002105E0014600291CBF0868C4
:10489000B042F9D13046FFF766FE2846FDF7F2FC3C
:1048A00004463888A04206DA0AF1280340F29B2227
:1048B000C1A100F025F83888041B3C8028461CE084
:1048C0003EB90AF128034FF42A7200BFC1A100F0DB
:1048D00017F8706868B97868864206D00AF128032C
:1048E00040F2AB22BEA100F00BF800213046FFF7EA
:1048F0003AFE4046FDF76DFC002005B0BDE8F08FA4
:104900005046FDF7C5B9294606F10800FFF712B871
:1049100010B5040007D18348B9A100F128034FF472
:104920003172FDF7B5F92146BDE810400520FDF7CD
:1049300047BA000010B5040007D17A48B3A100F1CE
:10494000280340F2CE22FDF7A3F9606908B1FDF714
:1049500040FC2046BDE81040DAE700002DE9F24FA8
:104960008AB00646888C1438811000EB5170C01054
:10497000079000277068069014250178890001F0DF
:104980003C01142914466FF005090DD17089DFF838
:1049900094B1142880F20A800BF128034FF43F727F
:1049A0009DA15846FDF774F94846B1E00698C088C5
:1049B000FEF790FFC0F30C02089005923089079A29
:1049C0000994A0F1140189B20391D100ADF80A1045
:1049D00033E00A98818C03987D191439ADB2814275
:1049E000B4BF002101210598C0F30C0011B1089952
:1049F0008A0401D540F40050FEF76CFF0499C8808A
:104A0000BDF80800143080B2FEF764FF04994880B6
:104A100000200499488141460A98099A4469A047B0
:104A20004046FDF7D6FB0399BDF80800091A89B284
:104A3000039107980599411805910398002867D0BC
:104A4000BDF80A108842B4BFADF80800ADF80810F0
:104A50004FF4207214210E20FDF721FA040055D0E6
:104A60006089142880F208800BF1280340F2253277
:104A700070A15846FDF70CF9069960681422FEF7FC
:104A800059FF60680490A046BDF8080004461FE086
:104A9000B8B201904B467068401900904122B9B2FB
:104AA0000020FDF7CBFA5FEA000A34D03046FDF76C
:104AB000F2FB1D48C9F81000C9F814605146404681
:104AC000FDF7FAFBE41BA4B2002C02D036680025E7
:104AD000002C3FF47EAF7089471B07DA0BF12803E7
:104AE00040F22D325BA15846FDF7D2F8B8B28442AD
:104AF000B8BF2746B8B20028E8D00520FDF726F950
:104B00005FEA0009C4D14046FDF763FB4FF0FF3078
:104B10000BB0BDE8F08F4846FFF7FAFEF3E7000060
:104B20009C0B012028DB000835490008707265766F
:104B300020213D2069707200707265762D3E6E6591
:104B40007874203D3D2069707200000070627566C7
:104B5000735F6672656564202B20636C656E203C14
:104B60003D203078666666660000000073616E69FD
:104B7000747920636865636B206C696E6B65642073
:104B80006C69737400000000636865636B20667273
:104B900061676D656E747320646F6E2774206F7625
:104BA00065726C617000000073616E6974792063D6
:104BB0006865636B0000000069705F726561737304
:104BC0005F70627566636F756E74203E3D20636C26
:104BD000656E000069707220213D204E554C4C00DE
:104BE0006E6F74206669727374616C74686F756738
:104BF00068206A75737420656E71756575656400EB
:104C00007020213D204E554C4C00000070637220F6
:104C1000213D204E554C4C006970345F66726167CF
:104C200028293A207062756620746F6F2073686F50
:104C30007274000074686973206E65656473206126
:104C4000207062756620696E206F6E6520706965E0
:104C500063652100702D3E6C656E203E3D20706FB7
:104C6000666600002DE9F84F050084B0DFF8B89AB9
:104C700006D109F1280383220FF6980100F06CFD9C
:104C8000DFF8A86A686830626989142940DBDFF8B8
:104C9000A0AADAF80010DAF81400FFF74BFB00289E
:104CA00040F02E849AF8140000F0F000E02800F0A4
:104CB0002784306A00F04CFD000B81001429A4BF4A
:104CC0002889884224DBA1F114000022B08272629C
:104CD0006B898B4204DBF0822846FDF749FA36E007
:104CE000286830B909F12803C2220FF6400100F00C
:104CF00033FD14212846FDF73BFA28466989B48A1A
:104D0000F182641AFDF734FA28684189A4B2A142FD
:104D1000C0F2F683426872622146FDF729FA2989BA
:104D200068890C1B2C8130B109F12803DF220FF6B2
:104D30000C0100F011FD296828890A89904206D0EB
:104D400009F12803E0220FF6000100F005FD306AAA
:104D50000088FEF7BFFD316A08804888FEF7BAFD7B
:104D6000316A488000F0F0FC316A4860B062316A14
:104D70008868FEF7B5FD316A8860F062306AC089E4
:104D8000FEF7A8FD316AC88101F07CF800F03F0011
:104D9000307010F0030F2989B18305D0481CB0830F
:104DA00080B28842C0F0AC83DFF88889D8F8004030
:104DB000002701E02746E468002C00F07E80207D7B
:104DC00030B909F12803FB2209F1800100F0C4FC8D
:104DD000207D0A2806D109F12803FC2209F1A80147
:104DE00000F0BAFC207D012806D109F12803FD223C
:104DF00009F1D40100F0B0FC207A10B100F0DBFB27
:104E0000D8D1306A218B0288914202BFE18A408862
:104E10008142CFD16168DAF81000814202BF216877
:104E2000DAF814008142C5D1E168A14207D109F145
:104E3000280340F20D1209F1FC0100F08DFC37B19E
:104E4000E068F860D8F80010E160C8F80040E06859
:104E5000A04207D109F1280340F2151209F5947117
:104E600000F07AFC002070602989306AB1813061DD
:104E70000021316371707183B5603078010703D50B
:104E8000687B40F00100687304F14407786B0028E8
:104E90000AD02046FEF7B0F910F10D0F06D0786B5E
:104EA00000281CBFB08B002800F0F980608D00281E
:104EB00002D12046FCF7F2F902E3DFF87C0804682F
:104EC00000E0E468002C4AD0207D0A2807D009F1D0
:104ED000280340F21F1209F5AA7100F03DFC207A68
:104EE00010B100F068FBECD1306A218B0388994245
:104EF00002BF4788E08AB842E3D16168DAF810005F
:104F0000814202BF2168DAF814008142D9D1327897
:104F10005107204670D4B18B940713D5B46A426A06
:104F2000B4EB020E14D4028DAEEB0202002A0FDCA9
:104F3000029301970AF1100300936218F16A0AF1D3
:104F40001403DBE2D20703D5DFF8F0371C680462F4
:104F5000002951D0418B41F0020141839CE0DFF8F0
:104F6000E077336A3868002201E00246C068002812
:104F700000F0B082017A39B1DAF8044094F8304098
:104F8000491EC9B2A142F0D1B3F802E0C18A71450D
:104F9000EBD10168DAF81440A14218BF002818BF0D
:104FA0000029E2D1044622B1E068D0603968E160AE
:104FB0003C60307841071FD4C2060ED51888029095
:104FC0000AF110010091CDF804E0B06AB18B4218EB
:104FD000F16A0AF11403204690E280070CD5607D47
:104FE000FEF7CCF9070008D1A369002B04D0206993
:104FF0004FF0FF320021984782E2DAF8140038605F
:105000000322DAF81010796007F1600AE08AF8826A
:10501000316A088838833A75B06A401C7862F86251
:105020003846FEF72BFBB86538657864F865B06ADA
:10503000401E786520693861CAF81C40607A00F02B
:105040000C007872207A3872D8F80010F960C8F82D
:10505000007002F0E9FADFF8EC160120087038461B
:1050600000F026FF306AC089AAF80000AAF8020002
:10507000381DFCF793FC0146788E3A1DFEF712FBB3
:10508000788612213846FBF71BFD20B100213846F7
:10509000FDF77AFC34E23846FBF7ABFD30E23078BE
:1050A0007463410725D5207D022804D1F06AF96890
:1050B000884216D10CE0616AB26A8A4212D138B9CC
:1050C00009F128034FF44E720FF29C4100F044FBAB
:1050D000707840F0080070704FF6FE70618B0140F0
:1050E00061837FE1511AFCD4208D091A0029F8DC74
:1050F0005DE1800704D5207D022818BF0328F7D181
:10510000A07EC10603D4DFF834060268226204F1EF
:105110009A00002141700170204600F0C9FEB16A7A
:10512000B08B3378326ADFF810B60818039003F0BA
:10513000100094F814E0AEF1020EBEF1070F41F238
:105140001C1519D8DFE81EF0D20074006E002C0088
:1051500026006E001900080000F02BFA3078C10616
:105160000AD5F06AF968884204BFB86A002803D1FA
:10517000707840F01000707034E100F01AFA307866
:10518000C106F9D5F06AF968884204BFB86A0028F8
:10519000F2D117E000F00DFA70788106ECD50FE03F
:1051A00000F007FA72783078F16A930600F0100088
:1051B0002ED548B3FA68914204BFB86A002823D1BB
:1051C00000F0F2F92046FEF7CFF9D8F80000A0422F
:1051D00004D1C068C8F8000006E0084620B1C168E4
:1051E000A142FAD1E168C1600020DFF85825E060F3
:1051F000012111700A202075DBF80010E160CBF866
:10520000004002F011FAEDE000F0CEF9082153E081
:105210000028F8D0FA68914204BFB86A002806D185
:10522000062149E000F0C5F97078810641D4D9E043
:10523000002851D0F16A3B68CB1A5B1E3ED4F86857
:10524000081A00283ADC04212175B86B002816D012
:10525000806938B909F128034FF46A720FF22831D6
:1052600000F07AFAB86B8369002B08D0206900221D
:105270002146984720B110F10D0F00F02181E8E0A0
:1052800000F097F9708B08B1401E7083608E420069
:10529000AA428CBF13462B468100994238BF80003A
:1052A00003D3AA428CBF40002846B880707881069C
:1052B00003D500F079F90721217593E01088029059
:1052C0000AF110035288019200930AF11403039A21
:1052D0002046FBF79FFF85E09807FCD5606A491CD4
:1052E000814202D12046FBF76EFE7BE003F0120301
:1052F000122B01BFF36A5B1ED7F800C0634559D17A
:10530000481C6062E062491EF06A3860D089B88348
:10531000F883396104202075201DFCF73FFB01460E
:10532000608E221DFEF7BEF942006086AA428CBF45
:1053300013462B468100994238BF800003D3AA420E
:105340008CBF40002846B880788C38B909F1280312
:105350004FF45B720FF6044100F0FEF9788C411EA9
:105360007984FD6A65B9BD6A3DB909F128034FF436
:105370005D720FF6004100F0EFF92868B86201E0B5
:105380002968F9622846FDF781FFF86A00280EBFF8
:105390004FF0FF30002084F8420020867B6C33B150
:1053A000206900222146984710F10D0F2AD000F005
:1053B000FBF817E0B0B1108802900AF1140351888D
:1053C00001910AF1100200922046039AF16AFBF75C
:1053D00021FF94F84200062804DA002121862046A5
:1053E000FBF7DBFD707801070DD5FA6C1AB1206967
:1053F0006FF00D01904721464046FEF7E5F8204644
:10540000FDF736F95CE0728B4AB1FB6B2BB120697A
:105410002146984710F10D0F52D00020708320468E
:1054200000F0D1F800284BD1306B6FF00C0A28B394
:10543000786B38B109F128034FF4F3720FF600319D
:1054400000F08AF9A07E326BC10606D51046FCF743
:10545000C0FE2046FDF712FB32E03D6C25B120690D
:1054600000232146A84704E0002321460020FDF741
:1054700038FF504524D008B1306B786370788106CE
:1054800015D5786B20B1417B41F0200141730EE0CE
:10549000208DB0F5066F1CBF401C20853D6C35B1DA
:1054A0002069002300222146A847504508D000204B
:1054B0007063204600F087F810B92046FBF799FB8F
:1054C000002070633063B06800B3FCF782FE0020F8
:1054D000B0601BE09889FEF7FDF9400710D4306AF0
:1054E000018802910AF110024088B18B019000926C
:1054F0000AF11403B06A4218F16A0020FBF78AFE31
:10550000284605B0BDE8F04FFCF763BE05B0BDE826
:10551000F08F00007463705F696E7075743A206973
:105520006E76616C6964207062756600702D3E6EE7
:1055300065787420213D204E554C4C00702D3E6CFA
:10554000656E203D3D203000702D3E746F745F6CA1
:10555000656E203D3D20702D3E6E6578742D3E7445
:105560006F745F6C656E00007463705F696E707558
:10557000743A207063622D3E737461746520213D1E
:1055800020434C4F534544007063622D3E6C697359
:1055900074656E65722D3E61636365707420213D94
:1055A000204E554C4C000000608B40F002006083A0
:1055B00070472046D3E0DAF8041091F83020401EFE
:1055C000C0B29042704710B5040008D1564800F1AF
:1055D000280340F25A2200F5C271FCF759FB534AE6
:1055E0005078C10612D5A07EC10606D4D4F890200A
:1055F0001AB120696FF00E01904721464D48FDF722
:10560000E3FF2046FDF734F8012010BD002010BD57
:1056100070B505000C4608D1434800F1280340F25C
:105620001F4200F5D671FCF733FBE86800F090F8F4
:10563000C00713D52046FDF720FE002424E000F02B
:1056400087F8C00706D50120FEF744F9E9688A8982
:105650001043888120462468FDF718FEA4B1E06855
:1056600032494368896A2A8926898A18D31A9B1B7A
:10567000E5D54368D21A002A06DD42686868511AE7
:10568000298189B2FCF7F6FC2C6070BD2DE9F0474A
:1056900080460C461D46DFF89090244F002C3FD0EA
:1056A000E16800F051F80646E06800F051F810F0AB
:1056B000030018BF01202189FA6A71184018801A66
:1056C00001282DDA264624687068FCF7DBFD824647
:1056D000B8F86600504507DA09F1280340F257424E
:1056E00009F5EA7100F038F8B8F86600A0EB0A0096
:1056F000A8F86600798B3089411879833046FDF728
:10570000C5FDB8F866000028C8D0002CC6D13DB948
:105710000FF6740109F1280340F2624200F01CF810
:105720002046BDE8F087000078CE00089C0A0120E2
:105730004C0B012080020020840200207402002013
:105740007C020020700200204868FEF7C9B8286972
:105750008089FEF7BFB851464846FCF799BA2DE953
:10576000F0470600DFF8CC9707D109F1280340F293
:105770007B420FF63401FFF7EFFF307D042807DA94
:1057800009F1280340F27C420FF63801FFF7E4FFED
:10579000DFF8A4572878C10606F144074FF6FF78D2
:1057A00040F10881D7F810E0A86AD7F814C0BC8B84
:1057B0002B6AE96ABEEB000A0CEB040209D402D1A1
:1057C000BCEB010E05D48C450ED1B3F80EC0644578
:1057D0000AD2DB89B6F862C01C46644538BF64460D
:1057E000FC83BB833861796106F142033C68081B86
:1057F000002828DCA88B002801BF7869B7F81CC0F6
:10580000604490421CD1B6F93000002818D48C4274
:1058100016D15878411CCAB2904238BF5970587896
:10582000042807DBB988728E521893B28B4238BFB6
:105830004246BA80032802DB3046FBF7FEFB96E0C7
:105840000020587093E0401E00F18E80F868081A1E
:10585000002800F38980728B540707D54FF6FB7040
:10586000024072830020FA88BA80F88400221A70FD
:10587000B6F93E40B6F93C20B88804EBE204A6F83D
:10588000404000243A685C7039608A1A317D0429EE
:105890001ADBFC88F98CA04230D2738B1C054CBFFC
:1058A00001230223748E9E461EFB04FE1FFA82FC17
:1058B0001FFA8EFEF44524BF1A466243121893B2B3
:1058C000834219D31046F984B880BB6AF96A0FF293
:1058D00010723046FFF7DAFE0346FB623046B96AC3
:1058E0000FF20472FFF7D2FEB862F86A00280CBF0C
:1058F0004FF0FF30002011E04046E4E7521893B229
:105900008B422CBF114641468AB28242DBD3728E53
:105910001218091A93B28342EED3D3E730860020DF
:105920003077B86A08B90021B9843A8C698B8A1833
:105930003A84728B11051AD5F96A41B970B1C16800
:10594000FFF702FFB968081A002810DC06E0C968F2
:10595000FFF7FAFEB968081A002808DC718B4FF2CD
:10596000FF700140718302E03046FBF797FC706BDB
:1059700000B3B26BE96A521A1CD5DFF8C025136870
:10598000B6F93C10181A00B2A0EBE100411804B2BD
:10599000002C48BF4042B1870904B6F93E20801868
:1059A000A0EBA200F087C91401FA80F0A6F840002D
:1059B00000217163A88BA96A002800F04782327D1C
:1059C000072A80F24382726AA2EB010ABAF101034C
:1059D00043D4AAEB0000401C00283EDCAC683CB974
:1059E00009F1280340F294520FF20461FFF7B4FE6C
:1059F000C24507D309F1280340F295520FF2006126
:105A0000FFF7AAFEA86801891FFA8AFA514507DA4A
:105A100009F1280340F297520FF2F451FFF79CFE70
:105A2000A889A0EB0A00A881A9680889A0EB0A0050
:105A300007E0AAEB01011FFA81FA002120816181B0
:105A4000246861895145F4DB51462046FCF790FB00
:105A5000706AA8622969486005E0891A03D5708BCD
:105A600040F002007083716AAA6A531A00F1E9815A
:105A7000308D1B1A5B1C002B00F3E381914209F56A
:105A8000FE7A40F02A81FFF762FE10F0030018BF93
:105A9000012000F0E8F980B2328D82422FD2FFF768
:105AA00056FEC00708D500F0ECF900F03E00FDF707
:105AB00011FF2A6900F0DBF9308DA88100F0E1F9CF
:105AC000800702D5A9894144A981A989A868FCF762
:105AD000D1FAFFF73CFE10F0030018BF012000F0E0
