:020000040800F2
:10000000A0250020E5350008AD350008AF35000813
:10001000B1350008B3350008B53500080000000010
:10002000000000000000000000000000B7350008DC
:10003000B935000800000000BB350008BD350008D8
:10004000FD350008013600080536000809360008AD
:100050000D3600081136000815360008193600085C
:100060001D3600082136000825360008293600080C
:100070002D360008313600083536000839360008BC
:100080003D3600084136000845360008493600086C
:100090004D3600085136000855360008593600081C
:1000A0005D360008613600086536000869360008CC
:1000B0006D3600087136000875360008793600087C
:1000C0007D3600088136000885360008893600082C
:1000D0008D360008913600089536000899360008DC
:1000E0009D360008A1360008A5360008A93600088C
:1000F000AD360008B1360008B5360008B93600083C
:10010000BD360008C1360008C5360008C9360008EB
:10011000CD360008D1360008D5360008D93600089B
:10012000DD360008E1360008E5360008E93600084B
:10013000ED360008F1360008F5360008F9360008FB
:10014000FD360008013700080537000809370008A8
:100150000D37000811370008153700081937000857
:100160001D37000821370008253700082937000807
:100170002D3700083137000835370008000000002F
:10018000393700083D3700084178007807E0C1782A
:10019000827842EA01224178007841EA022140EA6D
:1001A000012070470170090A417070470170090A07
:1001B0004170090A8170090AC17070472AB111F8AB
:1001C000013B00F8013B521EF9D17047521E00F866
:1001D000011BFBD17047F0B5024600230024DFF875
:1001E000205A05EB0416306880B11768B84202BF88
:1001F00070689768B84202BFB0685669B04206D1CD
:10020000022C0AD193B9022905D10FE00123641C05
:10021000022CE6D3F4E71220F0BD29B905EB041057
:100220008289B2F5807F01D11020F0BD0020F0BDA1
:10023000F0B5024694681568DFF8C4690023180118
:100240003758AF4202BF371D3F58A74201BF06F1E2
:10025000080738585769B84202D05B1C012BEED909
:10026000022B11D13068002300281EBF0123306902
:1002700000280ED1180137183D607C6006F1080493
:10028000526922500020B88106EB0312908929B1EF
:1002900008B10020F0BD4FF4807000E0401C908158
:1002A000581CF0BD10B5401E022814D20001DFF822
:1002B00050190A189389B3F5807F01D01C0002D130
:1002C0000023938103E05B1E93819BB20BB9002254
:1002D0000A50002010BD022010BD30B50021DFF80B
:1002E000202900250B01D458844208BFD550491C51
:1002F0000129F7D930BDF8B505460024E878A0B14A
:100300002E6B00F014F808B101240EE0E870696A61
:10031000E869711A814208D2AF7804E0E869861969
:1003200000F005F87F1E012FF8D82046F2BD68784E
:100330000123324605F1340101F050B970B504468D
:100340000D46206B0026854210D02046FFF7D3FFD4
:1003500006000BD1607801232A4604F1340101F034
:1003600037F910B14FF0FF3501262563304670BDD7
:1003700038B50446FFF7BFFF050039D120780328C0
:1003800004BF207901282CD1A289002104F1340076
:10039000FFF71CFF4AF6552104F23220FFF702FF57
:1003A000DFF87C1B04F13400FFF700FFDFF8741B5B
:1003B00004F50670FFF7FAFE616904F50770FFF7B0
:1003C000F5FE216904F50870FFF7F0FE226A6078F7
:1003D000521C2263012304F1340101F0FFF80020D4
:1003E000207100226078002101F006F900B101259A
:1003F000284632BD8269891E921E914201D3002097
:1004000070474289C06A02FB0101084670472DE926
:10041000F0410C460568022C4DD3A86984424AD2AB
:10042000297801294FF0FF3604D044D3032936D070
:100430002AD340E0A889696A04EB540800F022FD41
:10044000002839D1A88908F10107B8FBF0F100FBB9
:10045000118805F13402696A12F80880B7FBF0F0E0
:1004600000F012FD002827D1A889B7FBF0F100FBAE
:10047000117705F13400C25D48EA0226E00754BF57
:10048000C6F30B06360917E000F0AFF8A0B9A8894B
:10049000640000F014F8FFF777FE06460CE000F069
:1004A0009CF848B9A889A40000F009F8FFF76FFE8E
:1004B00020F0704600E001263046BDE8F081B4FB34
:1004C000F0F100FB114405F13400204470472DE9A0
:1004D000F8430C460227022C054616467AD3A86933
:1004E000844277D22978012904D073D3032950D0CC
:1004F0003CD36FE0A889696A04EB5409B9FBF0F0BA
:1005000000F0C2FC0028074664D1A88909F101085F
:10051000B9FBF0F100FB119905F134004844E20702
:1005200043BF017801F00F0141EA06113146017025
:100530000120E870A889696A00F0A4FC0028074639
:1005400048D1A889B8FBF0F100FB118805F134000F
:100550004044E20748BF360906D40178360A01F064
:10056000F00106F00F060E43067031E000F03DF892
:10057000074678BBA8896400B4FBF0F200FB124484
:1005800005F13400B1B22044FFF70CFE0121E970FF
:1005900020E000F022F80746E0B9A889A400B4FBE7
:1005A000F0F100FB114005F134021044FFF7EFFDBC
:1005B000AA8926F0704600F0704040EA0601B4FBBC
:1005C000F2F002FB104405F134021019FFF7EEFDC2
:1005D0000120E8703846BDE8F283AA89696A92086A
:1005E000B4FBF2F041182846A8E6AA89696A5208C5
:1005F000B4FBF2F041182846A0E6F8B505460F46D0
:100600002E68012F114628D9B069874225D229B119
:100610004FF0FF3200F07AF8010023D13946284626
:10062000FFF7F5FE04001CD0012C16D014F1010FC9
:1006300015D0002200F069F8010013D1B06971698A
:10064000821E914205D2491C7161317941F001014C
:10065000317127468742E1D303E00220F2BD012039
:10066000F2BD0020F2BD2DE9F04180460C00D8F823
:10067000006006D1356915B1B06985420ED30125F8
:100680000CE0FFF7C4FE012898BF01203BD910F110
:10069000010F38D0B169884235D325462F46B0695D
:1006A0007F1C874202D30227012D24D939464046B8
:1006B000FFF7ADFE38B1012818BF10F1010F22D0AD
:1006C000AF42ECD117E04FF0FF3200F01EF8A0B9B6
:1006D00024B13A46214600F019F870B93761B16982
:1006E0007069891E814224BF401E7061307940F0DC
:1006F0000100307106E0002005E001280CBF4FF03A
:10070000FF3701273846BDE8F08139463046DEE63E
:1007100010B50368C06A9C89021D5889B1FBF4F1C9
:10072000B1FBF0F003E0884206D3401A08321168AA
:100730000029F8D1002010BD5168081810BD2DE91E
:10074000F04105460E462F68B6F5001F2ED216F072
:100750001F0F2BD1AC686E6154B93878032801DBC8
:10076000BC6A2CB93989700988421FD2B86A19E06D
:100770007989B88900FB01F806E0022C16D3B86924
:10078000844213D2A6EB08064645214608D32846E4
:10079000FFF73DFE044614F1010FEED1012013E0F6
:1007A00000F087F8E861AC61E86908B902200BE065
:1007B000B989B6FBF1F21018E86101FB1266B819AD
:1007C00000F1340129620020BDE8F0812DE9F041FB
:1007D00006460C4675693768F169203519B3B5F5D9
:1007E000001F20D2B88900F0B1FC54D1491CF1613E
:1007F000B16921B93989680988424CD311E07889F7
:10080000401E024247D13046FFF701FE8046B8F154
:10081000010F16D918F1010F34D0B869804535D3CE
:100820001CB90020F061042040E0B1693046FFF7B8
:100830001AFF5FEA000808BF072037D0B8F1010FA0
:1008400001D1022032E018F1010F1BD03846FFF72A
:1008500052FDB8B9BA89002107F13400FFF7B6FCA0
:1008600000F026F8002402E0386B641C401C7989F3
:100870008C4209D201223863FA703846FFF73BFDFB
:100880000028F1D0012011E0041B3C63C6F8188059
:1008900000F00EF8F0617561B889B5FBF0F100FB6E
:1008A000115507F13400401930620020BDE8F08195
:1008B000414638469EE570B504460D4605F11A00DE
:1008C000FFF762FC21780329064605D105F11400E3
:1008D000FFF75AFC46EA0046304670BD70B5044644
:1008E0000D461646B1B205F11A00FFF75BFC217800
:1008F000032905D1310C05F11400BDE8704051E425
:1009000070BDF8B5054600212C68FFF718FF0700F9
:1009100016D10026E9692046FFF710FD07000FD128
:10092000286A0078E5281CBF0028002602D1761C22
:10093000012E08D001212846FFF748FF0700E9D023
:10094000042F08BF0727380012D1E9692046FFF7B6
:10095000F5FC07000CD1286A20220021FFF736FCA5
:10096000286A0B2205F12401FFF728FC0120E07022
:100970003846F2BD70B50C46054600216172E86943
:1009800048B3002004F109062A6A525C491C202A57
:100990000BD0052A08BFE522092902D12E233354A2
:1009A000401C04F109031A54401C0B29ECD304F138
:1009B000090200211154286AC17A21722A6A02F1BF
:1009C0001C00FFF7E4FB2060286A1630FFF7DFFB0E
:1009D000E080000CA08070BD2DE9F84304460F466E
:1009E000D4F8008000E07F1C38782F2818BF5C28DE
:1009F000F9D00020A06004F12406397820292ED2F5
:100A00008022F27200212046FFF799FE024693E011
:100A10003278E52A04BF05203070202DCCBF00209D
:100A20000420F072002125682046FFF788FE0200AE
:100A300072D0F07A11007AD140077DD4A179C8062E
:100A400079D56069B8F80C10B0FBF1F201FB120027
:100A5000404400F134014046FFF72DFFA0600B2217
:100A600020213046FFF7B2FB0021002208230FF2BD
:100A7000D00CDFF8C4E60FE009F1010999F8000095
:100A8000002818BFA842F7D140BBA5F161001A2881
:100A900038BF203D7554491CBD5C521C202D1ADD09
:100AA0002F2D18BF5C2D11D02E2D09D0994215D2B3
:100AB000802DA4BF0EEB050010F8805CE146DDE759
:100AC0000B2B0BD008210B23E6E7521CB85C2F2818
:100AD00018BF5C28F9D00029174499D106222BE0D1
:100AE000C87A236A00F03F00A071D87A01070DD4BC
:100AF000B4460B2113F801EB1CF8010B491EAEEBB9
:100B0000000001D00028F5D0002892D00021204616
:100B1000FFF75CFE02008CD1E16900F0B6F902003B
:100B200087D1216A08780028DAD1042281E7042AD3
:100B300002D1400700D405221046BDE8F283000030
:100B4000222A2B2C3A3B3C3D3E3F5B5D7C7F0000E4
:100B500003464FF0FF301A68002A00D1704710B5E5
:100B6000144600E0641C2178212901D33A29F9D1E7
:100B70003A290CD112F8011B30390A2908D2A242B5
:100B800008BF002904D1611C0020196010BD00209D
:100B900010BD10B5044600224FF0FF33E27023630E
:100BA000FFF7CCFB08B1042010BD04F23220FFF7A0
:100BB000EBFA4AF65521884201D0032010BD04F11A
:100BC00034000178E92904D0EB2904BF807890280B
:100BD00013D104F16A00FFF7DAFA20F07F40DFF862
:100BE0005C15884207D004F18600FFF7D0FADFF8E1
:100BF0005015884201D1002010BD022010BD000018
:100C0000642100202DE9FF410E4600213160144689
:100C1000FFF79EFF070048BF0B2007D4DFF82485AD
:100C200008F1040050F827500DB90C2027E1356079
:100C300004F0FE04287848B1687800F0ADFCC107E4
:100C400004D4002C01D040070DD417E100202870F7
:100C50006F70687800F0A9FCC10748BF032003D477
:100C60001CB1400701D50A2009E1687805F10C02A2
:100C7000022100F0C1FC90BBA889A0F5007140F6EC
:100C8000016291422BD2411E084228D10021284600
:100C9000FFF77FFF002702281FD1002405EB041176
:100CA00001F5F971087918B101F10800FFF76FFA41
:100CB0004DF82400641C042CF0D300265DF8264077
:100CC00024B121462846FFF764FF00E003200128F5
:100CD00002DD761C042EF1D32746042801D1012021
:100CE000CDE0012817DC05F13F00FFF74DFAA98997
:100CF000884210D105F14A00FFF746FA18B905F10C
:100D00005800FFF744FA05F14101E861CA78AA707A
:100D1000012A18BF022A72D150430646087868811A
:100D200001006CD0421E104269D105F14500FFF769
:100D30002BFAA9892881490990FBF1F201FB1200E5
:100D400000285CD105F14700FFF71EFA040004D12A
:100D500005F15400FFF71BFA044605F14200FFF7C6
:100D600013FA00284BD0AA8929894FEA521E33185A
:100D700091FBFEF2D3189C4241D3B5F80AC0E41AA5
:100D8000B4FBFCF2002A3AD003244FF6F67C62450D
:100D900038BF022440F6F67C624538BF0124921C1D
:100DA000C019DB19032CAA612F626862EB6210D1B3
:100DB00005F15E00FFF7E8F9002804BF2889002844
:100DC0001DD105F16000FFF7E2F9A862A869800073
:100DD0000DE0A1B1686A3618AE62022CA8690FBF97
:100DE000400000EB400100F0010000EB5100A98938
:100DF0004A1E1018B0FBF1F0E969814201D20D20C2
:100E00003DE04FF0FF30686128618020032C28719D
:100E10002AD105F16400FFF7B7F9012824D1791C24
:100E200000F033F800BB287105F23220FFF7ACF96F
:100E30004AF65521884217D105F13400FFF7A7F98A
:100E40003749884210D105F50670FFF7A0F93549FA
:100E5000884209D105F50770FFF799F9686105F532
:100E60000870FFF794F928612C702846B8F8004004
:100E7000641CEC80FFF731FAA8F80040002004B0B1
:100E8000BDE8F081B8FBF0F041182846FFF756BAEC
:100E900070B5044609260D46002C1CBF21680029A8
:100EA0000DD0087858B1A088CA88904207D14878F8
:100EB00000F072FBC00702D42068002600E000208A
:100EC0002860304670BD73B582B015460091684603
:100ED000FFF73EFE002848BF0B201ED4994901EBC6
:100EE0008006746824B12046FFF7F7F900212170CD
:100EF000029810B90021716008E002990020087082
:100F0000029A7260029808B1012D01D0002004E01D
:100F1000002202A903A8FFF775FE04B070BD00000F
:100F200052526141727241612DE9F2418DB004006B
:100F300008BF092000F0FC8002F03F073A466946EE
:100F40000DA8FFF75FFE06001DD100980D990190D6
:100F500001A8FFF741FD06000DD19DF83300010601
:100F600048BF062607D417F0FE0118BF012101A8CB
:100F7000FFF731F9064617F01C0F00F0AE80300085
:100F800000F0A180042E40F0D0806F49086800284E
:100F90001EBF08690028122603D101A8FFF7B1FC83
:100FA0000646300047F0080735D1380739D500F03C
:100FB0003FFB0546099829460E30FFF7F7F80998D8
:100FC00029461630FFF7F2F809992020C872DDF89B
:100FD000248000984146FFF76EFC054600980022E9
:100FE0004146FFF77BFC099800211C30FFF7DEF833
:100FF00000990120C87085B10098D0F8308000F0C9
:10100000ADFA060007D100984146FFF797F906466A
:1010100000986D1E0561300054D1380748BF47F075
:1010200040070098016B616217F0FE010998A06209
:1010300018BF012101A8FFF7FBF800285BD0206151
:10104000099D00982946FFF736FCA06005F11C00B9
:10105000FFF79DF8E0604FF480520020E0620099B5
:1010600021600098C188A180002060750021A061E6
:101070002162277504F13000FFF7A8F8B80656D5AD
:10108000E568002D53D0A561009847898089A16843
:101090004743AF420CD22046FFF7B9F90146022977
:1010A0002CD311F1010F2BD0ED1B3000F1D02CE02F
:1010B000E1610098808900F049F838D000F054FAD6
:1010C00028BB022631E09DF80A0010F0110F10D164
:1010D00078077FF56AAF082627E030009BD19DF89E
:1010E0000A00C10648BF04261FD4B90795D5C0071A
:1010F00093D5072619E00226206116E0022604E0B7
:101100004FF0FF300126E0610FE0E1610DE0009A51
:101110009189B5FBF1F108182062024600984078E9
:10112000012300F04FF910B1012600202060304665
:101130000EB0BDE8F0810000EC33000846415400D9
:10114000464154339821002064210020B5FBF0F281
:1011500000FB1250002870470746694698E62DE9C3
:10116000FC471446984600228946C8F80020FFF73D
:10117000F3FF010001D1787D010040F0AE80387DA1
:10118000810758BF072040F1A880B8692118814223
:101190002DD24FF0FF32141A29E0084620E0C7F89C
:1011A00020A00099BB698989B3FBF1F64E43C81AA8
:1011B00030182546844288BF054607F130009B1B46
:1011C0002A4649461844FEF7F9FF387D40F0800072
:1011D0003875B869F96828188142A944B861DCD229
:1011E000F860641BD8F800002818C8F80000002C2C
:1011F0006ED000F079F8D4D100984289521E154083
:1012000018D111B9B86850B906E0F86A18B1384673
:10121000FFF77EFA03E0F9693846FFF724FA002861
:1012200056D001283CD010F1010F4ED0B968F861BA
:1012300001B9B860387D010607D500983A6A00F018
:101240005CF8002841D100F04AF800F08CF938B37E
:1012500005EB000A00988189B4FBF1F616B34089CA
:101260007119884238BF461B009840783346524671
:10127000494600F0B3F940BB386AA0EB0A00B0421F
:101280000AD200998A89504309EB000107F1300026
:10129000FEF794FF00F023F800988589754398E7DE
:1012A000022013E0386A50450DD0B969F8688142D0
:1012B000BFF475AF009840780123524607F1300122
:1012C00000F086F900283FF46AAF0120787504E049
:1012D000387D40F0400038750020BDE8F687387D45
:1012E00000F07F00387570470098B9698089B1FBBC
:1012F000F0F500FB1510002870474078012307F136
:10130000300100F06BB97CB500F060F8010037D116
:10131000217D4A0634D5080606D500F032F808B11A
:10132000012076BD00F049F800F082F90546616AB7
:101330000098FFF703F8010022D1A66AF07A40F086
:101340002000F0723146A2682068FFF7C7FAE16812
:1013500006F11C00FEF72AFF294606F11600FEF7EB
:1013600025FF002106F11200FEF71CFF0099012065
:10137000C8700098FEF7FCFF217D01F0BF012175C8
:1013800076BD0098226A4078012304F1300100F014
:1013900025B91CB50446FFF7B6FF01000CD169461C
:1013A0002046FFF775FD010006D12069FEF77AFFA0
:1013B000010004BF0021216016BD207D00F07F00E8
:1013C0002075704704F1300100F002B90446694607
:1013D000FFF75EBD31B58CB00C46002269460CA803
:1013E000FFF710FC050010D10C996846FFF7F4FADE
:1013F00005000AD19DF82F00010648BF062504D438
:101400001CB121466846FFF7B5FA28460DB030BD3D
:101410002DE9F1438EB0022269460EA8FFF7F2FBD8
:1014200006000098019009D10E9901A8FFF7D4FA9F
:10143000060008BF082600F08980042840F0868056
:10144000002101A8FFF70FF905460098418980891E
:10145000414304910DB907260CE0012D08BF022677
:1014600008D015F1010F08BF012603D00098FEF740
:1014700042FF064600F0DCF88046300047D1009875
:101480002946FEF7B7FF07460098828900F1340924
:1014900000F060F80B22202100F05DF82E201021D2
:1014A00089F8000089F80B1009F116004146FEF793
:1014B0007DFE00982A464946FFF710FA2022494649
:1014C00009F12000FEF77AFE2E2089F8210000980D
:1014D0000178039A032902BF816A8A42002209F136
:1014E0002001FFF7FBF90098448904E00098828905
:1014F00000F030F8641E64B10098012107637F1C7E
:101500000098C1700098FEF7F6FE0600EED030009D
:1015100003D101A8FFF7F5F90646300014D1099C64
:10152000414604F11600FEF741FE00982A46214686
:10153000FFF7D4F91020E07201210098C1700098E3
:10154000FEF716FF064601E000F008F830460FB03F
:10155000BDE8F08300214846FEF738BE0022294648
:1015600001A8FFF74AB8F9690098FEF743BF0EE0FB
:1015700002684368024408305FEAC37C44BF4B44BE
:101580005B1E52F804CB43F804CB091FF9D150F885
:10159000041B0029ECD1704701461E4A531802EB88
:1015A00081014A68187A516808471A4B02460020A0
:1015B000995C002900D0704710B501249C5403EBBE
:1015C00082019C184A68207A1368BDE810401847C9
:1015D00070B500F009F8AC68A04770BD70B500F0B8
:1015E00003F8EC68A04770BD04460A4D2E1905EBC0
:1015F00084046568307A704738B50346054CE518B1
:1016000004EB83035C68287A236901B0BDE83040AD
:10161000184700008421002010B5034C0348211D09
:1016200000F024F8207010BD9021002098350008AB
:101630000020704770B50E4D6B7A04460120A3B9A7
:101640006B7A0020E854687A05EB80067460687A4B
:1016500028440272687A421C6A72303008702F2265
:101660003A2048708A700020C87070BD0022E1E7FF
:101670008421002038B5040017D004F134052878FF
:1016800020B900212177204600F0F2FB03202870CA
:10169000204600F00CF8010005D10020686000220F
:1016A000226301202870080000D0012032BD2DE9FE
:1016B000F8418FB0054600207626039004900590EF
:1016C00006900790089603A983B06846182200F098
:1016D00059FC0EBC286800F061FC002865D1DFF8D9
:1016E000284520600027286800F073FC0120206056
:1016F0000026022000F0F4FE0020009005F13404E2
:10170000286800F0FEFC00284FF0805846D1286879
:1017100000F01AFD70B16661286800F0F2FC002844
:101720003CD1606901280FD12868002100F01FFD1D
:10173000E0B909E001206061F6E700F066FB0746CA
:101740000098401CFE0F00904FF6FF7000998142F8
:101750000ED26EB92868002100F009FDF0B92868A2
:10176000DFF8A81400F00EFD0028E6D0404617E090
:101770000099814228BF4FF0807011D217F0804746
:10178000384618BF012020610121ADF80C102868EF
:1017900000F024FC58B94FF0806001E00028F3D03D
:1017A00001212170626810436060012063E02069BC
:1017B000032835D0286800F0F9FC0028F0D100F0AB
:1017C00024FB206400F05AF86064082100F057F808
:1017D000A0640C2100F053F8E064206903281FD0B6
:1017E000286803A900F003FD0028D9D12069032847
:1017F00016D0BDF80C10E1610904286800F0E8FC7F
:101800000028CDD100F001FB206300F037F86063C1
:10181000082100F034F8A0630C2100F030F8E063F8
:1018200000F02CF8000DA06104A9284600F0F0F9A2
:1018300000289BD1E26928681204002300F055FCBF
:101840000028ADD183B0291D6846182200F09AFB0C
:101850000EBC286800F0A2FB00F0C0FA50B12A6864
:10186000DFF87415916301226168014361602270A1
:1018700000B10120C0B210B0BDE8F0810421286899
:1018800000F0C1BB2DE9F04F87B005460C469246EB
:10189000984600F039FE0090264605F134071CB941
:1018A000786840F00060C4E03878012840F0BE80DD
:1018B0000021796008EB0A02B86A904202D200F077
:1018C00092F9B7E0032038702A68D162386901289C
:1018D00018BF4FEA4A2A4FF0FF314FEA48220191E0
:1018E000029290210222039104920021012205918B
:1018F000069201A900F07DF9B8F1020F06D302208B
:1019000028635146286800F0ADFB05E001202863FC
:101910005146286800F09BFBDFF8BC44E0BBDDF8D3
:1019200008A0DDF840B02868416B40F22A3211422D
:1019300026D1406B01040ED5BAF1000F0BD0AAF1ED
:10194000200A4FF00809286800F03DFB00F076F807
:10195000B9F10109F7D100F0D7FD0099401A5845B7
:1019600002D2BBF1000FDED12868846301207968C0
:1019700041F00041796038700021296303205AE06A
:10198000416BCA050ED5B8F1020F0BD33969032993
:1019900008D000F095FB28B129688C637A68104361
:1019A00078603BE02868416B0A0704D58463786857
:1019B00040F008000EE0416B8A0704D58463786824
:1019C00040F0020006E0416B8A0609D5846378681E
:1019D00040F020007860012139700020286329E060
:1019E000DDF800902868416B8A021CD5BAF1000F1F
:1019F00019D000F0E8FA00F021F800F085FDA0EB26
:101A000009005845AAF1040A02D2BBF1000FE9D13E
:101A100028688463796841F000417960012038705A
:101A20000021296307E000F0D7F804E0786840F06F
:101A300000507860012007B0BDE8F08F3070010AD7
:101A40007170020CB270000EF070361D70472DE9F7
:101A5000F84F88B006460C461546984600F054FDEF
:101A60000190A24606F134071CB9786840F0006086
:101A7000ADE03878012840F0A7800021796008EBBC
:101A80000502B86A904202D200F0ADF8A0E003204F
:101A900038703268D1623869012818BF6D024FEA88
:101AA000482203924FF0FF310022029105920692E4
:101AB000902101220491079202A9306800F0A6FA51
:101AC000B8F1020F06D3202030632946306800F0B9
:101AD000DFFA05E0102030632946306800F0CDFAC7
:101AE0000028DFF8F44249D1039DDDF848B03068A2
:101AF000416B40F21A32114234D1406B41041ED581
:101B0000EDB1203D4FF008091AF8010B0090014695
:101B10001AF8010B41EA0021009108461AF8011B4E
:101B200040EA014000901AF8011B40EA0160009071
:101B30006946306800F048FAB9F10109E4D100F0D3
:101B4000E3FC0199401A584502D2BBF1000FCED1F7
:101B500030688463012079687960387000223263CC
:101B6000032036E0416BCA050DD5B8F1020F0AD348
:101B70003969032907D000F0A3FA20B1316800F0D9
:101B80003BF8316325E03068416B0A0704D5846374
:101B9000786840F008000EE0416B8A0704D5846342
:101BA000786840F0020006E0416BCA0609D58463FC
:101BB000786840F0100078600121397000203063AF
:101BC00006E000F009F804E0786840F00050786022
:101BD000012009B0BDE8F08F40F23A518163012045
:101BE000387000207047796841F000717960704763
:101BF0006946286800F00ABA8C6300217A681043AD
:101C00007860012038707047A0802542000010C124
:101C100030B500F134031A6B920F0A701C6BA40EDE
:101C200004F00F044C701A6B120E02F003028A705B
:101C30001A6B120CCA701A6B120A0A711A6B4A716B
:101C40005C6B240DCC804FF400745A6B120C02F0C4
:101C50000F020A725A6BD20B02F001024A725A6BDF
:101C6000920B02F001028A725A6B520B02F00102CF
:101C7000CA725A6B120B02F001020A7300224A73F5
:101C80001A69002A40F08D80586B40F6FC7202EA17
:101C90008002986B42EA90720A610122986BC00E32
:101CA00000F007000875986B000E00F007004875FB
:101CB000986B400D00F007008875986B800C00F061
:101CC0000700C875986BC00B00F00700087608691C
:101CD000401C18620D7E05F00705AD1C02FA05F5E3
:101CE000684318620D7A05F00F05AA405A62520A3D
:101CF00050439862DC62986B800B00F001004876DC
:101D0000986BC00900F07F00887693F8380000F0E7
:101D10007F00C876D86BC00F0877D86B400F00F0F3
:101D200003004877D86B800E00F007008877D86BE7
:101D3000800D00F00F00C877D86B400D00F0010057
:101D400081F8200001F1210000210170DA6B120CF2
:101D500002F0010242700122D96BC90B01F00101AE
:101D60008170D96B890B01F00101C170D96B490BEE
:101D700001F001010171D96B090B01F00101417101
:101D8000D96B890A01F003018171D96B090A01F04D
:101D90000301C171D96BC1F3460101724272002087
:101DA00030BD012A0DD1586B9A6B000400F47C10F1
:101DB00040EA1240086108695C62401C80021862B7
:101DC00097E70068044981630120596841F0805118
:101DD0005960187030BD0000FF05400028684FF4BE
:101DE000007100F029B9426C0A60836C4B60C26CD0
:101DF0008A60036DCB60426D0A61836D4B61C26D79
:101E00008A61006EC861002070472868002100F0D8
:101E1000FAB838B504460025216D2068090400F0A1
:101E200000FA18B1A16B0843A06304E02068FFF733
:101E3000EDFFC0F34325284632BD000081B00020ED
:101E4000009000224848416841F480414160416867
:101E500001F48041009100990092036843F080539F
:101E60000360006800F080500090009801B0704757
:101E700010B586B000F072F821683C48814234D138
:101E800000F062F841F400614161416901F40061D0
:101E9000009100990092036843F004030360016815
:101EA00001F004010091009900924FF488510368F9
:101EB00043F0080303600222006800F0080000906D
:101EC00000982B4800F03AF80C2100F042F802216B
:101ED00002910022039204200321019004910C221C
:101EE000059201A9234800F015FB06B010BD10B5FE
:101EF00086B000F033F821681F4881421CD100F001
:101F000023F841F010014161416901F01001009195
:101F1000009900924FF4C061036843F0010303602D
:101F20000222006800F0010000900098134800F0C1
:101F300005F8072100F00DF806B010BD01910292DE
:101F4000002103910322704700220D48009241694D
:101F500070470591049201A900F0DCBA04461422EE
:101F6000002101A800F0D8BB40380240002C0140FD
:101F700000080240000C0240001001400000024036
:101F8000303802404AB1000011F8013B521E00F8FF
:101F9000013B1CBF11F8013BF8E770470EB44368E2
:101FA000DFF82015009A0B4001991343029A0B4366
:101FB00003991343049A0B43059913430B4343605E
:101FC000002003B0704734E00968C0F8801000209A
:101FD00070470321FFE7016000207047006800F0B0
:101FE0000300704710B50A688260C4680A694B68CC
:101FF000240B42EA04348A68C9681C4314430C4326
:10200000C460002010BD14300858704710B50A682D
:1020100042624B688362C46A8A68CB6824F0F70422
:1020200014430A6949691C4314430C43C4620020E9
:1020300010BDD0F88000704718B585B000F03CF8AE
:10204000102100F030F841F28832102104E118B577
:1020500085B000F031F8112100F025F841F2883206
:102060001121F9E018B585B000F026F8122100F032
:102070001AF841F288321221EEE018B585B000F06E
:102080001BF8182100F00FF841F288321821E3E024
:1020900018B585B000F010F8192100F004F841F2ED
:1020A00088321921D8E001914FF480620021039118
:1020B00004920446694695E74022009102927047D7
:1020C00018B5402285B000F06DF80C2100F004F83E
:1020D000DFF8F4230C21BFE00090019103904FF44E
:1020E00080620492694620467CE718B585B00721D6
:1020F00000920191402200F08BF841F288320721D2
:10210000AAE018B585B00446002000900190029026
:10211000FFF7E4FFDFF8B4231168C9084FF47A73BE
:10212000B1FBF3F141F2883041430846411E18B13A
:10213000606B0206F9D503E04FF0004006B010BD19
:10214000C520A0630020F9E718B50821402285B01A
:102150000446019102924FF4D57000210090039142
:10216000FFF7BDFF204600F087F906B010BD18B597
:1021700085B0FFF7A1FF3721FFF795FF41F28832C5
:10218000372169E018B5044685B0DFF84403014300
:10219000009140222921019102920021039100F037
:1021A00011F849E0044602920020704718B5C02299
:1021B00085B0FFF7F7FF022100900191039000F036
:1021C00001F80DE04FF480620492694620467047A2
:1021D00018B585B0C02200910292092100F033F8B1
:1021E000FFF700FF204600F0BEF806B010BD30B586
:1021F000402285B004460D46029200200321FFF7DD
:102200006BFF2A460321204600F0F1F805B030BDEF
:102210000292002103914FF48062049204466946C1
:10222000E0E618B585B0FFF747FF0D21FFF73BFF4C
:1022300041F288320D210FE0FFF7D4FE204600F076
:10224000B2F806B010BD01914FF4806200210391F5
:102250000492044669467047204600F002F806B032
:1022600010BD30B5994C25680346ED084FF47A70DF
:10227000B5FBF0F042431046421E30B1586B10F0EF
:10228000450FF8D00005F6D400E0E9E0586B4207AE
:1022900048BF042003D4586BC20702D501209863BD
:1022A00030BDC52098631869C0B2884201D00120B2
:1022B00030BD58698749084201D1002030BD02D5A0
:1022C0004FF0007030BD410001D5402030BD81008D
:1022D00001D5802030BDC10002D54FF4807030BDE3
:1022E000010102D54FF4007030BD410102D54FF419
:1022F000806030BDC10102D54FF4006030BD0102E5
:1023000000D5B0E0410200D5B0E0810202D54FF423
:10231000804030BDC10202D54FF4004030BD4103C2
:1023200002D54FF4003030BD810302D54FF4802038
:1023300030BDC10302D54FF4002030BD010402D5E9
:102340004FF4801030BD410402D54FF4001030BD71
:10235000810402D54FF4800030BD000702D54FF450
:10236000000030BD85E059490A68D2084FF47A73FD
:10237000B2FBF3F241F288314A4311464A1E31B1B1
:10238000416B11F0450FF8D00905F6D400E027E0C5
:10239000416B4A0748BF042103D4416BCA0701D5EA
:1023A000012199E01FE049490A68D2084FF47A7385
:1023B000B2FBF3F241F288314A4311464A1E31B171
:1023C000416B11F0450FF8D00905F6D400E007E0A5
:1023D000416B4A0703D5042181630420704702E062
:1023E0004FF000407047C52181630020704730B531
:1023F000034636480468E4084FF47A75B4FBF5F4F4
:1024000041F2883044432046441E30B1586B10F0EE
:10241000450FF8D00005F6D400E021E0586B4407E2
:1024200048BF042003D4586BC40702D50120986329
:1024300030BD1869C0B2884201D0012030BDC5202E
:102440009863586910F4604F03D1000C108000208D
:1024500030BD410400D509E0000400D503E008E0E8
:102460004FF0004030BD4FF4805030BD4FF400506D
:1024700030BD4FF4803030BD14490A68D2084FF4A3
:102480007A73B2FBF3F241F288314A4311464A1E95
:1024900031B1416B11F0450FF8D00905F6D400E0D9
:1024A0009EE7416B4A0748BF042103D4416BCA072A
:1024B00001D5012110E0416B4A0644BF40218163F0
:1024C000002070470081FFFF00E1F5050C000020AF
:1024D0000000108008E0FFFD81630846704700009F
:1024E00038B5044600F010F814F1010F054602D08B
:1024F00004480178641800F007F8401BA042FAD3A2
:1025000031BD00BF0000002001484068704700BF97
:10251000000000202DE9F84F0D4600267349744A4B
:102520000F23044601202F68B04000EA07088045C9
:1025300040F0D5804FEA460C032707FA0CF76FEA04
:10254000070E6F6807F00309B9F1010F1CBF07F010
:102550000307022F12D1A768D5F80C900EEA0707DF
:1025600009FA0CF949EA0707A760676827EA00003B
:102570006F68C7F30017B74038436060B0002F7929
:1025800007F00307032F21D0E768D5F808900EEA7B
:10259000070709FA0CF949EA0707E7602F7907F0FE
:1025A0000307022F12D1F70804EB870700F01C097C
:1025B000D7F820A003FA09FB2AEA0B0AD5F810B0D5
:1025C0000BFA09F949EA0A09C7F8209027680EEAC8
:1025D000070E2F7907F0030707FA0CF747EA0E0CEE
:1025E000C4F800C06F6817F4403F78D04FF0000E79
:1025F000CDF800E04FEA960C176847F48047176063
:1026000000F00C00D2F800E03A4F0EF4804ECDF806
:1026100000E0DDF800E057F82C7003FA00FE27EA2E
:102620000E0E354FBC4208BF002722D0334FBC42AC
:1026300008BF01271DD0324FBC4208BF022718D067
:10264000304FBC4208BF032713D02F4FBC4208BFF6
:1026500004270ED02D4FBC4208BF052709D02C4FB0
:10266000BC4208BF062704D02A4FBC420CBF072734
:10267000082707FA00F040EA0E00DFF878E04EF88D
:102680002C006FEA0800D1F808C06F6800EA0C0C53
:10269000FF0248BF48EA0C0CC1F808C0D1F80CC0D2
:1026A0006F6800EA0C0CBF0248BF48EA0C0CC1F886
:1026B0000CC0D1F804C06F6800EA0C0CBF0348BF1F
:1026C00048EA0C0CC1F804C0D1F800C000EA0C0CB8
:1026D0006868C00348BF48EA0C0CC1F800C0761C0B
:1026E0000F2E7FF61FAFBDE8F18F0000003C0140C8
:1026F0004438024008380140000002400004024013
:1027000000080240000C0240001002400014024089
:1027100000180240001C024010B5044610460A464C
:102720000146204600F002F8204610BD62F30F2259
:1027300062F31F42401810F0030308D0C91A1FD3D8
:10274000DB0748BF00F8012D28BF20F8022D130039
:1027500030B414461546103928BF20E93C00FAD899
:10276000490728BF20E90C0048BF40F8042D890024
:1027700028BF20F8022D48BF00F8012D30BC70475B
:10278000C91818BF00F8012DCB0728BF00F8012D8C
:10279000704700002DE9F843040016D02078DFF8D8
:1027A0000463C10713D5B06800F00C00042807D0FB
:1027B000B06800F00C0008283DD1706841023AD59D
:1027C0003068810303D56068002800F065812078B7
:1027D000B54F810719D5B06810F00C0F07D0B0685D
:1027E00000F00C0008285BD17068410258D43068B2
:1027F000810703D5E068012840F04E8131682069E7
:1028000021F0F80141EAC00131602178080779D54B
:102810006069A649002868D001220A60FFF774FEAB
:102820000546706F81076DD4FFF76EFE401B0228CE
:10283000F7D9032033E16068B0F5803F04D13068F8
:1028400040F48030306011E0B0F5A02F306806D140
:1028500040F480203060316841F4803105E020F49C
:1028600080303060316821F480213160606858B177
:10287000FFF74AFE054630688103A8D4FFF744FEFF
:10288000401B6528F7D3D4E7FFF73EFE05463068C6
:1028900081039CD5FFF738FE401B6528F7D3C8E7B6
:1028A000E068A8B101213960FFF72EFE05463068C7
:1028B000810705D4FFF728FE401B0228F7D9B8E7A7
:1028C0003068216920F0F80040EAC10030609CE7E0
:1028D0003860FFF719FE05463168880795D5FFF780
:1028E00013FE401B0228F7D9A3E70860FFF70CFE90
:1028F0000546706F810705D5FFF706FE401B0228CD
:10290000F7D996E72078410760D5306C0025C100E3
:102910000BD4002000900125316C41F080513164CE
:10292000306C00F0805000900098DFF88481D8F877
:102930000000C10513D4D8F8000040F48070C8F836
:102940000000FFF7E1FD8146D8F80000C10506D47C
:10295000FFF7DAFDA0EB09000228F5D969E7A068C6
:10296000012805D00528306F06D140F004003067FB
:10297000306F40F0010005E0400840003067306FE4
:1029800020F00400306741F28938A06860B1FFF799
:10299000BBFD8146306F810713D4FFF7B5FDA0EB77
:1029A00009004045F6D344E7FFF7AEFD8146306F9E
:1029B000810706D5FFF7A8FDA0EB09004045F6D337
:1029C00037E71DB1306C20F080503064A0690028DA
:1029D00064D0B16801F00C0108293AD002282AD14C
:1029E00000203866FFF790FD05463068810105D567
:1029F000FFF78AFD401B0228F7D91AE7E069216A30
:102A0000626A0843A16A490840EA8210491E40EA06
:102A10000140E16A40EA0160706001203866FFF71A
:102A200073FD04463068810138D4FFF76DFD001B4B
:102A30000228F7D9FDE600203866FFF765FD044659
:102A4000306881012AD5FFF75FFD001B0228F7D906
:102A5000EFE6012820D07068E26900F4800191421D
:102A600002BF00F03F01226A914201BF47F6C071E8
:102A70000140626AB1EB821F0ED1A26A00F44031BC
:102A800001F580315208B1EB024F02BF00F07060D7
:102A9000E16AB0EB016F01D0012000E00020BDE849
:102AA000F28300BF0038024000004742800E4742D8
:102AB000007000401CB500F0E3F800F060F8002062
:102AC0000090574C5748016841F08001016002684E
:102AD00002F080020092002200990092036843F005
:102AE00004030360016801F0040100910099009261
:102AF000036843F001030360016801F001010091E4
:102B0000009949490092036843F008030360006894
:102B100000F00800009000986164A2640421E2645F
:102B200022656265A265E165FEF776FD3F4820609B
:102B30004FF4E1310C20002260616160A260E2602C
:102B40002261A261E261204600F0B4F808B100F011
:102B500073F800F051F900BF0FF2E00039A400F063
:102B600097F9204600F056F939A000F053F900BF5C
:102B70003CA1204600F067F900F043F9FEE780B57C
:102B800092B0302106A800F093F9142101A800F0BA
:102B90008FF9002000904FF480332548016841F000
:102BA000805101600021006800F080500090009882
:102BB00020480091026842F48042026001220068CD
:102BC00000F48040009006A80099069202214FF47C
:102BD00080020C910D9219214FF4A8720E910F9260
:102BE00002210722079310911192FFF7D3FD08B13C
:102BF00000F022F802210291002203920F204FF4EC
:102C0000A051019004914FF480520592052101A832
:102C100000F052F908B100F00FF813B000BD000049
:102C20007820002030380240002C01400010014084
:102C3000403802400070004072B6FEE76469725F7F
:102C400031000000746573745F312E747874000075
:102C50006469725F312F746573745F322E74787497
:102C60000000000048692074686572652C20746853
:102C7000697320697320616C6920686572650A0058
:102C800080B50B48016841F400710160026842F4AC
:102C900080620260016841F480710160032000F0ED
:102CA000BEF90F2000F002FAFFF7C8F8002002BDBD
:102CB000003C024038B5040001D1012032BD00F0D3
:102CC00019F808B900F01AF800F01DF800F025F81E
:102CD000FFE7416100F001F832BD2068C16841F4AE
:102CE0000051C16000206860202169702020A87018
:102CF0000020704704F13C05687870470021297076
:102D00002046FFF7F4B8242068702068C16821F4D9
:102D10000051C160204600F00AB82068016921F422
:102D2000904101612068416921F02A01704770B526
:102D3000044622681169E06821F4405101431161A1
:102D4000D3682748A168034020690B4361690343A6
:102D5000E0690B430343D3605169A06921F44071DA
:102D6000014351611F498A421CBF1F48824202D160
:102D700000F030F901E000F025F962682568E469A7
:102D80001921B4F5004FA1FB00016FF0630612D1C9
:102D9000D30F520000F0AAF900F028F8F6003236FE
:102DA0006420B6FBF0F0420002F4F87202EB01126C
:102DB00000F0070010E0930F920000F097F900F088
:102DC00015F8360132366420B6FBF0F000F0F00260
:102DD00002EB011200F00F008018A86070BD000027
:102DE000F369FFFF00100140001401406421B0FBB3
:102DF000F1F106FB0106704780B5012228492948F8
:102E000003E080B5012226490020FEF75CF8264940
:102E1000087001BD70B500F011F8287008B90020E5
:102E200070BD224E0B2221463046FEF77DF82870F9
:102E300018B93046FEF7ADFA287070BD1A4D044639
:102E4000291DFEF7C7BAF8B500F01CF8307088B934
:102E5000164F322221463846FEF766F8307048B9E0
:102E6000284600F0C7F900F006F830703846FEF743
:102E700090FA3070F2BD024606F12003294638462A
:102E8000FEF76DB90D46084E0446311DFEF7A2BA95
:102E900080B5FEF7BDFA0449087002BD00000000CD
:102EA0009421002014000020402100204810002020
:102EB000002200F0A9B900002DE9F04104000F46FE
:102EC00054D0494E306800F00700B84202D200F0FA
:102ED00073F84BD12068454D810712D5400703D5C3
:102EE000A96841F4E051A9602078010703D5A868DA
:102EF00040F46040A860A968A06821F0F001014397
:102F0000A9602178C80729D56068012802D12968FD
:102F10008A0305E0022818BF032803D129688A0123
:102F200003D423E029688A0720D5A968890840EAE4
:102F30008100A860FFF7E8FA8046A868616800F0A1
:102F40000C00B0EB810F09D0FFF7DEFAA0EB080010
:102F500041F289318842F0D303202BE0306800F041
:102F60000700874204D200F027F801D0012021E0B9
:102F70002078410705D5AA68E06822F4E0520243B0
:102F8000AA602178080706D5A968206921F4604164
:102F900041EAC001A96000F051F9AA681449154B33
:102FA000C2F30312895CC84018601348006800F03F
:102FB0007DF80020BDE8F0813770316801F007012D
:102FC000B94270470B480D4A006813680C49C3F3B7
:102FD000822206E00748094A006813680849C3F3DB
:102FE0004232895CC8407047003C024000380240D1
:102FF000243500080C00002008000020083802409A
:10300000F43500080901020002D4224881547047B7
:10301000214B02F00F021A4402F8041C70471F4BA8
:1030200019684FF6FF020002114000F4E060084307
:103030001B4908431860704770B5184B1C68C4F3EF
:1030400002230124C3F10705052D2EBF0F2504FA25
:1030500005F56D1E1E1D072E34BF0023DB1E294003
:10306000994004FA03F3BDE870405B1E1A40114317
:10307000C8E7401EB0F1807F01D3012070470949A5
:10308000094A48600023F02010708B600720086018
:103090000020704700E400E018ED00E00CED00E0D7
:1030A0000000FA0510E000E023ED00E038B50D4D1A
:1030B0000D4B2A7804464FF47A711868B1FBF2F28E
:1030C000B0FBF2F0FFF7D5FF50B9102C08D2002268
:1030D00021464FF0FF30FFF7AFFFAC60002032BD5C
:1030E000012032BD000000200C000020D3BBD9B16C
:1030F000B2F5803F5BD2022A1ED98C46B1FBF2F1B9
:1031000002FB11C31B0443EA1043B3FBF2FC02FBB6
:103110001C3380B240EA0343B3FBF2F002FB1032EF
:1031200040EA0C4000237047022A05D98446B0FBD0
:10313000F2F002FB10C270474AB105D100F0010263
:1031400049085FEA3000704700220023704700F012
:10315000A5B80B000200002100207047F7D3002221
:1031600000237047904271EB030CF2D370B5B1FAB3
:1031700081F4B3FA83F52C1BA340C4F1200532FA85
:1031800005F63343A2405FF00046E64002E05B08EC
:103190005FEA3202841A71EB030524BF20462946F8
:1031A0007641F4D302000B003000002170BD70B5F1
:1031B000B1FA81F4B2FA82F5C4F120046419B4F1D1
:1031C0002006DAD3B2405FF00044F440002502E06C
:1031D00052085FEA3303C61A71EB020E24BF304671
:1031E000714664416D41F3D302000B0020002900B9
:1031F00070BD000000F1010310F8011B11B110F8BF
:10320000011BFBE7C01A704700B500BF13009646CC
:103210009446103928BFA0E80C50FAD85FEA417CE8
:1032200028BF0CC048BF40F8042BC90728BF20F8AE
:10323000022B48BF00F8012B00BD000030B5144C34
:10324000606800F00C00042802D0082802D01DE0BD
:10325000104830BD226820680023410202F03F027E
:1032600004D525680B49C5F3881003E020680A4996
:10327000C0F38810A1FB0001FFF738FF2168C1F3FC
:103280000141491C4900B0FBF1F030BD024830BD9E
:103290000438024040787D010024F40070470000AB
:1032A00010B52D4C0120207000F058F818B9207886
:1032B00000F0FE002070207810BD38B50446264D81
:1032C0000120287000F056F818B92046FFF7E8FFF3
:1032D0002870287832BDE3E70846114610B51A4633
:1032E0004FF0FF3300F054F807E00846114610B5E0
:1032F0001A464FF0FF3300F05BF8012420B900F0CC
:103300002DF80028FBD10024204610BD10B512482E
:1033100088B014460278D30748BF032019D4032984
:1033200016D8DFE801F01302070D684600F050F8E8
:1033300006980AE0684600F04BF80798208005E000
:10334000684600F045F80798400A2060002000E039
:10335000042008B010BD00001000002080B5044813
:10336000FEF757FD042801D1002002BD012002BD57
:10337000BC20002080B500F031F8012801D00120E8
:1033800002BDBDE802400148FEF774B9BC20002030
:103390001CB50093002413460A4601460348FEF775
:1033A00071FA00B10124204616BD00BFBC200020E8
:1033B0001CB50093002413460A4601460348FEF755
:1033C00046FB00B10124204616BD00BFBC200020F2
:1033D00001460148FEF707BDBC20002081B0012056
:1033E0008DF800009DF8000001B07047435545413D
:1033F0004141414345454549494941414592924FE3
:103400004F4F5555594F554F9C4F9E9F41494F55D2
:10341000A5A5A6A7A8A9AAABACADAEAFB0B1B2B3F3
:10342000B4414141B8B9BABBBCBDBEBFC0C1C2C343
:10343000C4C54141C8C9CACBCCCDCECFD1D14545F9
:103440004549494949D9DADBDCDD49DF4FE14F4FD6
:103450004F4FE6E8E85555555959EEEFF0F1F2F3C4
:10346000F4F5F6F7F8F9FAFBFCFDFEFF30B40025A1
:1034700012E050F8042BD30744BF4A44521E091FE0
:10348000042942F8045BFAD213468C0744BF158026
:103490009B1CC90748BF1D7050F8041B0029E8D1C8
:1034A00030BC704710B5074979441831064C7C444C
:1034B000163404E00A68081D114488470146A142F9
:1034C000F8D110BD2C0000004C0000004EF68851D1
:1034D000CEF20001086840F470000860BFF34F8F1F
:1034E000BFF36F8F4FF00170E1EE100A70470000DC
:1034F0007DFFFFFF8C210000140000200000000071
:103500006FE0FFFF14000000C80000000000002072
:10351000000000000248016841F47001016070473A
:1035200088ED00E00000000000000000010203043C
:103530000607080900F00DF8002801D0FFF7B2FFD8
:10354000AFF300800020AFF30080FFF7B3FA00F084
:1035500002F80120704700F001B800000746384625
:1035600000F002F8FBE7000080B5AFF30080024AEC
:1035700011001820ABBEFBE72600020005480146FB
:1035800003B4684680F30988AFF30080FFF79EFF1D
:10359000FFF7D0FFA5EDF5FEBB320008D7320008DB
:1035A000D9320008EB3200080D330008FEE7FEE7D1
:1035B000FEE7FEE7FEE770477047704700F000B88F
:1035C0000248416802788A18426070470000002073
:1035D0000100000000000000100000000024F400C2
:1035E00001000000014880470148004715350008E8
:1035F0007D3500080000000001020304FFF7FEBF54
:10360000FFF7FEBFFFF7FEBFFFF7FEBFFFF7FEBFEE
:10361000FFF7FEBFFFF7FEBFFFF7FEBFFFF7FEBFDE
:10362000FFF7FEBFFFF7FEBFFFF7FEBFFFF7FEBFCE
:10363000FFF7FEBFFFF7FEBFFFF7FEBFFFF7FEBFBE
:10364000FFF7FEBFFFF7FEBFFFF7FEBFFFF7FEBFAE
:10365000FFF7FEBFFFF7FEBFFFF7FEBFFFF7FEBF9E
:10366000FFF7FEBFFFF7FEBFFFF7FEBFFFF7FEBF8E
:10367000FFF7FEBFFFF7FEBFFFF7FEBFFFF7FEBF7E
:10368000FFF7FEBFFFF7FEBFFFF7FEBFFFF7FEBF6E
:10369000FFF7FEBFFFF7FEBFFFF7FEBFFFF7FEBF5E
:1036A000FFF7FEBFFFF7FEBFFFF7FEBFFFF7FEBF4E
:1036B000FFF7FEBFFFF7FEBFFFF7FEBFFFF7FEBF3E
:1036C000FFF7FEBFFFF7FEBFFFF7FEBFFFF7FEBF2E
:1036D000FFF7FEBFFFF7FEBFFFF7FEBFFFF7FEBF1E
:1036E000FFF7FEBFFFF7FEBFFFF7FEBFFFF7FEBF0E
:1036F000FFF7FEBFFFF7FEBFFFF7FEBFFFF7FEBFFE
:10370000FFF7FEBFFFF7FEBFFFF7FEBFFFF7FEBFED
:10371000FFF7FEBFFFF7FEBFFFF7FEBFFFF7FEBFDD
:10372000FFF7FEBFFFF7FEBFFFF7FEBFFFF7FEBFCD
:10373000FFF7FEBFFFF7FEBFFFF7FEBFFFF7FEBFBD
:040000050800357D3D
:00000001FF
