:020000040800F2
:10000000004D0020C15C0008E55B0008E75B0008CC
:10001000E95B0008EB5B0008ED5B000800000000F6
:10002000000000000000000000000000EF5B00087E
:10003000F15B000800000000F35B0008F55B0008BE
:10004000D55C0008D95C0008DD5C0008E15C0008B4
:10005000E55C0008E95C0008ED5C0008F15C000864
:10006000F55C0008F95C0008FD5C0008015D000813
:10007000055D0008095D00080D5D0008115D0008C0
:10008000155D0008195D00081D5D0008215D000870
:10009000255D0008295D00082D5D0008315D000820
:1000A000355D0008395D00083D5D0008415D0008D0
:1000B000455D0008495D00084D5D0008515D000880
:1000C000555D0008595D00085D5D0008615D000830
:1000D000655D0008695D00086D5D0008715D0008E0
:1000E000755D0008795D00087D5D0008815D000890
:1000F000855D0008895D00088D5D0008915D000840
:10010000955D0008995D00089D5D0008A15D0008EF
:10011000A55D0008A95D0008AD5D0008B15D00089F
:10012000B55D0008B95D0008BD5D0008C15D00084F
:10013000C55D0008C95D0008CD5D0008D15D0008FF
:10014000D55D0008D95D0008DD5D0008F95B000899
:10015000E15D0008E55D0008E95D0008ED5D00086F
:10016000F15D0008F55D0008F95D0008FD5D00081F
:10017000015E0008055E0008095E0008000000003E
:100180000D5E0008115E00084178007807E0C17834
:10019000827842EA01224178007841EA022140EA6D
:1001A000012070470170090A417070470170090A07
:1001B0004170090A8170090AC17070472AB111F8AB
:1001C000013B00F8013B521EF9D17047521E00F866
:1001D000011BFBD17047F0B5024600230024DFF875
:1001E000205A05EB0416306880B11768B84202BF88
:1001F00070689768B84202BFB0685669B04206D1CD
:10020000022C0AD193B9022905D10FE00123641C05
:10021000022CE6D3F4E71220F0BD29B905EB041057
:100220008289B2F5807F01D11020F0BD0020F0BDA1
:10023000F0B5024694681568DFF8C4690023180118
:100240003758AF4202BF371D3F58A74201BF06F1E2
:10025000080738585769B84202D05B1C012BEED909
:10026000022B11D13068002300281EBF0123306902
:1002700000280ED1180137183D607C6006F1080493
:10028000526922500020B88106EB0312908929B1EF
:1002900008B10020F0BD4FF4807000E0401C908158
:1002A000581CF0BD10B5401E022814D20001DFF822
:1002B00050190A189389B3F5807F01D01C0002D130
:1002C0000023938103E05B1E93819BB20BB9002254
:1002D0000A50002010BD022010BD30B50021DFF80B
:1002E000202900250B01D458844208BFD550491C51
:1002F0000129F7D930BDF8B505460024E878A0B14A
:100300002E6B00F014F808B101240EE0E870696A61
:10031000E869711A814208D2AF7804E0E869861969
:1003200000F005F87F1E012FF8D82046F2BD68784E
:100330000123324605F1340101F0AAB870B5044634
:100340000D46206B0026854210D02046FFF7D3FFD4
:1003500006000BD1607801232A4604F1340101F034
:1003600091F810B14FF0FF3501262563304670BD7E
:1003700038B50446FFF7BFFF050039D120780328C0
:1003800004BF207901282CD1A289002104F1340076
:10039000FFF71CFF4AF6552104F23220FFF702FF57
:1003A000DFF87C1B04F13400FFF700FFDFF8741B5B
:1003B00004F50670FFF7FAFE616904F50770FFF7B0
:1003C000F5FE216904F50870FFF7F0FE226A6078F7
:1003D000521C2263012304F1340101F059F800207A
:1003E000207100226078002101F060F800B1012541
:1003F000284632BD8269891E921E914201D3002097
:1004000070474289C06A02FB0101084670472DE926
:10041000F0410C460568022C4DD3A86984424AD2AB
:10042000297801294FF0FF3604D044D3032936D070
:100430002AD340E0A889696A04EB540800F022FD41
:10044000002839D1A88908F10107B8FBF0F100FBB9
:10045000118805F13402696A12F80880B7FBF0F0E0
:1004600000F012FD002827D1A889B7FBF0F100FBAE
:10047000117705F13400C25D48EA0226E00754BF57
:10048000C6F30B06360917E000F0AFF8A0B9A8894B
:10049000640000F014F8FFF777FE06460CE000F069
:1004A0009CF848B9A889A40000F009F8FFF76FFE8E
:1004B00020F0704600E001263046BDE8F081B4FB34
:1004C000F0F100FB114405F13400204470472DE9A0
:1004D000F8430C460227022C054616467AD3A86933
:1004E000844277D22978012904D073D3032950D0CC
:1004F0003CD36FE0A889696A04EB5409B9FBF0F0BA
:1005000000F0C2FC0028074664D1A88909F101085F
:10051000B9FBF0F100FB119905F134004844E20702
:1005200043BF017801F00F0141EA06113146017025
:100530000120E870A889696A00F0A4FC0028074639
:1005400048D1A889B8FBF0F100FB118805F134000F
:100550004044E20748BF360906D40178360A01F064
:10056000F00106F00F060E43067031E000F03DF892
:10057000074678BBA8896400B4FBF0F200FB124484
:1005800005F13400B1B22044FFF70CFE0121E970FF
:1005900020E000F022F80746E0B9A889A400B4FBE7
:1005A000F0F100FB114005F134021044FFF7EFFDBC
:1005B000AA8926F0704600F0704040EA0601B4FBBC
:1005C000F2F002FB104405F134021019FFF7EEFDC2
:1005D0000120E8703846BDE8F283AA89696A92086A
:1005E000B4FBF2F041182846A8E6AA89696A5208C5
:1005F000B4FBF2F041182846A0E6F8B505460F46D0
:100600002E68012F114628D9B069874225D229B119
:100610004FF0FF3200F07AF8010023D13946284626
:10062000FFF7F5FE04001CD0012C16D014F1010FC9
:1006300015D0002200F069F8010013D1B06971698A
:10064000821E914205D2491C7161317941F001014C
:10065000317127468742E1D303E00220F2BD012039
:10066000F2BD0020F2BD2DE9F04180460C00D8F823
:10067000006006D1356915B1B06985420ED30125F8
:100680000CE0FFF7C4FE012898BF01203BD910F110
:10069000010F38D0B169884235D325462F46B0695D
:1006A0007F1C874202D30227012D24D939464046B8
:1006B000FFF7ADFE38B1012818BF10F1010F22D0AD
:1006C000AF42ECD117E04FF0FF3200F01EF8A0B9B6
:1006D00024B13A46214600F019F870B93761B16982
:1006E0007069891E814224BF401E7061307940F0DC
:1006F0000100307106E0002005E001280CBF4FF03A
:10070000FF3701273846BDE8F08139463046DEE63E
:1007100010B50368C06A9C89021D5889B1FBF4F1C9
:10072000B1FBF0F003E0884206D3401A08321168AA
:100730000029F8D1002010BD5168081810BD2DE91E
:10074000F04105460E462F68B6F5001F2ED216F072
:100750001F0F2BD1AC686E6154B93878032801DBC8
:10076000BC6A2CB93989700988421FD2B86A19E06D
:100770007989B88900FB01F806E0022C16D3B86924
:10078000844213D2A6EB08064645214608D32846E4
:10079000FFF73DFE044614F1010FEED1012013E0F6
:1007A00000F087F8E861AC61E86908B902200BE065
:1007B000B989B6FBF1F21018E86101FB1266B819AD
:1007C00000F1340129620020BDE8F0812DE9F041FB
:1007D00006460C4675693768F169203519B3B5F5D9
:1007E000001F20D2B88900F0B1FC54D1491CF1613E
:1007F000B16921B93989680988424CD311E07889F7
:10080000401E024247D13046FFF701FE8046B8F154
:10081000010F16D918F1010F34D0B869804535D3CE
:100820001CB90020F061042040E0B1693046FFF7B8
:100830001AFF5FEA000808BF072037D0B8F1010FA0
:1008400001D1022032E018F1010F1BD03846FFF72A
:1008500052FDB8B9BA89002107F13400FFF7B6FCA0
:1008600000F026F8002402E0386B641C401C7989F3
:100870008C4209D201223863FA703846FFF73BFDFB
:100880000028F1D0012011E0041B3C63C6F8188059
:1008900000F00EF8F0617561B889B5FBF0F100FB6E
:1008A000115507F13400401930620020BDE8F08195
:1008B000414638469EE570B504460D4605F11A00DE
:1008C000FFF762FC21780329064605D105F11400E3
:1008D000FFF75AFC46EA0046304670BD70B5044644
:1008E0000D461646B1B205F11A00FFF75BFC217800
:1008F000032905D1310C05F11400BDE8704051E425
:1009000070BDF8B5054600212C68FFF718FF0700F9
:1009100016D10026E9692046FFF710FD07000FD128
:10092000286A0078E5281CBF0028002602D1761C22
:10093000012E08D001212846FFF748FF0700E9D023
:10094000042F08BF0727380012D1E9692046FFF7B6
:10095000F5FC07000CD1286A20220021FFF736FCA5
:10096000286A0B2205F12401FFF728FC0120E07022
:100970003846F2BD70B50C46054600216172E86943
:1009800048B3002004F109062A6A525C491C202A57
:100990000BD0052A08BFE522092902D12E233354A2
:1009A000401C04F109031A54401C0B29ECD304F138
:1009B000090200211154286AC17A21722A6A02F1BF
:1009C0001C00FFF7E4FB2060286A1630FFF7DFFB0E
:1009D000E080000CA08070BD2DE9F84304460F466E
:1009E000D4F8008000E07F1C38782F2818BF5C28DE
:1009F000F9D00020A06004F12406397820292ED2F5
:100A00008022F27200212046FFF799FE024693E011
:100A10003278E52A04BF05203070202DCCBF00209D
:100A20000420F072002125682046FFF788FE0200AE
:100A300072D0F07A11007AD140077DD4A179C8062E
:100A400079D56069B8F80C10B0FBF1F201FB120027
:100A5000404400F134014046FFF72DFFA0600B2217
:100A600020213046FFF7B2FB0021002208230FF2BD
:100A7000D00CDFF8C4E60FE009F1010999F8000095
:100A8000002818BFA842F7D140BBA5F161001A2881
:100A900038BF203D7554491CBD5C521C202D1ADD09
:100AA0002F2D18BF5C2D11D02E2D09D0994215D2B3
:100AB000802DA4BF0EEB050010F8805CE146DDE759
:100AC0000B2B0BD008210B23E6E7521CB85C2F2818
:100AD00018BF5C28F9D00029174499D106222BE0D1
:100AE000C87A236A00F03F00A071D87A01070DD4BC
:100AF000B4460B2113F801EB1CF8010B491EAEEBB9
:100B0000000001D00028F5D0002892D00021204616
:100B1000FFF75CFE02008CD1E16900F0B6F902003B
:100B200087D1216A08780028DAD1042281E7042AD3
:100B300002D1400700D405221046BDE8F283000030
:100B4000222A2B2C3A3B3C3D3E3F5B5D7C7F0000E4
:100B500002464FF0FF301168002900D1704710B5F0
:100B60000B4600E05B1C1C78212C01D33A2CF9D1F8
:100B70003A2C0CD111F8014B303C0A2C08D2994286
:100B800006D1022C04D2591C2046116010BD002051
:100B900010BD10B5044600224FF0FF33E27023630E
:100BA000FFF7CCFB08B1042010BD04F23220FFF7A0
:100BB000EBFA4AF65521884201D0032010BD04F11A
:100BC00034000178E92904D0EB2904BF807890280B
:100BD00013D104F16A00FFF7DAFA20F07F40DFF862
:100BE0005C15884207D004F18600FFF7D0FADFF8E1
:100BF0005015884201D1002010BD022010BD000018
:100C0000A44800202DE9FF410E4600213160144622
:100C1000FFF79EFF070048BF0B2007D4DFF82485AD
:100C200008F1040050F827500DB90C2027E1356079
:100C300004F0FE04287848B1687800F007FCC1078A
:100C400004D4002C01D040070DD417E100202870F7
:100C50006F70687800F003FCC10748BF032003D41D
:100C60001CB1400701D50A2009E1687805F10C02A2
:100C7000022100F01BFC90BBA889A0F5007140F692
:100C8000016291422BD2411E084228D10021284600
:100C9000FFF77FFF002702281FD1002405EB041176
:100CA00001F5F971087918B101F10800FFF76FFA41
:100CB0004DF82400641C042CF0D300265DF8264077
:100CC00024B121462846FFF764FF00E003200128F5
:100CD00002DD761C042EF1D32746042801D1012021
:100CE000CDE0012817DC05F13F00FFF74DFAA98997
:100CF000884210D105F14A00FFF746FA18B905F10C
:100D00005800FFF744FA05F14101E861CA78AA707A
:100D1000012A18BF022A72D150430646087868811A
:100D200001006CD0421E104269D105F14500FFF769
:100D30002BFAA9892881490990FBF1F201FB1200E5
:100D400000285CD105F14700FFF71EFA040004D12A
:100D500005F15400FFF71BFA044605F14200FFF7C6
:100D600013FA00284BD0AA8929894FEA521E33185A
:100D700091FBFEF2D3189C4241D3B5F80AC0E41AA5
:100D8000B4FBFCF2002A3AD003244FF6F67C62450D
:100D900038BF022440F6F67C624538BF0124921C1D
:100DA000C019DB19032CAA612F626862EB6210D1B3
:100DB00005F15E00FFF7E8F9002804BF2889002844
:100DC0001DD105F16000FFF7E2F9A862A869800073
:100DD0000DE0A1B1686A3618AE62022CA8690FBF97
:100DE000400000EB400100F0010000EB5100A98938
:100DF0004A1E1018B0FBF1F0E969814201D20D20C2
:100E00003DE04FF0FF30686128618020032C28719D
:100E10002AD105F16400FFF7B7F9012824D1791C24
:100E200000F033F800BB287105F23220FFF7ACF96F
:100E30004AF65521884217D105F13400FFF7A7F98A
:100E40003749884210D105F50670FFF7A0F93549FA
:100E5000884209D105F50770FFF799F9686105F532
:100E60000870FFF794F928612C702846B8F8004004
:100E7000641CEC80FFF731FAA8F80040002004B0B1
:100E8000BDE8F081B8FBF0F041182846FFF756BAEC
:100E900070B5044609260D46002C1CBF21680029A8
:100EA0000DD0087858B1A088CA88904207D14878F8
:100EB00000F0CCFAC00702D42068002600E0002031
:100EC0002860304670BD73B582B015460091684603
:100ED000FFF73EFE002848BF0B201ED4994901EBC6
:100EE0008006746824B12046FFF7F7F900212170CD
:100EF000029810B90021716008E002990020087082
:100F0000029A7260029808B1012D01D0002004E01D
:100F1000002202A903A8FFF775FE04B070BD00000F
:100F200052526141727241612DE9F2418DB004006B
:100F300008BF092000F0FC8002F03F073A466946EE
:100F40000DA8FFF75FFE06001DD100980D990190D6
:100F500001A8FFF741FD06000DD19DF83300010601
:100F600048BF062607D417F0FE0118BF012101A8CB
:100F7000FFF731F9064617F01C0F00F0AE80300085
:100F800000F0A180042E40F0D0806F49086800284E
:100F90001EBF08690028122603D101A8FFF7B1FC83
:100FA0000646300047F0080735D1380739D500F03C
:100FB0008DFA0546099829460E30FFF7F7F809988B
:100FC00029461630FFF7F2F809992020C872DDF89B
:100FD000248000984146FFF76EFC054600980022E9
:100FE0004146FFF77BFC099800211C30FFF7DEF833
:100FF00000990120C87085B10098D0F8308000F0C9
:1010000007FA060007D100984146FFF797F9064610
:1010100000986D1E0561300054D1380748BF47F075
:1010200040070098016B616217F0FE010998A06209
:1010300018BF012101A8FFF7FBF800285BD0206151
:10104000099D00982946FFF736FCA06005F11C00B9
:10105000FFF79DF8E0604FF480520020E0620099B5
:1010600021600098C188A180002060750021A061E6
:101070002162277504F13000FFF7A8F8B80656D5AD
:10108000E568002D53D0A561009847898089A16843
:101090004743AF420CD22046FFF7B9F90146022977
:1010A0002CD311F1010F2BD0ED1B3000F1D02CE02F
:1010B000E1610098808900F049F838D000F0AEF97D
:1010C00028BB022631E09DF80A0010F0110F10D164
:1010D00078077FF56AAF082627E030009BD19DF89E
:1010E0000A00C10648BF04261FD4B90795D5C0071A
:1010F00093D5072619E00226206116E0022604E0B7
:101100004FF0FF300126E0610FE0E1610DE0009A51
:101110009189B5FBF1F108182062024600984078E9
:10112000012300F04FF910B1012600202060304665
:101130000EB0BDE8F0810000885A00084641540016
:1011400046415433E0480020A4480020B5FBF0F2AB
:1011500000FB1250002870470746694698E62DE9C3
:10116000FC471446984600228946C8F80020FFF73D
:10117000F3FF010001D1787D010040F0AE80387DA1
:10118000810758BF072040F1A880B8692118814223
:101190002DD24FF0FF32141A29E0084620E0C7F89C
:1011A00020A00099BB698989B3FBF1F64E43C81AA8
:1011B00030182546844288BF054607F130009B1B46
:1011C0002A4649461844FEF7F9FF387D40F0800072
:1011D0003875B869F96828188142A944B861DCD229
:1011E000F860641BD8F800002818C8F80000002C2C
:1011F0006ED000F079F8D4D100984289521E154083
:1012000018D111B9B86850B906E0F86A18B1384673
:10121000FFF77EFA03E0F9693846FFF724FA002861
:1012200056D001283CD010F1010F4ED0B968F861BA
:1012300001B9B860387D010607D500983A6A00F018
:101240005CF8002841D100F04AF800F0E6F838B325
:1012500005EB000A00988189B4FBF1F616B34089CA
:101260007119884238BF461B009840783346524671
:10127000494600F00DF940BB386AA0EB0A00B042C5
:101280000AD200998A89504309EB000107F1300026
:10129000FEF794FF00F023F800988589754398E7DE
:1012A000022013E0386A50450DD0B969F8688142D0
:1012B000BFF475AF009840780123524607F1300122
:1012C00000F0E0F800283FF46AAF0120787504E0F0
:1012D000387D40F0400038750020BDE8F687387D45
:1012E00000F07F00387570470098B9698089B1FBBC
:1012F000F0F500FB1510002870474078012307F136
:10130000300100F0C5B87CB500F060F8010037D1BD
:10131000217D4A0634D5080606D500F032F808B11A
:10132000012076BD00F049F800F0D0F80546616A6A
:101330000098FFF703F8010022D1A66AF07A40F086
:101340002000F0723146A2682068FFF7C7FAE16812
:1013500006F11C00FEF72AFF294606F11600FEF7EB
:1013600025FF002106F11200FEF71CFF0099012065
:10137000C8700098FEF7FCFF217D01F0BF012175C8
:1013800076BD0098226A4078012304F1300100F014
:101390007FB81CB50446FFF7B6FF01000CD16946C3
:1013A0002046FFF775FD010006D12069FEF77AFFA0
:1013B000010004BF0021216016BD207D00F07F00E8
:1013C0002075704704F1300100F05CB804466946AE
:1013D000FFF75EBD31B58CB00C46002269460CA803
:1013E000FFF710FC050010D10C996846FFF7F4FADE
:1013F00005000AD19DF82F00010648BF062504D438
:101400001CB121466846FFF7B5FA28460DB030BD3D
:101410000022294601A8FFF7F0B8F9690098FEF705
:10142000E9BF0EE002684368024408305FEAC37C0B
:1014300044BF4B445B1E52F804CB43F804CB091F56
:10144000F9D150F8041B0029ECD1704701461E4A1F
:10145000531802EB81014A68187B516808471A4B00
:1014600002460020995C002900D0704710B5012485
:101470009C5403EB82019C184A68207B1368BDE8EA
:101480001040184770B500F009F8AC68A04770BD6F
:1014900070B500F003F8EC68A04770BD04460A4D33
:1014A0002E1905EB84046568307B704738B5034618
:1014B000054CE51804EB83035C68287B236901B0C5
:1014C000BDE8304018470000C448002000207047A5
:1014D00038B5040017D004F13405287820B900216C
:1014E0002177204600F0F2FB03202870204600F010
:1014F0000CF8010005D10020686000222263012061
:101500002870080000D0012032BD2DE9F8418FB0CD
:1015100005460020762603900490059006900790DB
:10152000089603A983B06846182200F025FC0EBC7B
:10153000286800F02DFC002865D1DFF828452060E0
:101540000027286800F03FFC0120206000260220D0
:1015500000F0C0FE0020009005F13404286800F07F
:10156000CAFC00284FF0805846D1286800F0E6FCFD
:1015700070B16661286800F0BEFC00283CD160694B
:1015800001280FD12868002100F0EBFCE0B909E048
:1015900001206061F6E700F066FB07460098401CFA
:1015A000FE0F00904FF6FF70009981420ED26EB987
:1015B0002868002100F0D5FCF0B92868DFF8A814ED
:1015C00000F0DAFC0028E6D0404617E0009981429E
:1015D00028BF4FF0807011D217F08047384618BFEF
:1015E000012020610121ADF80C10286800F0F0FB0B
:1015F00058B94FF0806001E00028F3D0012121703C
:10160000626810436060012063E02069032835D0E0
:10161000286800F0C5FC0028F0D100F024FB20640D
:1016200000F05AF86064082100F057F8A0640C211B
:1016300000F053F8E064206903281FD0286803A94C
:1016400000F0CFFC0028D9D12069032816D0BDF8BE
:101650000C10E1610904286800F0B4FC0028CDD129
:1016600000F001FB206300F037F86063082100F010
:1016700034F8A0630C2100F030F8E06300F02CF89F
:10168000000DA06104A9284600F0F0F900289BD1C4
:10169000E26928681204002300F021FC0028ADD183
:1016A00083B0291D6846182200F066FB0EBC28682E
:1016B00000F06EFB00F0C0FA50B12A68DFF8741534
:1016C00091630122616801436160227000B10120D1
:1016D000C0B210B0BDE8F0810421286800F08DBBD5
:1016E0002DE9F04F87B005460C469246984600F02B
:1016F00005FE0090264605F134071CB9786840F0D5
:101700000060C4E03878012840F0BE800021796094
:1017100008EB0A02B86A904202D200F092F9B7E0F0
:10172000032038702A68D1623869012818BF4FEA4F
:101730004A2A4FF0FF314FEA48220191029290214C
:10174000022203910492002101220591069201A92F
:1017500000F07DF9B8F1020F06D30220286351464C
:10176000286800F079FB05E00120286351462868CD
:1017700000F067FBDFF8BC44E0BBDDF808A0DDF853
:1017800040B02868416B40F22A32114226D1406BAA
:1017900001040ED5BAF1000F0BD0AAF1200A4FF0C8
:1017A0000809286800F009FB00F076F8B9F1010992
:1017B000F7D100F0A3FD0099401A584502D2BBF1C1
:1017C000000FDED1286884630120796841F0004170
:1017D000796038700021296303205AE0416BCA0503
:1017E0000ED5B8F1020F0BD33969032908D000F0E8
:1017F00061FB28B129688C637A68104378603BE00C
:101800002868416B0A0704D58463786840F00800B3
:101810000EE0416B8A0704D58463786840F00200CB
:1018200006E0416B8A0609D58463786840F02000A1
:101830007860012139700020286329E0DDF80090EC
:101840002868416B8A021CD5BAF1000F19D000F04C
:10185000B4FA00F021F800F051FDA0EB0900584562
:10186000AAF1040A02D2BBF1000FE9D1286884630F
:10187000796841F0004179600120387000212963C6
:1018800007E000F0D7F804E0786840F00050786096
:10189000012007B0BDE8F08F3070010A7170020CB2
:1018A000B270000EF070361D70472DE9F84F88B009
:1018B00006460C461546984600F020FD0190A246CB
:1018C00006F134071CB9786840F00060ADE0387864
:1018D000012840F0A7800021796008EB0502B86A72
:1018E000904202D200F0ADF8A0E0032038703268D8
:1018F000D1623869012818BF6D024FEA482203926D
:101900004FF0FF31002202910592069290210122B0
:101910000491079202A9306800F072FAB8F1020F40
:1019200006D3202030632946306800F0ABFA05E08A
:10193000102030632946306800F099FA0028DFF85B
:10194000F44249D1039DDDF848B03068416B40F264
:101950001A32114234D1406B41041ED5EDB1203D05
:101960004FF008091AF8010B009001461AF8010B14
:1019700041EA0021009108461AF8011B40EA0140A3
:1019800000901AF8011B40EA016000906946306837
:1019900000F014FAB9F10109E4D100F0AFFC0199AB
:1019A000401A584502D2BBF1000FCED13068846393
:1019B000012079687960387000223263032036E0B4
:1019C000416BCA050DD5B8F1020F0AD33969032955
:1019D00007D000F06FFA20B1316800F03BF83163B6
:1019E00025E03068416B0A0704D58463786840F0CD
:1019F00008000EE0416B8A0704D58463786840F0E4
:101A0000020006E0416BCA0609D58463786840F09D
:101A100010007860012139700020306306E000F08A
:101A200009F804E0786840F000507860012009B0BF
:101A3000BDE8F08F40F23A518163012038700020F8
:101A40007047796841F0007179607047694628688D
:101A500000F0D6B98C6300217A68104378600120C9
:101A600038707047A0802542000010C130B500F1E9
:101A700034031A6B920F0A701C6BA40E04F00F044F
:101A80004C701A6B120E02F003028A701A6B120C61
:101A9000CA701A6B120A0A711A6B4A715C6B240DB8
:101AA000CC804FF400745A6B120C02F00F020A72D1
:101AB0005A6BD20B02F001024A725A6B920B02F07F
:101AC00001028A725A6B520B02F00102CA725A6BFF
:101AD000120B02F001020A7300224A731A69002AEB
:101AE00040F08D80586B40F6FC7202EA8002986BE1
:101AF00042EA90720A610122986BC00E00F0070062
:101B00000875986B000E00F007004875986B400D43
:101B100000F007008875986B800C00F00700C8750E
:101B2000986BC00B00F0070008760869401C18622B
:101B30000D7E05F00705AD1C02FA05F56843186235
:101B40000D7A05F00F05AA405A62520A5043986276
:101B5000DC62986B800B00F001004876986BC0093E
:101B600000F07F00887693F8380000F07F00C87698
:101B7000D86BC00F0877D86B400F00F00300487790
:101B8000D86B800E00F007008877D86B800D00F0CE
:101B90000F00C877D86B400D00F0010081F82000DD
:101BA00001F1210000210170DA6B120C02F0010238
:101BB00042700122D96BC90B01F001018170D96B10
:101BC000890B01F00101C170D96B490B01F00101D2
:101BD0000171D96B090B01F001014171D96B890ABF
:101BE00001F003018171D96B090A01F00301C17190
:101BF000D96BC1F3460101724272002030BD012A47
:101C00000DD1586B9A6B000400F47C1040EA12402E
:101C1000086108695C62401C8002186297E70068EE
:101C2000044981630120596841F08051596018705E
:101C300030BD0000FF05400028684FF4007100F03F
:101C4000F5B8426C0A60836C4B60C26C8A60036DAD
:101C5000CB60426D0A61836D4B61C26D8A61006E1B
:101C6000C861002070472868002100F0C6B838B568
:101C700004460025216D2068090400F0CCF918B154
:101C8000A16B0843A06304E02068FFF7EDFFC0F3F9
:101C90004325284632BD000081B00020009000227C
:101CA0003048416841F480414160416801F480411D
:101CB000009100990092036843F08053036000682C
:101CC00000F080500090009801B0704710B586B0C9
:101CD00004461422002101A800F016FB21682248C6
:101CE00081423CD1002221480092416941F40061C7
:101CF0004161416901F4006100910099009203681B
:101D000043F004030360016801F0040100910099AD
:101D100000924FF48851036843F0080303600222E5
:101D2000006800F0080000900098114801910292AC
:101D30000021039103220C210591049201A900F0D6
:101D4000EDFA022102910022039204200321019066
:101D500004910C22059201A9064800F0DFFA06B0B2
:101D600010BD000040380240002C014030380240D5
:101D700000080240000C02404AB1000011F8013B8B
:101D8000521E00F8013B1CBF11F8013BF8E77047F9
:101D90000EB44368DFF82015009A0B4001991343F5
:101DA000029A0B4303991343049A0B430599134377
:101DB0000B434360002003B0704734E00968C0F86B
:101DC0008010002070470321FFE70160002070476A
:101DD000006800F00300704710B50A688260C468AC
:101DE0000A694B68240B42EA04348A68C9681C43B8
:101DF00014430C43C460002010BD143008587047D1
:101E000010B50A6842624B688362C46A8A68CB680C
:101E100024F0F70414430A6949691C4314430C4332
:101E2000C462002010BDD0F88000704718B585B09E
:101E300000F03CF8102100F030F841F28832102117
:101E400004E118B585B000F031F8112100F025F853
:101E500041F288321121F9E018B585B000F026F87A
:101E6000122100F01AF841F288321221EEE018B582
:101E700085B000F01BF8182100F00FF841F288320D
:101E80001821E3E018B585B000F010F8192100F032
:101E900004F841F288321921D8E001914FF48062B0
:101EA0000021039104920446694695E7402200917F
:101EB0000292704718B5402285B000F06DF80C21F1
:101EC00000F004F8DFF8F4230C21BFE0009001914A
:101ED00003904FF480620492694620467CE718B56F
:101EE00085B0072100920191402200F08BF841F269
:101EF00088320721AAE018B585B00446002000907A
:101F000001900290FFF7E4FFDFF8B4231168C908DD
:101F10004FF47A73B1FBF3F141F288304143084644
:101F2000411E18B1606B0206F9D503E04FF0004086
:101F300006B010BDC520A0630020F9E718B5082140
:101F4000402285B00446019102924FF4D5700021E1
:101F500000900391FFF7BDFF204600F087F906B01F
:101F600010BD18B585B0FFF7A1FF3721FFF795FF2A
:101F700041F28832372169E018B5044685B0DFF8B0
:101F80004403014300914022292101910292002142
:101F9000039100F011F849E00446029200207047D6
:101FA00018B5C02285B0FFF7F7FF0221009001911C
:101FB000039000F001F80DE04FF48062049269464E
:101FC0002046704718B585B0C022009102920921C1
:101FD00000F033F8FFF700FF204600F0BEF806B02F
:101FE00010BD30B5402285B004460D460292002057
:101FF0000321FFF76BFF2A460321204600F0F1F88A
:1020000005B030BD0292002103914FF4806204922A
:1020100004466946E0E618B585B0FFF747FF0D2195
:10202000FFF73BFF41F288320D210FE0FFF7D4FEAE
:10203000204600F0B2F806B010BD01914FF4806266
:10204000002103910492044669467047204600F03F
:1020500002F806B010BD30B5994C25680346ED086E
:102060004FF47A70B5FBF0F042431046421E30B197
:10207000586B10F0450FF8D00005F6D400E0E9E009
:10208000586B420748BF042003D4586BC20702D5DF
:102090000120986330BDC52098631869C0B288429A
:1020A00001D0012030BD58698749084201D1002084
:1020B00030BD02D54FF0007030BD410001D5402049
:1020C00030BD810001D5802030BDC10002D54FF464
:1020D000807030BD010102D54FF4007030BD410168
:1020E00002D54FF4806030BDC10102D54FF40060CD
:1020F00030BD010200D5B0E0410200D5B0E0810260
:1021000002D54FF4804030BDC10202D54FF40040EB
:1021100030BD410302D54FF4003030BD810302D5FC
:102120004FF4802030BDC10302D54FF4002030BDF4
:10213000010402D54FF4801030BD410402D54FF4A4
:10214000001030BD810402D54FF4800030BD00077F
:1021500002D54FF4000030BD85E059490A68D20825
:102160004FF47A73B2FBF3F241F288314A431146DD
:102170004A1E31B1416B11F0450FF8D00905F6D474
:1021800000E027E0416B4A0748BF042103D4416BBC
:10219000CA0701D5012199E01FE049490A68D20820
:1021A0004FF47A73B2FBF3F241F288314A4311469D
:1021B0004A1E31B1416B11F0450FF8D00905F6D434
:1021C00000E007E0416B4A0703D504218163042046
:1021D000704702E04FF000407047C5218163002046
:1021E000704730B5034636480468E4084FF47A7502
:1021F000B4FBF5F441F2883044432046441E30B12C
:10220000586B10F0450FF8D00005F6D400E021E03F
:10221000586B440748BF042003D4586BC40702D549
:102220000120986330BD1869C0B2884201D00120F6
:1022300030BDC5209863586910F4604F03D1000C7D
:102240001080002030BD410400D509E0000400D515
:1022500003E008E04FF0004030BD4FF4805030BD47
:102260004FF4005030BD4FF4803030BD14490A683F
:10227000D2084FF47A73B2FBF3F241F288314A4349
:1022800011464A1E31B1416B11F0450FF8D00905D6
:10229000F6D400E09EE7416B4A0748BF042103D40F
:1022A000416BCA0701D5012110E0416B4A0644BFCA
:1022B00040218163002070470081FFFF00E1F505A8
:1022C0000C0000200000108008E0FFFD816308463C
:1022D0007047000038B5044600F010F814F1010F03
:1022E000054602D004480178641800F007F8401B46
:1022F000A042FAD331BD00BF000000200148406871
:10230000704700BF0000002010B5044610460A4682
:102310000146204600F008F9204610BD2DE9F84F8F
:102320000D4600267549764A0F23044601202F6882
:10233000B04000EA0708804540F0D5804FEA460CDF
:10234000032707FA0CF76FEA070E6F6807F0030917
:10235000B9F1010F1CBF07F00307022F12D1A768C4
:10236000D5F80C900EEA070709FA0CF949EA0707B5
:10237000A760676827EA00006F68C7F30017B740D7
:1023800038436060B0002F7907F00307032F21D096
:10239000E768D5F808900EEA070709FA0CF949EA48
:1023A0000707E7602F7907F00307022F12D1F7081C
:1023B00004EB870700F01C09D7F820A003FA09FBFB
:1023C0002AEA0B0AD5F810B00BFA09F949EA0A090A
:1023D000C7F8209027680EEA070E2F7907F0030749
:1023E00007FA0CF747EA0E0CC4F800C06F6817F440
:1023F000403F78D04FF0000ECDF800E04FEA960C49
:10240000176847F48047176000F00C00D2F800E02E
:102410003C4F0EF4804ECDF800E0DDF800E057F8B8
:102420002C7003FA00FE27EA0E0E374FBC4208BF9D
:10243000002722D0354FBC4208BF01271DD0344FA2
:10244000BC4208BF022718D0324FBC4208BF032746
:1024500013D0314FBC4208BF04270ED02F4FBC42CF
:1024600008BF052709D02E4FBC4208BF062704D05D
:102470002C4FBC420CBF0727082707FA00F040EAA0
:102480000E00DFF880E04EF82C006FEA0800D1F86B
:1024900008C06F6800EA0C0CFF0248BF48EA0C0C49
:1024A000C1F808C0D1F80CC06F6800EA0C0CBF027C
:1024B00048BF48EA0C0CC1F80CC0D1F804C06F68E2
:1024C00000EA0C0CBF0348BF48EA0C0CC1F804C07A
:1024D000D1F800C000EA0C0C6868C00348BF48EAA5
:1024E0000C0CC1F800C0761C0F2E7FF61FAFBDE8A4
:1024F000F18F02B90904816170470000003C01407E
:102500004438024008380140000002400004024004
:1025100000080240000C024000100240001402407B
:1025200000180240001C024062F30F2262F31F42B7
:10253000401810F0030308D0C91A1FD3DB0748BFA7
:1025400000F8012D28BF20F8022D130030B41446E6
:102550001546103928BF20E93C00FAD8490728BFA2
:1025600020E90C0048BF40F8042D890028BF20F85E
:10257000022D48BF00F8012D30BC7047C91818BFA4
:1025800000F8012DCB0728BF00F8012D704700008F
:1025900070B58AB0040008BF012028D0266804F571
:1025A0003E75687820B900212970204600F0B4FB00
:1025B00003206870F16BC8055CBF002121612068B1
:1025C00000F0FEFC83B000F014F80EBC206800F0B0
:1025D000B7FC2068012100F0F9FC83B000F009F895
:1025E0000EBC206800F0C2FD0120687000200AB017
:1025F00070BD211D68463422FFF7BEBBFEB50646FE
:1026000096F8F802012801D10220FEBD0A98099C23
:10261000089D012786F8F8728E462C2717FB0EFEC0
:1026200006EB0E0738374FF0000C87F805C012F0A4
:10263000800E02F07F0C87F802C03B703881797001
:10264000FC71F44618BF4FF0010C87F803C03D71D0
:10265000029001940095306800F060FE002186F839
:10266000F812FEBD10B500F030FB01D1022010BD04
:10267000012084F8F802206800F06EFF21E30000DA
:10268000F8B50E462C2466430644069D06F139072C
:10269000BA70BB7135B9099C3C714FF0030C87F8D7
:1026A00009C001E002247C72032B089C06F1440E51
:1026B00013D8DFE803F002100C0C012D08BF002A2C
:1026C0000BD1220004D101228EF8112000E0D2B9F2
:1026D0009EF81120DAB900237B72079ACEF8002009
:1026E000CEF8084000228EF81C20CEF80C2039705D
:1026F0008EF81D2006F1380102690068BDE8F84037
:10270000D2B200F08DBE9EF81020002AE3D0022342
:10271000E2E72DE9FE4F05462C68204600F0FFFC5D
:102720000128274640F0B18200F0B1FA002800F0FD
:10273000AC8200F0ACFA800203D52A684FF4001195
:10274000516100F0A4FAC00203D52A684FF4801149
:10275000516100F09CFA400103D52A684FF0806176
:10276000516100F094FA800702D52A680221516174
:1027700000F08DFA800016D52A684FF000515161A3
:1027800007F588600168CA070DD41021204600F0C3
:1027900049FC204600F068FC2868012100F059FD42
:1027A000284600F00AFB00F072FAC0014CD52C68F4
:1027B00004F58868D8F800100191D8F8002000923C
:1027C000009820F02E0000900198810709D501980B
:1027D000C10744BF284600F0ECFA009840F0020020
:1027E00000900198010725D5009840F0080000905E
:1027F000019841071BD5A86902280BD128680199C7
:1028000001F4C021B1F5802F0CBF0221012100F09D
:1028100020FD08E0E868012805D104F5806B4EF63C
:102820006021CBF80410284600F0CCFA02E02846DC
:1028300000F0CCFA0198810603D5009840F0200002
:1028400000900098C8F8000000F021FA000705D5B4
:10285000284600F0AAFA29680820486100F017FA13
:10286000C00649D52868816921F010018161286876
:10287000016A01F00F0AC1F30A18C1F343410229AA
:10288000834634D1B8F1000F31D02C2111FB0AF16D
:102890006C18616C59B3236DE26C43449A4204F1A5
:1028A000540622D3424600F012FC606C404460643F
:1028B0000BEB4A10216D414400F5A06B2165DBF85C
:1028C0001000B4F84010414511D1C000800D0ED069
:1028D000DBF8000020F0804040F00040CBF8000022
:1028E000307880F00100307001E0042131732868F5
:1028F000816941F01001816100F0C9F9800140F166
:10290000C481286800F023FE002302970190009301
:102910004FF4806B02240FE0147004E014703B68E5
:1029200064F39F733B600220B8601278284600F081
:1029300048FA0098401C00900098A968884280F0EE
:10294000A0810099019801F00F01C840C007F0D59F
:102950000298009A9DF800102F6800EB421000F5D5
:10296000A0604FF400790068020440F1C6808846F8
:1029700007EB481707F5A0672C2010FB08F005EBC4
:10298000000AB8680AF16006410748BF042020D455
:10299000B868C10504D54FF48070B86007211AE00B
:1029A000B868810602D52020B86017E0B868010732
:1029B00003D50820B86005210DE0B868410504D5AD
:1029C000C7F808B00820707006E0B868010605D5A1
:1029D0008020B8600621717000F05FF9B868810549
:1029E00004D500F05AF9C7F80890A2E7B868C10703
:1029F0003BD5286938B1DAF848003969C1F31201CA
:102A0000401ACAF85000012070700021CAF85C100A
:102A1000B8609AF83F00002818BF02280FD003289A
:102A200018BF01280FD1386840F0005038600121EC
:102A3000317001224146284600F0C3F903E000F05E
:102A40002CF91020B8602869012807D1DAF848006D
:102A5000BAF84010B0FBF1F1C80705D59AF8541048
:102A600081F001018AF8541063E7B868810728D51E
:102A70007078012814BF052830701DD0062818BFB3
:102A8000082807D0032812D0072815D1DAF85C00EF
:102A9000401C07E0DAF85C00401C0328CAF85C0020
:102AA00005D30020CAF85C000421317004E03470C2
:102AB000396864F39F7139600220B860414632780A
:102AC00034E7B868C10617D59AF83F00032803D148
:102AD0000020CAF85C000AE0002818BF022809D1CB
:102AE0000021CAF85C10286920B9032171704146A1
:102AF00000F0D0F81020B8601BE707EB411707F58E
:102B0000A0672C2010FB01F0BA682E18500707D5DB
:102B10000422BA60062086F8610000F0BBF808E7DE
:102B2000B868800606F13C0306F1600208D5202053
:102B3000B86058780128F2D1002058701470ECE782
:102B4000B868800548BFC7F80890E6D4B868C007E1
:102B50000DD500201862BA68500603D501225A70BC
:102B60004020B8600122BA6086F86120D5E7B868D5
:102B700040060AD5042086F8610001220020186270
:102B80005A7000F087F84020B5E7B868000703D511
:102B90000820B8600522E7E7B868C0060CD5002019
:102BA0001862032086F861005A78002A01BF18785D
:102BB000002801225A709BE7B868000619D52869D9
:102BC00028B9062286F8612000F064F80EE0186A41
:102BD000401C0328186208D30020186204231370D5
:102BE0000422284600F0EDF800E014708021B9605E
:102BF0009FE6B868400507D5082086F8610000F018
:102C000049F8C7F808B094E6B8688007FBD596F88D
:102C1000610001281DD11070D878022818BF032840
:102C200016D1286918B9587E80F0010058762869B5
:102C300001280DD1186900280AD09E883044401E12
:102C4000B0FBF6F0C00703D5587E80F0010058763F
:102C500069E6032818BF04283FF45EAE052808BFC4
:102C60001070F5D0062818BF082809D1186A401C32
:102C700003281862FFF452AE002018620423137078
:102C800051E629684FF000704861BDE8F78F286869
:102C900000F040BA286800F05FBC2868414600F0A8
:102CA0005BBC10B500F011F801D1022010BD01206D
:102CB00084F8F8020121206800F0FEFA206800F094
:102CC0007BF9002084F8F80210BD044694F8F8025D
:102CD0000128704710B5FFF7F8FF01D1022010BDA1
:102CE000012084F8F802206800F094FCE9E700680D
:102CF00000F0C7BA2C225143084490F86000704796
:102D00002C2251430844006D7047006800F000BB5E
:102D1000006800F0F1BA000038B586B0044614210E
:102D200001A800F0C1FC2268B2F1A04F3BD1002005
:102D30003C4C3D4D00900022216841F00101216092
:102D40004FF40071206800F001000090009801919C
:102D50000292039201A92846FFF7E0FA02210291AC
:102D6000002203924FF4C0500321019004910A22E3
:102D7000059201A92846FFF7D1FA606840F080006B
:102D80006060002100910022606940F48040606131
:102D9000606900F4804000900098432000F0A2FC9D
:102DA000432000F0BCFC07B030BDD0F8000300F0B9
:102DB0001ABFD0F8000300F02ABFD0F8000300F0DB
:102DC00030BF7047D0F8000300F01BBFD0F80003FD
:102DD00000F019BF38B5044604F573700178012975
:102DE0001CD1124DC5F8004345604FF0A04028604B
:102DF0000821A9600020012228610221E861EA601F
:102E0000A9612846FFF7C4FB08B101F007F828467E
:102E1000FFF77BFF0146204600F0E2FE002032BDB6
:102E2000000000003038024000000240D44400207E
:102E300080B5D0F8D003FFF734FFBDE8024075E05D
:102E400080B5D0F8D003FFF745FFF6E710B5D0F80E
:102E5000D003FFF75DFF012418B1022808BF022448
:102E600000E00024204610BD80B5D0F8D003FFF765
:102E70003EFFE2E7D0F8D003FFF742BF3EB5BDF812
:102E800020409DF81C50029401959DF81840009434
:102E9000D0F8D003FFF7B2FBBDE83E4046E080B576
:102EA000D0F8D003FFF7DEFBC7E738B584B09DF854
:102EB0002C40BDF8285003940295099C9DF82050A1
:102EC00001940095D0F8D003FFF7DAFB05B0BDE818
:102ED00030402BE0D0F8D003FFF70CBF80B590F85E
:102EE000CC03012804BF084600F0ACFFC820FFF760
:102EF000F1F9002002BDD0F8D0032C23594301443E
:102F000011F83B0F002814BF4A768A7600207047DC
:102F1000D0F8D0032C225143014411F83B0F08B1E3
:102F2000487E7047887E7047FFF7D4B9014600207D
:102F300021B1022901D10120704702207047000011
:102F40000EB418B504460898012817D1A06B20F4D8
:102F50008030A063E168DFF8D8020140E160E168F9
:102F600021F44011E1600F98012803D1E06840F49A
:102F70008010E060204600F0D6F80FE0E06840F0F6
:102F80004000E060204600F0CEF80C990029A16BCB
:102F90000CBF41F4803121F48031A16306990129ED
:102FA00007D1A16841F00601A160A16841F02001AC
:102FB000A16012BC5DF810FB816841F0010102E0E4
:102FC00081684908490081600020704738B504468F
:102FD0000025E06820F0C0400129E0600FD1E068E2
:102FE00040F00050E0600120FFF774F960696D1C4B
:102FF000C10701D4322DF6D3322D11D10EE069B9BB
:10300000E06840F08040E0600120FFF763F960690C
:103010006D1CC107F0D5322DF6D3EDE7012032BD8E
:10302000002032BD18B500220092DFF8C825009BB1
:103030005B1C0093009B934212D20469002CF6D5CE
:1030400000248901009441F0200101610099491C8C
:1030500000910099914203D203699906F6D401E0E8
:10306000032012BD002012BD81B000210091DFF8C5
:103070008415009A521C0092009A8A4210D2036969
:10308000002BF6D50023009310220261009A521CF7
:103090000092009A8A4203D20369DA06F6D401E06C
:1030A000032000E0002001B07047B8B5059C64B96A
:1030B000DB1C07E000EB023751F8045B07F5805793
:1030C000641C3D60B4EB930FF4D30020B2BD38B55F
:1030D000930802F00302002400F5805003E0056825
:1030E00041F8045B641C9C42F9D313000DD00068C6
:1030F0006C46002320600098521EDC005B1C95B2D9
:10310000E040002D01F8010BF5D1084632BD016009
:103110000020704701464869896908407047406946
:1031200000F00100704781B000210091DFF8C41465
:10313000009A521C0092009A8A4212D20369002B14
:10314000F6D500230093026942F001020261009A61
:10315000521C0092009A8A4203D20369DA07F6D41D
:1031600001E0032000E0002001B070470EB43CB540
:10317000044604F56061002008600025A26B42F45B
:103180000012A26300F05DF8A06304F58060E16BBB
:10319000CA050BD50799012903D1026842F0040240
:1031A00007E0016821F00401016003E0026822F0F9
:1031B0000402026010212046FFF734FF00F06EFA8F
:1031C00000B1012500204FF0FF31002306E004EBA1
:1031D000401202F5A062401C9160D360069A9042B2
:1031E000F5D30020A0616161E06BC1050AD54FF401
:1031F00000706062DFF80414DFF80404A162C4F810
:10320000000108E080216162DFF8F803DFF8F813BD
:10321000A062C4F80011089800F00CF8DFF8EC0385
:103220000143A161284636BC5DF810FB0000000098
:10323000BFFFBDFF18B9A06940F01000A061A169EF
:103240007047A06B20F40020A063A06B20F48020C6
:10325000704710B500F5806001F003040268920821
:1032600092000260036823430360012908BF4BF604
:10327000803103D0022902D141F2707141600020F7
:1032800010BD1CB5002100F58864009122680092F1
:10329000009820F02E0000906420009941F4807185
:1032A0002160FFF717F8009820F4807020600A2052
:1032B000FFF710F8002016BD18B5002300F5886050
:1032C000009304680094009A22F02E020092009A63
:1032D000D30407D4012905D1009941F4805101603C
:1032E000009807E0009AD30404D519B9009921F495
:1032F00080510160002012BD81B0002100F588607E
:103300000091026800920098C0F3414001B07047FC
:1033100000F58060806880B2704700002DE9FC4DA8
:1033200000EB41170B9C07F5A0674FF0FF3E032C05
:103330001E464FF00008C7F808E02AD8DFE804F07E
:10334000021F021640F29D4A1506C7F80CA006D5CA
:10335000D7F80CC04CF4807CC7F80CC01BE0C56BE0
:10336000EB0518D5FD6845F0600510E040F29D655D
:103370001306FD600FD5FD6845F4807507E040F247
:1033800025251306FD6006D5FD6845F4C075FD6072
:1033900001E04FF001080A9DD7F80CC04CF0020C78
:1033A000C7F80CC000F580634FF0010ED3F818C0C9
:1033B00001F00F010EFA01F141EA0C019961924608
:1033C000816941F0007181614FEADA1BFFF794FFD8
:1033D000022D04D1022818BF4FF4003100D1002182
:1033E000B6054FEACA2206F0FE5602F4F042164332
:1033F0000C98A20402F440221643C0F30A000643CC
:1034000046EACB360E433E60032C18BF012C03D195
:10341000386840F0005038604046BDE8F68D000046
:10342000F8B54C78C36B00EB4416DF0506F5A066D3
:103430000CD50B7953B9012A18D1CB79002B18BFC1
:10344000022B03D1F36823F07003F3604C69B4B12D
:103450000B891F197F1EB7FBF3F7BFB2B7F5807F4B
:103460000EDD1B024FF480770B6109E0130004BFEF
:103470004B79012BEAD1214600F0B0F865E0012735
:10348000CB780BB10C897C430C61C4F312045A4B0A
:1034900003EAC7438F7A7F071C4307F0C0473C43CA
:1034A000346113001CBFCB68736100F58065AB68A5
:1034B000346824F00054346003F00103376883F06B
:1034C000010347EA4377376033680093009C24F098
:1034D00080440094CB78002B009B14BF43F400433E
:1034E00023F400430093002A009B43F00043009321
:1034F000009B336004BFCA78002A26D14A6922B3F0
:10350000CB79032B19D8DFE803F0020D020DC46A52
:10351000D21CA4B29203B4EB124F0ED2826942F0D5
:10352000200209E02B69D21C9BB29203B3EB124F2D
:1035300003D2826942F080628261002200924A785E
:103540004B69C9689BB2FFF7B0FD0020F2BD00F5E2
:103550008060406980B2704778B5002200920446CE
:1035600004EB411202F5A062116813688568AE068B
:10357000C1F3814101D5002B2ED540F2E93300295A
:1035800018BF022908D1116841F080411160846898
:10359000A10621D4C06A06E0106840F080401060A7
:1035A00004F58064206910F47F0F11D1106820F0B9
:1035B00000401060116841F0004111600098401C0B
:1035C00000900098984207D211680029F6D403E0D1
:1035D000116841F000411160002072BD00EB411004
:1035E00000F5A0600A490161016821F0804141F0C5
:1035F00000418CE5410D03000000F81F00020001AE
:103600000003E00080006000E0004000080020A30C
:1036100000000880F8B50446002000901021A26840
:1036200052085200A2602046FFF7FCFC002500F083
:1036300035F800B10125002004EB401101F5A0612F
:10364000401C0A6822F0802242F0804210280A6062
:10365000F2D3002040F2E93304EB401101F5A06100
:103660000A6822F4004242F040420A60009A521C6A
:103670000092009A9A4202D20F68002FF6D4401CA2
:103680001028E9D304F580664FF0FF307061606167
:10369000A06840F00100A0602846F2BD00B10125FD
:1036A0002046FFF7E1BC0000002200F0D5BB00007F
:1036B0000901020002D4284881547047274B02F0C8
:1036C0000F021A4402F8041C7047254B19684FF684
:1036D000FF020002114000F4E06008432149084362
:1036E0001860704770B51E4B1C68C4F30223012498
:1036F000C3F10705052D2EBF0F2504FA05F56D1E34
:103700001E1D072E34BF0023DB1E2940994004FAFA
:1037100003F3BDE870405B1E1A401143C8E7010087
:1037200007D4012200F01F010F4B8A40400943F8E3
:1037300020207047401EB0F1807F01D301207047E8
:103740000A490B4A48600023F02010708B60072064
:10375000086000207047000000E400E018ED00E081
:103760000CED00E00000FA0500E100E010E000E0F0
:1037700023ED00E0F8B504000E4601D10220F2BDB1
:1037800004F5737504F548772A700020F8653866EB
:10379000204600F00FF80020F87000213970002258
:1037A0007A70B870310018BFAE602046FFF712FB88
:1037B0000020F2BD10B50446402104F56170FFF70A
:1037C00073FF4FF4007104F58E70FFF76DFF00205A
:1037D000207001226070A270C4F8C40322764020D9
:1037E000A071002104F5477061760022012102706A
:1037F0004170C2708270002010BD10B503460020D9
:1038000051B1D3F880233AB9012403EB8202C3F803
:103810008043C2F8781310BD022010BD10B50246D7
:1038200002F549720020147EA14201D2117010BD30
:10383000022010BDF0B50024E5B21A2675430544F8
:1038400005F242356F798F4218BFFF2909D1AE7951
:10385000964218BFFF2A04D1ED799D4218BFFF2B75
:1038600004D0641CE5B2022DE6D301E0E0B2F0BD65
:10387000FF20F0BD10B50446FFF7DAFA012120461B
:10388000FFF72CFB002010BD7FB5044602208DF809
:10389000000004F547756879012804BF03212170F1
:1038A00021780B2904F23D3204F55E761BD8DFE85F
:1038B00011F00C001B00360061017E015D0040012B
:1038C00004010C01140129015601287900280AD0AD
:1038D00001212170C820FFF727FB2046FFF7C4FA1B
:1038E00000202870306562E1E879012803D10021C9
:1038F000E970022031E1306D40F2E931884208D3AD
:10390000E878401CE870C0B2042880F025810021CE
:1039100020E10A3030650A20FFF706FB47E1F26D2F
:1039200012B10421204690476420FFF7FDFA20469B
:10393000FFF78CFA6870002105202070204600F007
:10394000B7FA60718021204600F0B2FA20710021A0
:10395000A0790290019120466A7800922B78217913
:10396000802200F092FA00F02FF920E16078012621
:10397000072804F58E720ED8DFE800F06C53392B5F
:1039800024190E04A97E29B100F014F9002818BFEB
:10399000032800D1002681E0697E31B100F00AF9E8
:1039A00008B103287AD1072041E0072137E0297EBA
:1039B00031B100F0FFF808B103286FD1062036E0DE
:1039C00006212CE0E98B204600F0D9FA40B9052009
:1039D0002DE00921204600F0D2FA08B9042026E0A3
:1039E00003285BD100F0EAF82AD30D2055E001212D
:1039F000204600F0F6FB68B90220FFF795FA2E701A
:103A00000321A079617002900021019101236A785D
:103A100000922DE0032841D10D202070002161701B
:103A20003CE01221204600F067FA10B902206070D5
:103A300034E0032832D100F0C1F828BF0D202CD289
:103A400000F002F9217900F000F9002060700021F7
:103A5000217023E00821204600F04EFA80B9687CEE
:103A6000A0716670029000200190697800912B7817
:103A700021798022204600F008FA00F0A5F80DE038
:103A800003280BD100F09AF828BF0D2005D200F0D2
:103A9000DBF8217900F0D9F8002020708DF8006063
:103AA0009DF80000002815D1E87E00212972012828
:103AB00008BF08214ED007204FE0F26D002A76D0D3
:103AC000012120469047082047E01178204600F069
:103AD00093FB00286BD109203FE0917888060ED532
:103AE0000121204600F095FB8DF800009DF80000B4
:103AF00018B19DF80000032859D10A212AE00A22B2
:103B0000227054E0B068002851D000217160316803
:103B1000927A087990421CD17160D1B189682046AF
:103B20008847C8B9062020700321F26D20469047CF
:103B30003DE0716881B10969204688478DF8000031
:103B40009DF8000008B90B2104E09DF80000022850
:103B50002DD10D2121702AE00D20207027E0F26D7B
:103B600012B1022120469047716801B3496920468D
:103B700088471CE0002068712046FFF71BFE716833
:103B800021B1C9682046884700207060F26D12B1EB
:103B9000052120469047A879012805D10021A97167
:103BA0002046FFF767FE02E02046FFF741F90020BC
:103BB00004B070BDFF23204600F0D2BAA878401CA4
:103BC000A870C0B204287047A0790290002101912A
:103BD00020466A7800922B786179002200F055B96E
:103BE000C0F8C413704700F55F718A6C521C8A6478
:103BF00003780B2B04D1096800291CBF8969084789
:103C00007047012100E0002180F82313704700F580
:103C1000487001210170002242700023837000204F
:103C2000704710B5044604F5487001214170002228
:103C30000270C2702046FFF703F9217900F005F801
:103C400000F002F8002010BD6179204600F048B96C
:103C50002DE9F84F86B000F0D1FB00F076F8142182
:103C600001A8FFF721FD00200090604CDFF88001E3
:103C70006BA501685F4EDFF88091DFF88081604FAF
:103C8000DFF880A1DFF880B141F0800101600268B7
:103C900002F080020092002200990092036843F033
:103CA00004030360016801F004010091009900928F
:103CB000036843F001030360016801F00101009112
:103CC000009900920121036843F008030360006833
:103CD00000F00800009000982046FEF70AFC012141
:103CE00001910291204600210391049101A9FEF760
:103CF00015FB0022454842608260C2600261426159
:103D0000042243490160826100F092FB47A45946B6
:103D1000504600F0FEFB387000F0A5FB584600F05E
:103D200012FC4146484600F0F4FB307000F010FCF5
:103D3000284600F01BFC2146284600F030FC00F02D
:103D40000CFC404600F0FFFBE1E780B592B030216B
:103D500006A8FFF7A9FC142101A8FFF7A5FC002085
:103D600000904FF480332B48016841F0805101608E
:103D70000021006800F080500090009826480091D3
:103D8000026842F4804202600122006800F4804030
:103D9000009006A80099069202214FF480020C912F
:103DA0000D9219214FF4A8720E910F920221072251
:103DB00007931091119200F01FFC08B100F02EF84B
:103DC00002210291002203920F204FF4A051019092
:103DD00004914FF480520592052101A800F09CFD4A
:103DE00008B100F01BF813B000BD0000000802404D
:103DF00030380240D4480020985C0008D8480020A1
:103E0000D5480020AC5C0008DC480020D8470020E2
:103E1000002C0140403802400070004072B6FEE7BE
:103E2000746573742E7478740000000048692074FF
:103E3000686572652C207468697320697320616CF1
:103E4000690A0000020018BF012201210148FEF7A3
:103E500050BB00BF0008024000B500BF13009646EB
:103E60009446103928BFA0E80C50FAD85FEA417C8C
:103E700028BF0CC048BF40F8042BC90728BF20F852
:103E8000022B48BF00F8012B00BD3EB5BDF8204015
:103E90009DF81C50029401959DF818400094FEF77F
:103EA000EDFF00203EBD80B5FEF7F9FF002002BD0A
:103EB00070B5002300F56174D8B254F820502E0478
:103EC00006D55B1CD8B21028F6D34FF6FF7005E07C
:103ED00041F4004100F00F0344F82310C0B270BD5C
:103EE000102907D200EB8100D0F88413C1F30E0132
:103EF000C0F88413002070477CB506460D4606F5D1
:103F00008E74009523464FF48072002100F04EF924
:103F1000010033D106F2263122780A7063784B70A3
:103F2000A278E37842EA03224A8022790A7163790F
:103F30004B71A2798A71E279082A18BF102A03D03E
:103F4000202A1CBF402A4022092DCA7116D3227A8A
:103F5000637A42EA03220A81E37AA27A42EA0322DE
:103F60004A81637B227B42EA03228A81A27B8A7395
:103F7000E37BCB73227C0A74637C4B7476BD2DE9A2
:103F8000F84F81460F46009709F11C034FF4007269
:103F9000002100F00BF9010040F0DE8009F21D3035
:103FA00099F81C10C176002599F81D30037799F80F
:103FB0001E0099F81F10002640EA012009F11C029A
:103FC000B0F5807FA8BF4FF4807009F23A342080AA
:103FD00099F82000A07009F121000178E170437880
:103FE00023718178617109F21D31C078A071C87E9A
:103FF000092803D009F21D300921C1760A2FC0F02B
:10400000AA800920ADF80000BDF800002188884290
:1040100080F09A806946104600F011F90246507807
:10402000042840F08E80117809291CBF09201070E7
:104030001A21714309EB010A0AF2423710783870ED
:104040004FF00008517879709078B870D178F97095
:1040500010793871517979719079B871D179F97194
:10406000107A387206E0032B08BF002800D1032520
:1040700008F1010839795FFA88F088425FD2BDF80B
:1040800000002188884269D26946104600F0D7F8BE
:10409000024650780528EDD17879012804BFB87917
:1040A000022806D1F87948B91178092906D00920E3
:1040B00003E01178072901D0072010705FFA88F01B
:1040C0000AEBC00101F55371107808700025537890
:1040D0004B7090788870D378CB7092F804C0507988
:1040E0005CEA002CA1F804C09079887108BF032510
:1040F00012D00CF4784CA1F804C092F804E092F8C5
:1041000005B04EEA0B2ECEF30A0EBEF5007FA8BF17
:104110004FF4007E4EEA0C0CA1F804C003F0030338
:1041200099F81D1341B9012B18BF032BA0D100280A
:104130009DD011289CD39AE7012B94D1F7E7761CE8
:10414000F6B2022EFFF460AF99F83C030228C8BF14
:104150000220864202DB2846BDE8F28F0320FBE7FF
:10416000F8B50446154600931E4604F58E7741F4D3
:1041700040723B46002100F019F8010004BF797835
:10418000032912D139788B1E9E4224BF8E1EB6B2EF
:10419000002106E06218891C92F81E2105F8012B07
:1041A00089B2B142F6DB00212970F2BD38B58578BD
:1041B0001446049A012D10D141F08001017444820B
:1041C000062104F47F444174B4F5407F07BF40F2F8
:1041D0000941818200248482C2821946BDE83840A8
:1041E00034E08278012A06D1002305220374427448
:1041F00041828382C38209E08278012A06D10023AA
:1042000009220374427441828382C3820022002106
:104210001CE08278012A06D1002303220374427431
:1042200041828382C382F1E78278012A06D1022388
:1042300003744274002343828182C382E6E70A88C2
:104240000378D3180B800178084470477CB5054685
:104250000124A878012802D0022806D0C7E0A9606E
:10426000AA8102212876A970C1E0287E401E0A2872
:1042700005F571760FD8DFE800F0A5897F726752E7
:1042800048382D200600687E401C6876C0B203289E
:1042900002D22C76AC709DE0326906212846904708
:1042A0000020687628466979FFF71AFE29792846A2
:1042B000FFF716FE0020287044E000F09AF801286D
:1042C00002D100240D2084E0022808BF0920FAD082
:1042D000042874E0009400226B790021284600F045
:1042E000B6FB3068E8810A2164E0297900F082F8A1
:1042F000012803D10D20287600246BE0042808BF94
:104300000B2066D0052865D132E02B7900220021F0
:10431000284600F0A2FB3068E88108214AE000F05E
:1043200068F8012808BF072053D0052802D10C20C7
:1043300028761DE0022808BF05204AD0042849D16C
:104340000B202876022445E000946B79AA89A9689D
:10435000284600F07CFB3068E88106212AE02979B4
:1043600000F048F8012808BF092032D0052801D103
:1043700003242FE0042822E031682B79AA89E981FF
:104380002846A96800F069FB042022E000F031F81B
:10439000012811D1297CE88A01F0800128B1802907
:1043A00008BF032015D0052104E0802908BF09209B
:1043B0000FD0072129760DE0042818BF022809D163
:1043C0000B2006E06A7905F11001284600F034FB65
:1043D00002202876002C18BF032C04D101200021D4
:1043E000A870297603E0022C04BF0120A8702046A3
:1043F00076BD69792846FEF76DBD000080B50B4893
:10440000016841F400710160026842F48062026058
:10441000016841F4807101600320FFF756F90F2015
:1044200000F04CFBFDF738FC002002BD003C0240D0
:1044300010B51D4C0FF2350101222046FFF79AF905
:1044400008B1FFF7EBFC19492046FFF7D6F908B190
:10445000FFF7E4FC2046FFF70DFA18B1BDE8104065
:10446000FFF7DCBC10BD1048FFF70EBA10B50229EB
:104470000F4805D0042913D0052913D1032110E0DA
:104480000222027000F03AFB0AA4204600F044FB2E
:104490000BA1204600F054FBBDE8104000F033BBF8
:1044A0000121017010BD0000FC4000201000002020
:1044B000F8480020746573742E747874000000004E
:1044C000486920746865726520746869732069732F
:1044D00020616C690A00000070B51C4CA57B034686
:1044E0000120012D14DCA57B00206055A07B04EB8E
:1044F00080067360A07B20440273A07B421CA273E1
:10450000303008702F223A2048708A700020C8701E
:1045100070BD0022E0E70D4B997B02460120002987
:1045200000D1704710B51278303AD2B203EB820452
:10453000616839B100201A4460601073987B411E95
:104540009973002010BD0021E5E70000C448002059
:1045500080B501222449254803E080B50122224983
:104560000020FCF7B0FC2249087001BD70B500F0D6
:1045700011F8287008B9002070BD1E4E0B2221468C
:104580003046FCF7D1FC287018B93046FCF701FF23
:10459000287070BD164D0446291DFCF71BBFF8B5E9
:1045A00000F01CF8307088B9124F3222214638468C
:1045B000FCF7BAFC307048B9284600F0F3FA00F076
:1045C00006F830703846FCF7E4FE3070F2BD024663
:1045D00006F1200329463846FCF7C1BD0D46044EBE
:1045E0000446311DFCF7F6BED848002034000020F8
:1045F0005C4800209C2000202DE9F843040016D0E0
:104600002078DFF80463C10713D5B06800F00C0010
:10461000042807D0B06800F00C0008283DD170686D
:1046200041023AD53068810303D56068002800F064
:1046300065812078B54F810719D5B06810F00C0F4F
:1046400007D0B06800F00C0008285BD17068410208
:1046500058D43068810703D5E068012840F04E81C6
:104660003168206921F0F80141EAC0013160217808
:10467000080779D56069A649002868D001220A6038
:10468000FDF73CFE0546706F81076DD4FDF736FEE1
:10469000401B0228F7D9032033E16068B0F5803F62
:1046A00004D1306840F48030306011E0B0F5A02FC4
:1046B000306806D140F480203060316841F48031A8
:1046C00005E020F480303060316821F480213160D1
:1046D000606858B1FDF712FE054630688103A8D422
:1046E000FDF70CFE401B6528F7D3D4E7FDF706FE67
:1046F0000546306881039CD5FDF700FE401B652808
:10470000F7D3C8E7E068A8B101213960FDF7F6FDED
:1047100005463068810705D4FDF7F0FD401B0228EF
:10472000F7D9B8E73068216920F0F80040EAC10005
:1047300030609CE73860FDF7E1FD05463168880789
:1047400095D5FDF7DBFD401B0228F7D9A3E70860EC
:10475000FDF7D4FD0546706F810705D5FDF7CEFD49
:10476000401B0228F7D996E72078410760D5306CC6
:104770000025C1000BD4002000900125316C41F0D0
:1047800080513164306C00F0805000900098DFF868
:104790008481D8F80000C10513D4D8F8000040F493
:1047A0008070C8F80000FDF7A9FD8146D8F8000028
:1047B000C10506D4FDF7A2FDA0EB09000228F5D93A
:1047C00069E7A068012805D00528306F06D140F0C0
:1047D00004003067306F40F0010005E04008400001
:1047E0003067306F20F00400306741F28938A068EC
:1047F00060B1FDF783FD8146306F810713D4FDF76B
:104800007DFDA0EB09004045F6D344E7FDF776FDBA
:104810008146306F810706D5FDF770FDA0EB0900DA
:104820004045F6D337E71DB1306C20F0805030643E
:10483000A069002864D0B16801F00C0108293AD0C1
:1048400002282AD100203866FDF758FD0546306859
:10485000810105D5FDF752FD401B0228F7D91AE763
:10486000E069216A626A0843A16A490840EA821045
:10487000491E40EA0140E16A40EA0160706001209F
:104880003866FDF73BFD04463068810138D4FDF7FA
:1048900035FD001B0228F7D9FDE600203866FDF73C
:1048A0002DFD0446306881012AD5FDF727FD001B48
:1048B0000228F7D9EFE6012820D07068E26900F4F9
:1048C0008001914202BF00F03F01226A914201BF84
:1048D00047F6C0710140626AB1EB821F0ED1A26A35
:1048E00000F4403101F580315208B1EB024F02BFB4
:1048F00000F07060E16AB0EB016F01D0012000E0D0
:104900000020BDE8F28300BF0038024000004742AB
:10491000800E4742007000402DE9F04104000F4630
:1049200054D0404E306800F00700B84202D200F088
:1049300073F84BD120683C4D810712D5400703D551
:10494000A96841F4E051A9602078010703D5A8685F
:1049500040F46040A860A968A06821F0F00101431C
:10496000A9602178C80729D56068012802D1296883
:104970008A0305E0022818BF032803D129688A01A9
:1049800003D423E029688A0720D5A968890840EA6A
:104990008100A860FDF7B2FC8046A868616800F05D
:1049A0000C00B0EB810F09D0FDF7A8FCA0EB0800CC
:1049B00041F289318842F0D303202BE0306800F0C7
:1049C0000700874204D200F027F801D0012021E03F
:1049D0002078410705D5AA68E06822F4E052024336
:1049E000AA602178080706D5A968206921F46041EA
:1049F00041EAC001A96000F0DFF8AA680B490C4B3E
:104A0000C2F30312895CC84018600A48006800F0CD
:104A100055F80020BDE8F0813770316801F00701DA
:104A2000B9427047003C024000380240245C000854
:104A30000C000020080000207FB5144600220191E0
:104A400003920825002602950096002327E038B53A
:104A500084B000F013F8002309E07FB500F025F8DA
:104A600000231BE038B584B000F008F802230022D0
:104A70002146FEF71AFA002005B030BD1C46089DFD
:104A800090F81D3303B10025039502920191012591
:104A9000009570477FB500F008F8022301222146F7
:104AA000FEF703FA002004B070BD029201911C468B
:104AB00000250126039500967047000038B50D4D7E
:104AC0000D4B2A7804464FF47A711868B1FBF2F264
:104AD000B0FBF2F0FEF72EFE50B9102C08D20022E7
:104AE00021464FF0FF30FEF7FDFDAC60002032BDE7
:104AF000012032BD000000200C00002080B5012202
:104B00002449264803E080B5012222490020FCF711
:104B1000DAF92149087001BD70B500F036F8287047
:104B200008B9002070BD1E4E0B2221463046FCF70E
:104B3000FBF9287018B93046FCF72BFC287070BDC3
:104B4000F8B500F01CF8307088B9154F32222146B4
:104B50003846FCF7E9F9307048B9284600F022F8E9
:104B600000F006F830703846FCF713FC3070F2BDE8
:104B7000024606F1200329463846FCF7F0BA0D46F6
:104B8000054E0446311DFCF725BC034D0446291D86
:104B9000FCF720BCDC480020804800206810002082
:104BA000CC30002000F1010310F8011B11B110F806
:104BB000011BFBE7C01A704730B5144C606800F069
:104BC0000C00042802D0082802D01DE0104830BD97
:104BD000226820680023410202F03F0204D52568C4
:104BE0000B49C5F3881003E020680A49C0F3881018
:104BF000A1FB000100F010F82168C1F30141491C3C
:104C00004900B0FBF1F030BD024830BD043802402D
:104C100040787D010024F400D3BBD9B1B2F5803FC8
:104C20005BD2022A1ED98C46B1FBF2F102FB11C302
:104C30001B0443EA1043B3FBF2FC02FB1C3380B2BB
:104C400040EA0343B3FBF2F002FB103240EA0C40AF
:104C500000237047022A05D98446B0FBF2F002FB1C
:104C600010C270474AB105D100F0010249085FEA5D
:104C70003000704700220023704700F051B80B004D
:104C80000200002100207047F7D300220023704764
:104C9000904271EB030CF2D370B5B1FA81F4B3FA20
:104CA00083F52C1BA340C4F1200532FA05F63343EB
:104CB000A2405FF00046E64002E05B085FEA320295
:104CC000841A71EB030524BF204629467641F4D3AC
:104CD00002000B003000002170BD70B5B1FA81F404
:104CE000B2FA82F5C4F120046419B4F12006DAD3D3
:104CF000B2405FF00044F440002502E052085FEA51
:104D00003303C61A71EB020E24BF3046714664416C
:104D10006D41F3D302000B002000290070BD00009C
:104D200070470000FEB5054605F547765023346E02
:104D300021790622FEF77EFD0746FF2F0FD0022FB6
:104D40000DD201462846FEF769FD40B94FF4807048
:104D500000F05EFA316EC861306EC4690CB9022091
:104D6000FEBD4FF480712046FEF79EFC1A2047439B
:104D7000E81900F24E3001780A0603D5E171418846
:104D8000618102E0A17141882181017A0A0603D57F
:104D9000E1714089608102E0A17140892081002198
:104DA00021736173A1732846A179FFF781F86071BF
:104DB0002846E179FFF77CF82071284600F0DCFAFC
:104DC000A279002A1CBF208900281BD000F01CF803
:104DD0006179FFF75AF8E279002A1CBF6089002840
:104DE00010D000F011F82179FFF74FF82179002257
:104DF0002846FEF780F8617900222846FEF77BF806
:104E00000020FEBD0320FEBD029002200190284636
:104E1000717800913378704738B50446D4F87C0334
:104E2000C569697941B12046FFF73DF869792046A7
:104E3000FFF756F800206871297941B12046FFF745
:104E400032F829792046FFF74BF800202871D4F872
:104E50007C03C06928B100F083FBD4F87C130020E8
:104E6000C861002032BD70B5D0F87C13CC69A17B3D
:104E70000125002918BF022902D0032922D027E0EA
:104E8000214600F06EFA0328054603D10020207069
:104E9000002501E028001BD1207803282CBF022028
:104EA000401C2070022300200026217888420FDA5F
:104EB00034224243A118401C81F8923081F8C1602D
:104EC000C0B2F2E70021FFF7AFF908B9E07BA073A9
:104ED000284670BD2DE9F04700F55F744FF0010AD8
:104EE0002168D1F81C9099F80C1021B1012908BF54
:104EF0004FF0000AAFE009F1F80799F8003039885F
:104F0000994280F0A180342509F19108694309F1A3
:104F1000900608F801A0398805FB01F2B35C082B64
:104F2000E8D8DFE803F00598154F0A5F98988E00DF
:104F30000420B054A36C7B608DE04A449F32C9B218
:104F400000F06AFB002864D0022872D105206CE0D2
:104F5000C9B200F007FB09F19201A8B9388868438B
:104F6000484490F8923003B1012380F8C130032007
:104F70003A886A430023B0543C886C4308F80430F4
:104F80003A8855434B5566E0022818D13888684363
:104F9000484490F89220022A12BF80F8C1A0002253
:104FA00080F8C1203A886A430520B05402203C882A
:104FB0006C4308F804A03A88554348554BE0042850
:104FC00049D138E04A449432C9B200F0EFFA0028DF
:104FD000BAD139886943002200F040F83888401C73
:104FE000388038E04A449C32C9B200F07AFBC8B934
:104FF00038886843484400F19001087B062818BFB0
:1050000002280BD1A26C7868121A42F210739A42ED
:1050100004D238884543022171551CE081F800A074
:1050200039880EE0022804D1082039884D43705594
:1050300011E004280FD139886943022200F00EF8EC
:1050400009E0491C398006E00021398089F80CA06C
:105050000221A26D90475046BDE8F08706F801A0F6
:105060003B885D4308F80520704700207047F8B57D
:10507000D0F87C23D3690D46342255435A1902F1E6
:10508000900501242E78052E19D027D3072E0CD099
:1050900024D2002700970023002200F07EFB58B1A5
:1050A000022816D10520287018E000220092002363
:1050B00000F057FB0028F3D12C7000240EE09C3246
:1050C00000F00FFB18B92C700221697005E002286E
:1050D00004D0042802D10820287002242046F2BD02
:1050E00002780B2A0BD1D0F87C23D36934204143BA
:1050F000581890F89110481E8041C00F704700204A
:10510000704738B504780B2C13460DD1D0F87C03CA
:10511000C569342212FB01F16C1804F190011846A4
:10512000FCF72AFE002032BD022032BD2DE9F843F3
:1051300000F066F8D8B129780B2918D100F058F89A
:1051400015D1089C062100F04AF800F026FBD5F89E
:10515000C49341462846FFF78AFF012809D100F091
:1051600035F802D330780028F3D1012139730220B9
:1051700002E0012038730020BDE8F2832DE9F843F6
:1051800000F03EF8D8B129780B2918D100F030F89A
:1051900015D1089C072100F022F800F0E2FAD5F8BA
:1051A000C49341462846FFF762FF012809D100F069
:1051B0000DF802D330780028F3D101213973022091
:1051C00002E0012038730020BDE8F283D5F8C41353
:1051D00042F210706043A1EB0901884270473973B5
:1051E00080F89010A7F8FA8000944146284670474E
:1051F000414634204143781890F8901001297047B7
:10520000054605F548768846F16DCF6930787047D8
:1052100010B50446AFF30080204600F005F80446C0
:10522000AFF30080204610BDF8B500F10F04E4088C
:10523000E400A0422BD2082C04D2082402E008305B
:1052400000F047F8DFF800211368190005D10020AD
:1052500007E00568A5420DD2011D08680028F8D1B5
:105260001868111D00E0191D0B6883420BD01D68E2
:10527000A542F8D359B10B6818680838A04208D283
:10528000586808600FE000F0CBFA0028D7D1002062
:10529000F2BD181908601D1D586828511E680F6856
:1052A000361B3E601C60096800291DBF4868002845
:1052B000081D0020106003F10800F2BD10B50400C5
:1052C00006D0AFF30080204600F003F8AFF3008073
:1052D00010BD002800D1704770B4A0F10802136817
:1052E000072B2ED913F0070F2BD1DFF85C40616834
:1052F00009B18A4203D25160626015E001464868F4
:1053000008B19042FAD308680E18B24219D39642F7
:1053100003D11B180B600A4606E0486810B113441D
:1053200098420ED350604A60506850B11368D51847
:10533000854206D1002626600168CB1813604068BC
:10534000506070BC70470000EC4800202121FF2213
:10535000017442740021002241828282C182FEF7E0
:1053600075BFA1220274FE2300224282828243740E
:105370000122C282FEF76ABFD0F87C036749C06988
:10538000674A5030416001218260017081700020C5
:1053900070470000F8B506460124D6F87C03C769BB
:1053A00007F150052878401E0A281FD8DFE800F0D2
:1053B00006122A324750656E8D97AE0069741F221F
:1053C00002212970009407F154017B793046FFF7E0
:1053D00049FB0BE000F0A8F801280BD1E86838B1D0
:1053E000287C010654BF0520032028702046F2BD0A
:1053F0000720FAE7022808BF2C70F7D00528F5D15E
:105400000A20F2E73B797A89E96B3046FFF742FBE5
:105410000420EAE7397900F088F801280BD17A896D
:10542000E9688A4221D200F083F8E1D03B79304626
:10543000FFF730FBDAE70528D8D10920D5E700943B
:105440007B793A89E96B3046FFF70CFB0620CCE705
:1054500000F06AF801280BD13A89E9688A4204D23F
:1054600000F066F8C4D00094AFE70020E860BFE722
:10547000022808BF0520B8D0C0E73B790D2207F10C
:1054800078013046FFF706FB0820AEE7397900F0D7
:105490004CF80128CFD12870AC70D6F87C03C469D1
:1054A00021793046FDF7E6FC0D2802BFA06F1D49AB
:1054B000884208D1E06FA16D884202BF94F8840051
:1054C0000028002492D0022490E70022304600F009
:1054D00036F800288CD0042888D10B2085E70122DB
:1054E000304600F02CF80028F5D179793046FDF7E8
:1054F0000FFDC0F10100C2B279793046FDF7FBFC27
:10550000397900223046FDF7F6FC96E73046FFF782
:105510001DFF0400E0D1012067E70000555342431E
:10552000504030205553425379793046FDF7D2BC74
:10553000EB6B9918E963EB68981AE860704780B5DF
:10554000D0F87C33DB69022112B1012A02D005E0D8
:10555000D97900E09979FEF767FE0146084602BD59
:10556000FFF7ACBE38B5D0F87C33DB6903F15004EB
:105570000A46A5780221012D02D0022D10D013E099
:105580000020E060207410210A20A07400F001F9CE
:105590000221A17000220120E2742070012103E0A9
:1055A0001146FFF7F7FE0146084632BDF8B514462E
:1055B000D0F87C23D66906F150070125BA78012A74
:1055C00002D0022A11D025E0082000F084F8102132
:1055D00006F1630000F03AF92522FA74022106F17F
:1055E00010023D70B970FA6314E0FFF7D3FE0500B6
:1055F00010D1F86BC1788278437841EA02210278B1
:1056000041EA034141EA02612160C179807941EABE
:105610000021A1802846F2BD2DE9F0410E46D0F8C8
:105620007C13D1F81C8008F150070225B9780129B4
:10563000144602D002291BD04AE0242000F04BF887
:105640000A2108F1630000F001F9002078750021BB
:105650002420B975F8753976BD70122276010120C3
:1056600008F11001FA743E753870F96301252FE0D6
:105670003146FFF78FFE05002AD12221204600F097
:10568000E5F8F86B017801F01F016170F86B0178A3
:1056900049092170F86B417811F0800018BF012092
:1056A000A070E21CF86B00F10801086810604868FF
:1056B00050601022F86B00F1100104F10C00FCF7AF
:1056C0005BFBF86B00F1200104F11D02086810601B
:1056D0002846BDE8F081F86080210A203974B8744A
:1056E0007047F8B51746D0F87C23D56905F1500608
:1056F0000C46B2780221012A02D0022A1FD02EE0E5
:105700000E20F06080210A203174B074102105F160
:10571000630000F09BF8002070750021B1753176B0
:1057200003220E20F274F07505F11001F16364019B
:105730000120022234753070B27001210FE0214641
:10574000FFF728FE01000AD1F06B827802F00F0209
:105750003A70F06B027B7A70F06B427BBA7008464D
:10576000F2BDF8B500F050F802D0022F09D00BE0DE
:1057700000F028F8002100F009F82A2200F02AF8A9
:1057800002E0FFF707FE02461046F2BD3174B07426
:10579000102103F1630000F059B8F8B500F034F8B7
:1057A00002D0022F09D00BE000F00CF88021FFF7A7
:1057B000EDFF282200F00EF802E0FFF7EBFD0246B5
:1057C0001046F2BD00940699B3F898004143F16089
:1057D0000A207047F27402229DF8030070759DF84C
:1057E0000200B0759DF80100F0759DF8001031764B
:1057F0009DF81900B07601209DF81810B270F1766E
:105800003070F563012270471D46D0F87C33DB69A8
:1058100003F150061446B7780222012F70470000AA
:105820000749086808B1002070470648C008C00052
:1058300008600549C908C900091A0160704700BF1E
:10584000F4480020074D0020004F00200022FCF704
:105850006FBE00000020704710B501463448FFF7C6
:105860003FFC012400B10024204610BD70B58EB06D
:1058700000F033F8FFF75AFC012508B9002509E0CC
:1058800000F026F89DF8110004281CBF28283A28AB
:1058900000D1032519E070B58EB000F01EF8FFF7B7
:1058A0006DFC012508B900250FE000F011F89DF806
:1058B0001100042808D0272804D0282818BF3A2827
:1058C00002D002E0022500E0032528460EB070BD9C
:1058D00001AA21463046FFF714BC044600930B464C
:1058E000134E21463046704730B501250346032943
:1058F0008DB014460E4817D8DFE801F01402070DEA
:1059000000F018F888B901980BE000F013F860B9BE
:10591000BDF8080005E000F00DF830B9BDF808004A
:10592000400A2060002500E0042528460DB030BD67
:10593000FC4000206A461946FFF7E3BB10B52D4C2A
:105940000120207000F058F818B9207800F0FE000F
:105950002070207810BD38B50446264D01202870EF
:1059600000F056F818B92046FFF7E8FF28702878AD
:1059700032BDE3E70846114610B51A464FF0FF3333
:1059800000F054F807E00846114610B51A464FF0EB
:10599000FF3300F05BF8012420B900F02DF8002857
:1059A000FBD10024204610BD10B5124888B0144623
:1059B0000278D30748BF032019D4032916D8DFE89B
:1059C00001F01302070D684600F050F806980AE04F
:1059D000684600F04BF80798208005E0684600F024
:1059E00045F80798400A2060002000E0042008B035
:1059F00010BD00003000002080B50448FCF737F9E6
:105A0000042801D1002002BD012002BDD84700209A
:105A100080B500F031F8012801D0012002BDBDE8B9
:105A200002400148FBF754BDD84700201CB5009345
:105A3000002413460A4601460348FBF751FE00B115
:105A40000124204616BD00BFD84700201CB5009396
:105A5000002413460A4601460348FBF726FF00B11F
:105A60000124204616BD00BFD8470020014601484A
:105A7000FCF7E7B8D847002081B001208DF800007E
:105A80009DF8000001B070474355454141414143F5
:105A900045454549494941414592924F4F4F5555DA
:105AA000594F554F9C4F9E9F41494F55A5A5A6A7BD
:105AB000A8A9AAABACADAEAFB0B1B2B3B44141414D
:105AC000B8B9BABBBCBDBEBFC0C1C2C3C4C54141E9
:105AD000C8C9CACBCCCDCECFD1D14545454949491E
